{
  "abi": [
    {
      "inputs": [],
      "name": "addSchool",
      "outputs": [],
      "stateMutability": "nonpayable",
      "type": "function"
    },
    {
      "inputs": [
        {
          "internalType": "uint256",
          "name": "",
          "type": "uint256"
        }
      ],
      "name": "deployedSchools",
      "outputs": [
        {
          "internalType": "contract School",
          "name": "",
          "type": "address"
        }
      ],
      "stateMutability": "view",
      "type": "function"
    },
    {
      "inputs": [],
      "name": "getAllSchools",
      "outputs": [
        {
          "internalType": "contract School[]",
          "name": "",
          "type": "address[]"
        }
      ],
      "stateMutability": "view",
      "type": "function"
    }
  ],
  "devdoc": {
    "kind": "dev",
    "methods": {},
    "version": 1
  },
  "evm": {
    "assembly": "    /* \"glassyVault.sol\":60:374  contract CreateSchool {... */\n  mstore(0x40, 0x80)\n  callvalue\n  dup1\n  iszero\n  tag_1\n  jumpi\n  0x00\n  dup1\n  revert\ntag_1:\n  pop\n  dataSize(sub_0)\n  dup1\n  dataOffset(sub_0)\n  0x00\n  codecopy\n  0x00\n  return\nstop\n\nsub_0: assembly {\n        /* \"glassyVault.sol\":60:374  contract CreateSchool {... */\n      mstore(0x40, 0x80)\n      callvalue\n      dup1\n      iszero\n      tag_1\n      jumpi\n      0x00\n      dup1\n      revert\n    tag_1:\n      pop\n      jumpi(tag_2, lt(calldatasize, 0x04))\n      shr(0xe0, calldataload(0x00))\n      dup1\n      0x05ad1d16\n      eq\n      tag_3\n      jumpi\n      dup1\n      0x4eed407e\n      eq\n      tag_4\n      jumpi\n      dup1\n      0xbae324fc\n      eq\n      tag_5\n      jumpi\n    tag_2:\n      0x00\n      dup1\n      revert\n        /* \"glassyVault.sol\":129:259  function addSchool() public {... */\n    tag_3:\n      tag_6\n      tag_7\n      jump\t// in\n    tag_6:\n      stop\n        /* \"glassyVault.sol\":89:120  School[] public deployedSchools */\n    tag_4:\n      tag_8\n      0x04\n      dup1\n      calldatasize\n      sub\n      dup2\n      add\n      swap1\n      tag_9\n      swap2\n      swap1\n      tag_10\n      jump\t// in\n    tag_9:\n      tag_11\n      jump\t// in\n    tag_8:\n      mload(0x40)\n      tag_12\n      swap2\n      swap1\n      tag_13\n      jump\t// in\n    tag_12:\n      mload(0x40)\n      dup1\n      swap2\n      sub\n      swap1\n      return\n        /* \"glassyVault.sol\":267:371  function getAllSchools() public view returns (School[] memory) {... */\n    tag_5:\n      tag_14\n      tag_15\n      jump\t// in\n    tag_14:\n      mload(0x40)\n      tag_16\n      swap2\n      swap1\n      tag_17\n      jump\t// in\n    tag_16:\n      mload(0x40)\n      dup1\n      swap2\n      sub\n      swap1\n      return\n        /* \"glassyVault.sol\":129:259  function addSchool() public {... */\n    tag_7:\n        /* \"glassyVault.sol\":168:184  School newSchool */\n      0x00\n        /* \"glassyVault.sol\":198:208  msg.sender */\n      caller\n        /* \"glassyVault.sol\":187:209  new School(msg.sender) */\n      mload(0x40)\n      tag_19\n      swap1\n      tag_20\n      jump\t// in\n    tag_19:\n      tag_21\n      swap2\n      swap1\n      tag_22\n      jump\t// in\n    tag_21:\n      mload(0x40)\n      dup1\n      swap2\n      sub\n      swap1\n      0x00\n      create\n      dup1\n      iszero\n      dup1\n      iszero\n      tag_23\n      jumpi\n      returndatasize\n      0x00\n      dup1\n      returndatacopy\n      revert(0x00, returndatasize)\n    tag_23:\n      pop\n        /* \"glassyVault.sol\":168:209  School newSchool = new School(msg.sender) */\n      swap1\n      pop\n        /* \"glassyVault.sol\":220:235  deployedSchools */\n      0x00\n        /* \"glassyVault.sol\":241:250  newSchool */\n      dup2\n        /* \"glassyVault.sol\":220:251  deployedSchools.push(newSchool) */\n      swap1\n      dup1\n      0x01\n      dup2\n      sload\n      add\n      dup1\n      dup3\n      sstore\n      dup1\n      swap2\n      pop\n      pop\n      0x01\n      swap1\n      sub\n      swap1\n      0x00\n      mstore\n      keccak256(0x00, 0x20)\n      add\n      0x00\n      swap1\n      swap2\n      swap1\n      swap2\n      swap1\n      swap2\n      0x0100\n      exp\n      dup2\n      sload\n      dup2\n      0xffffffffffffffffffffffffffffffffffffffff\n      mul\n      not\n      and\n      swap1\n      dup4\n      0xffffffffffffffffffffffffffffffffffffffff\n      and\n      mul\n      or\n      swap1\n      sstore\n      pop\n        /* \"glassyVault.sol\":157:259  {... */\n      pop\n        /* \"glassyVault.sol\":129:259  function addSchool() public {... */\n      jump\t// out\n        /* \"glassyVault.sol\":89:120  School[] public deployedSchools */\n    tag_11:\n      0x00\n      dup2\n      dup2\n      sload\n      dup2\n      lt\n      tag_25\n      jumpi\n      0x00\n      dup1\n      revert\n    tag_25:\n      swap1\n      0x00\n      mstore\n      keccak256(0x00, 0x20)\n      add\n      0x00\n      swap2\n      pop\n      sload\n      swap1\n      0x0100\n      exp\n      swap1\n      div\n      0xffffffffffffffffffffffffffffffffffffffff\n      and\n      dup2\n      jump\t// out\n        /* \"glassyVault.sol\":267:371  function getAllSchools() public view returns (School[] memory) {... */\n    tag_15:\n        /* \"glassyVault.sol\":313:328  School[] memory */\n      0x60\n        /* \"glassyVault.sol\":348:363  deployedSchools */\n      0x00\n        /* \"glassyVault.sol\":341:363  return deployedSchools */\n      dup1\n      sload\n      dup1\n      0x20\n      mul\n      0x20\n      add\n      mload(0x40)\n      swap1\n      dup2\n      add\n      0x40\n      mstore\n      dup1\n      swap3\n      swap2\n      swap1\n      dup2\n      dup2\n      mstore\n      0x20\n      add\n      dup3\n      dup1\n      sload\n      dup1\n      iszero\n      tag_28\n      jumpi\n      0x20\n      mul\n      dup3\n      add\n      swap2\n      swap1\n      0x00\n      mstore\n      keccak256(0x00, 0x20)\n      swap1\n    tag_29:\n      dup2\n      0x00\n      swap1\n      sload\n      swap1\n      0x0100\n      exp\n      swap1\n      div\n      0xffffffffffffffffffffffffffffffffffffffff\n      and\n      0xffffffffffffffffffffffffffffffffffffffff\n      and\n      dup2\n      mstore\n      0x20\n      add\n      swap1\n      0x01\n      add\n      swap1\n      dup1\n      dup4\n      gt\n      tag_29\n      jumpi\n    tag_28:\n      pop\n      pop\n      pop\n      pop\n      pop\n      swap1\n      pop\n        /* \"glassyVault.sol\":267:371  function getAllSchools() public view returns (School[] memory) {... */\n      swap1\n      jump\t// out\n    tag_20:\n      dataSize(sub_0)\n      dup1\n      dataOffset(sub_0)\n      dup4\n      codecopy\n      add\n      swap1\n      jump\t// out\n        /* \"#utility.yul\":88:205   */\n    tag_31:\n        /* \"#utility.yul\":197:198   */\n      0x00\n        /* \"#utility.yul\":194:195   */\n      dup1\n        /* \"#utility.yul\":187:199   */\n      revert\n        /* \"#utility.yul\":334:411   */\n    tag_33:\n        /* \"#utility.yul\":371:378   */\n      0x00\n        /* \"#utility.yul\":400:405   */\n      dup2\n        /* \"#utility.yul\":389:405   */\n      swap1\n      pop\n        /* \"#utility.yul\":334:411   */\n      swap2\n      swap1\n      pop\n      jump\t// out\n        /* \"#utility.yul\":417:539   */\n    tag_34:\n        /* \"#utility.yul\":490:514   */\n      tag_57\n        /* \"#utility.yul\":508:513   */\n      dup2\n        /* \"#utility.yul\":490:514   */\n      tag_33\n      jump\t// in\n    tag_57:\n        /* \"#utility.yul\":483:488   */\n      dup2\n        /* \"#utility.yul\":480:515   */\n      eq\n        /* \"#utility.yul\":470:533   */\n      tag_58\n      jumpi\n        /* \"#utility.yul\":529:530   */\n      0x00\n        /* \"#utility.yul\":526:527   */\n      dup1\n        /* \"#utility.yul\":519:531   */\n      revert\n        /* \"#utility.yul\":470:533   */\n    tag_58:\n        /* \"#utility.yul\":417:539   */\n      pop\n      jump\t// out\n        /* \"#utility.yul\":545:684   */\n    tag_35:\n        /* \"#utility.yul\":591:596   */\n      0x00\n        /* \"#utility.yul\":629:635   */\n      dup2\n        /* \"#utility.yul\":616:636   */\n      calldataload\n        /* \"#utility.yul\":607:636   */\n      swap1\n      pop\n        /* \"#utility.yul\":645:678   */\n      tag_60\n        /* \"#utility.yul\":672:677   */\n      dup2\n        /* \"#utility.yul\":645:678   */\n      tag_34\n      jump\t// in\n    tag_60:\n        /* \"#utility.yul\":545:684   */\n      swap3\n      swap2\n      pop\n      pop\n      jump\t// out\n        /* \"#utility.yul\":690:1019   */\n    tag_10:\n        /* \"#utility.yul\":749:755   */\n      0x00\n        /* \"#utility.yul\":798:800   */\n      0x20\n        /* \"#utility.yul\":786:795   */\n      dup3\n        /* \"#utility.yul\":777:784   */\n      dup5\n        /* \"#utility.yul\":773:796   */\n      sub\n        /* \"#utility.yul\":769:801   */\n      slt\n        /* \"#utility.yul\":766:885   */\n      iszero\n      tag_62\n      jumpi\n        /* \"#utility.yul\":804:883   */\n      tag_63\n      tag_31\n      jump\t// in\n    tag_63:\n        /* \"#utility.yul\":766:885   */\n    tag_62:\n        /* \"#utility.yul\":924:925   */\n      0x00\n        /* \"#utility.yul\":949:1002   */\n      tag_64\n        /* \"#utility.yul\":994:1001   */\n      dup5\n        /* \"#utility.yul\":985:991   */\n      dup3\n        /* \"#utility.yul\":974:983   */\n      dup6\n        /* \"#utility.yul\":970:992   */\n      add\n        /* \"#utility.yul\":949:1002   */\n      tag_35\n      jump\t// in\n    tag_64:\n        /* \"#utility.yul\":939:1002   */\n      swap2\n      pop\n        /* \"#utility.yul\":895:1012   */\n      pop\n        /* \"#utility.yul\":690:1019   */\n      swap3\n      swap2\n      pop\n      pop\n      jump\t// out\n        /* \"#utility.yul\":1025:1151   */\n    tag_36:\n        /* \"#utility.yul\":1062:1069   */\n      0x00\n        /* \"#utility.yul\":1102:1144   */\n      0xffffffffffffffffffffffffffffffffffffffff\n        /* \"#utility.yul\":1095:1100   */\n      dup3\n        /* \"#utility.yul\":1091:1145   */\n      and\n        /* \"#utility.yul\":1080:1145   */\n      swap1\n      pop\n        /* \"#utility.yul\":1025:1151   */\n      swap2\n      swap1\n      pop\n      jump\t// out\n        /* \"#utility.yul\":1157:1217   */\n    tag_37:\n        /* \"#utility.yul\":1185:1188   */\n      0x00\n        /* \"#utility.yul\":1206:1211   */\n      dup2\n        /* \"#utility.yul\":1199:1211   */\n      swap1\n      pop\n        /* \"#utility.yul\":1157:1217   */\n      swap2\n      swap1\n      pop\n      jump\t// out\n        /* \"#utility.yul\":1223:1365   */\n    tag_38:\n        /* \"#utility.yul\":1273:1282   */\n      0x00\n        /* \"#utility.yul\":1306:1359   */\n      tag_68\n        /* \"#utility.yul\":1324:1358   */\n      tag_69\n        /* \"#utility.yul\":1333:1357   */\n      tag_70\n        /* \"#utility.yul\":1351:1356   */\n      dup5\n        /* \"#utility.yul\":1333:1357   */\n      tag_36\n      jump\t// in\n    tag_70:\n        /* \"#utility.yul\":1324:1358   */\n      tag_37\n      jump\t// in\n    tag_69:\n        /* \"#utility.yul\":1306:1359   */\n      tag_36\n      jump\t// in\n    tag_68:\n        /* \"#utility.yul\":1293:1359   */\n      swap1\n      pop\n        /* \"#utility.yul\":1223:1365   */\n      swap2\n      swap1\n      pop\n      jump\t// out\n        /* \"#utility.yul\":1371:1497   */\n    tag_39:\n        /* \"#utility.yul\":1421:1430   */\n      0x00\n        /* \"#utility.yul\":1454:1491   */\n      tag_72\n        /* \"#utility.yul\":1485:1490   */\n      dup3\n        /* \"#utility.yul\":1454:1491   */\n      tag_38\n      jump\t// in\n    tag_72:\n        /* \"#utility.yul\":1441:1491   */\n      swap1\n      pop\n        /* \"#utility.yul\":1371:1497   */\n      swap2\n      swap1\n      pop\n      jump\t// out\n        /* \"#utility.yul\":1503:1643   */\n    tag_40:\n        /* \"#utility.yul\":1567:1576   */\n      0x00\n        /* \"#utility.yul\":1600:1637   */\n      tag_74\n        /* \"#utility.yul\":1631:1636   */\n      dup3\n        /* \"#utility.yul\":1600:1637   */\n      tag_39\n      jump\t// in\n    tag_74:\n        /* \"#utility.yul\":1587:1637   */\n      swap1\n      pop\n        /* \"#utility.yul\":1503:1643   */\n      swap2\n      swap1\n      pop\n      jump\t// out\n        /* \"#utility.yul\":1649:1808   */\n    tag_41:\n        /* \"#utility.yul\":1750:1801   */\n      tag_76\n        /* \"#utility.yul\":1795:1800   */\n      dup2\n        /* \"#utility.yul\":1750:1801   */\n      tag_40\n      jump\t// in\n    tag_76:\n        /* \"#utility.yul\":1745:1748   */\n      dup3\n        /* \"#utility.yul\":1738:1802   */\n      mstore\n        /* \"#utility.yul\":1649:1808   */\n      pop\n      pop\n      jump\t// out\n        /* \"#utility.yul\":1814:2064   */\n    tag_13:\n        /* \"#utility.yul\":1921:1925   */\n      0x00\n        /* \"#utility.yul\":1959:1961   */\n      0x20\n        /* \"#utility.yul\":1948:1957   */\n      dup3\n        /* \"#utility.yul\":1944:1962   */\n      add\n        /* \"#utility.yul\":1936:1962   */\n      swap1\n      pop\n        /* \"#utility.yul\":1972:2057   */\n      tag_78\n        /* \"#utility.yul\":2054:2055   */\n      0x00\n        /* \"#utility.yul\":2043:2052   */\n      dup4\n        /* \"#utility.yul\":2039:2056   */\n      add\n        /* \"#utility.yul\":2030:2036   */\n      dup5\n        /* \"#utility.yul\":1972:2057   */\n      tag_41\n      jump\t// in\n    tag_78:\n        /* \"#utility.yul\":1814:2064   */\n      swap3\n      swap2\n      pop\n      pop\n      jump\t// out\n        /* \"#utility.yul\":2070:2198   */\n    tag_42:\n        /* \"#utility.yul\":2151:2157   */\n      0x00\n        /* \"#utility.yul\":2185:2190   */\n      dup2\n        /* \"#utility.yul\":2179:2191   */\n      mload\n        /* \"#utility.yul\":2169:2191   */\n      swap1\n      pop\n        /* \"#utility.yul\":2070:2198   */\n      swap2\n      swap1\n      pop\n      jump\t// out\n        /* \"#utility.yul\":2204:2388   */\n    tag_43:\n        /* \"#utility.yul\":2303:2314   */\n      0x00\n        /* \"#utility.yul\":2337:2343   */\n      dup3\n        /* \"#utility.yul\":2332:2335   */\n      dup3\n        /* \"#utility.yul\":2325:2344   */\n      mstore\n        /* \"#utility.yul\":2377:2381   */\n      0x20\n        /* \"#utility.yul\":2372:2375   */\n      dup3\n        /* \"#utility.yul\":2368:2382   */\n      add\n        /* \"#utility.yul\":2353:2382   */\n      swap1\n      pop\n        /* \"#utility.yul\":2204:2388   */\n      swap3\n      swap2\n      pop\n      pop\n      jump\t// out\n        /* \"#utility.yul\":2394:2540   */\n    tag_44:\n        /* \"#utility.yul\":2475:2479   */\n      0x00\n        /* \"#utility.yul\":2498:2501   */\n      dup2\n        /* \"#utility.yul\":2490:2501   */\n      swap1\n      pop\n        /* \"#utility.yul\":2528:2532   */\n      0x20\n        /* \"#utility.yul\":2523:2526   */\n      dup3\n        /* \"#utility.yul\":2519:2533   */\n      add\n        /* \"#utility.yul\":2511:2533   */\n      swap1\n      pop\n        /* \"#utility.yul\":2394:2540   */\n      swap2\n      swap1\n      pop\n      jump\t// out\n        /* \"#utility.yul\":2546:2695   */\n    tag_45:\n        /* \"#utility.yul\":2637:2688   */\n      tag_83\n        /* \"#utility.yul\":2682:2687   */\n      dup2\n        /* \"#utility.yul\":2637:2688   */\n      tag_40\n      jump\t// in\n    tag_83:\n        /* \"#utility.yul\":2632:2635   */\n      dup3\n        /* \"#utility.yul\":2625:2689   */\n      mstore\n        /* \"#utility.yul\":2546:2695   */\n      pop\n      pop\n      jump\t// out\n        /* \"#utility.yul\":2701:2908   */\n    tag_46:\n        /* \"#utility.yul\":2784:2794   */\n      0x00\n        /* \"#utility.yul\":2805:2865   */\n      tag_85\n        /* \"#utility.yul\":2861:2864   */\n      dup4\n        /* \"#utility.yul\":2853:2859   */\n      dup4\n        /* \"#utility.yul\":2805:2865   */\n      tag_45\n      jump\t// in\n    tag_85:\n        /* \"#utility.yul\":2897:2901   */\n      0x20\n        /* \"#utility.yul\":2892:2895   */\n      dup4\n        /* \"#utility.yul\":2888:2902   */\n      add\n        /* \"#utility.yul\":2874:2902   */\n      swap1\n      pop\n        /* \"#utility.yul\":2701:2908   */\n      swap3\n      swap2\n      pop\n      pop\n      jump\t// out\n        /* \"#utility.yul\":2914:3041   */\n    tag_47:\n        /* \"#utility.yul\":2998:3002   */\n      0x00\n        /* \"#utility.yul\":3030:3034   */\n      0x20\n        /* \"#utility.yul\":3025:3028   */\n      dup3\n        /* \"#utility.yul\":3021:3035   */\n      add\n        /* \"#utility.yul\":3013:3035   */\n      swap1\n      pop\n        /* \"#utility.yul\":2914:3041   */\n      swap2\n      swap1\n      pop\n      jump\t// out\n        /* \"#utility.yul\":3085:3887   */\n    tag_48:\n        /* \"#utility.yul\":3218:3221   */\n      0x00\n        /* \"#utility.yul\":3247:3315   */\n      tag_88\n        /* \"#utility.yul\":3309:3314   */\n      dup3\n        /* \"#utility.yul\":3247:3315   */\n      tag_42\n      jump\t// in\n    tag_88:\n        /* \"#utility.yul\":3331:3417   */\n      tag_89\n        /* \"#utility.yul\":3410:3416   */\n      dup2\n        /* \"#utility.yul\":3405:3408   */\n      dup6\n        /* \"#utility.yul\":3331:3417   */\n      tag_43\n      jump\t// in\n    tag_89:\n        /* \"#utility.yul\":3324:3417   */\n      swap4\n      pop\n        /* \"#utility.yul\":3441:3511   */\n      tag_90\n        /* \"#utility.yul\":3505:3510   */\n      dup4\n        /* \"#utility.yul\":3441:3511   */\n      tag_44\n      jump\t// in\n    tag_90:\n        /* \"#utility.yul\":3534:3541   */\n      dup1\n        /* \"#utility.yul\":3565:3566   */\n      0x00\n        /* \"#utility.yul\":3550:3862   */\n    tag_91:\n        /* \"#utility.yul\":3575:3581   */\n      dup4\n        /* \"#utility.yul\":3572:3573   */\n      dup2\n        /* \"#utility.yul\":3569:3582   */\n      lt\n        /* \"#utility.yul\":3550:3862   */\n      iszero\n      tag_93\n      jumpi\n        /* \"#utility.yul\":3651:3657   */\n      dup2\n        /* \"#utility.yul\":3645:3658   */\n      mload\n        /* \"#utility.yul\":3678:3755   */\n      tag_94\n        /* \"#utility.yul\":3751:3754   */\n      dup9\n        /* \"#utility.yul\":3736:3749   */\n      dup3\n        /* \"#utility.yul\":3678:3755   */\n      tag_46\n      jump\t// in\n    tag_94:\n        /* \"#utility.yul\":3671:3755   */\n      swap8\n      pop\n        /* \"#utility.yul\":3778:3852   */\n      tag_95\n        /* \"#utility.yul\":3845:3851   */\n      dup4\n        /* \"#utility.yul\":3778:3852   */\n      tag_47\n      jump\t// in\n    tag_95:\n        /* \"#utility.yul\":3768:3852   */\n      swap3\n      pop\n        /* \"#utility.yul\":3610:3862   */\n      pop\n        /* \"#utility.yul\":3597:3598   */\n      0x01\n        /* \"#utility.yul\":3594:3595   */\n      dup2\n        /* \"#utility.yul\":3590:3599   */\n      add\n        /* \"#utility.yul\":3585:3599   */\n      swap1\n      pop\n        /* \"#utility.yul\":3550:3862   */\n      jump(tag_91)\n    tag_93:\n        /* \"#utility.yul\":3554:3568   */\n      pop\n        /* \"#utility.yul\":3878:3881   */\n      dup6\n        /* \"#utility.yul\":3871:3881   */\n      swap4\n      pop\n        /* \"#utility.yul\":3223:3887   */\n      pop\n      pop\n      pop\n        /* \"#utility.yul\":3085:3887   */\n      swap3\n      swap2\n      pop\n      pop\n      jump\t// out\n        /* \"#utility.yul\":3893:4294   */\n    tag_17:\n        /* \"#utility.yul\":4050:4054   */\n      0x00\n        /* \"#utility.yul\":4088:4090   */\n      0x20\n        /* \"#utility.yul\":4077:4086   */\n      dup3\n        /* \"#utility.yul\":4073:4091   */\n      add\n        /* \"#utility.yul\":4065:4091   */\n      swap1\n      pop\n        /* \"#utility.yul\":4137:4146   */\n      dup2\n        /* \"#utility.yul\":4131:4135   */\n      dup2\n        /* \"#utility.yul\":4127:4147   */\n      sub\n        /* \"#utility.yul\":4123:4124   */\n      0x00\n        /* \"#utility.yul\":4112:4121   */\n      dup4\n        /* \"#utility.yul\":4108:4125   */\n      add\n        /* \"#utility.yul\":4101:4148   */\n      mstore\n        /* \"#utility.yul\":4165:4287   */\n      tag_97\n        /* \"#utility.yul\":4282:4286   */\n      dup2\n        /* \"#utility.yul\":4273:4279   */\n      dup5\n        /* \"#utility.yul\":4165:4287   */\n      tag_48\n      jump\t// in\n    tag_97:\n        /* \"#utility.yul\":4157:4287   */\n      swap1\n      pop\n        /* \"#utility.yul\":3893:4294   */\n      swap3\n      swap2\n      pop\n      pop\n      jump\t// out\n        /* \"#utility.yul\":4300:4396   */\n    tag_49:\n        /* \"#utility.yul\":4337:4344   */\n      0x00\n        /* \"#utility.yul\":4366:4390   */\n      tag_99\n        /* \"#utility.yul\":4384:4389   */\n      dup3\n        /* \"#utility.yul\":4366:4390   */\n      tag_36\n      jump\t// in\n    tag_99:\n        /* \"#utility.yul\":4355:4390   */\n      swap1\n      pop\n        /* \"#utility.yul\":4300:4396   */\n      swap2\n      swap1\n      pop\n      jump\t// out\n        /* \"#utility.yul\":4402:4520   */\n    tag_50:\n        /* \"#utility.yul\":4489:4513   */\n      tag_101\n        /* \"#utility.yul\":4507:4512   */\n      dup2\n        /* \"#utility.yul\":4489:4513   */\n      tag_49\n      jump\t// in\n    tag_101:\n        /* \"#utility.yul\":4484:4487   */\n      dup3\n        /* \"#utility.yul\":4477:4514   */\n      mstore\n        /* \"#utility.yul\":4402:4520   */\n      pop\n      pop\n      jump\t// out\n        /* \"#utility.yul\":4526:4748   */\n    tag_22:\n        /* \"#utility.yul\":4619:4623   */\n      0x00\n        /* \"#utility.yul\":4657:4659   */\n      0x20\n        /* \"#utility.yul\":4646:4655   */\n      dup3\n        /* \"#utility.yul\":4642:4660   */\n      add\n        /* \"#utility.yul\":4634:4660   */\n      swap1\n      pop\n        /* \"#utility.yul\":4670:4741   */\n      tag_103\n        /* \"#utility.yul\":4738:4739   */\n      0x00\n        /* \"#utility.yul\":4727:4736   */\n      dup4\n        /* \"#utility.yul\":4723:4740   */\n      add\n        /* \"#utility.yul\":4714:4720   */\n      dup5\n        /* \"#utility.yul\":4670:4741   */\n      tag_50\n      jump\t// in\n    tag_103:\n        /* \"#utility.yul\":4526:4748   */\n      swap3\n      swap2\n      pop\n      pop\n      jump\t// out\n    stop\n\n    sub_0: assembly {\n            /* \"glassyVault.sol\":378:3396  contract School {... */\n          mstore(0x40, 0x80)\n            /* \"glassyVault.sol\":1466:1533  constructor(address manager) {... */\n          callvalue\n          dup1\n          iszero\n          tag_1\n          jumpi\n          0x00\n          dup1\n          revert\n        tag_1:\n          pop\n          mload(0x40)\n          sub(codesize, bytecodeSize)\n          dup1\n          bytecodeSize\n          dup4\n          codecopy\n          dup2\n          dup2\n          add\n          0x40\n          mstore\n          dup2\n          add\n          swap1\n          tag_2\n          swap2\n          swap1\n          tag_3\n          jump\t// in\n        tag_2:\n            /* \"glassyVault.sol\":1518:1525  manager */\n          dup1\n            /* \"glassyVault.sol\":1506:1515  principal */\n          0x00\n          dup1\n            /* \"glassyVault.sol\":1506:1525  principal = manager */\n          0x0100\n          exp\n          dup2\n          sload\n          dup2\n          0xffffffffffffffffffffffffffffffffffffffff\n          mul\n          not\n          and\n          swap1\n          dup4\n          0xffffffffffffffffffffffffffffffffffffffff\n          and\n          mul\n          or\n          swap1\n          sstore\n          pop\n            /* \"glassyVault.sol\":1466:1533  constructor(address manager) {... */\n          pop\n            /* \"glassyVault.sol\":378:3396  contract School {... */\n          jump(tag_6)\n            /* \"#utility.yul\":88:205   */\n        tag_8:\n            /* \"#utility.yul\":197:198   */\n          0x00\n            /* \"#utility.yul\":194:195   */\n          dup1\n            /* \"#utility.yul\":187:199   */\n          revert\n            /* \"#utility.yul\":334:460   */\n        tag_10:\n            /* \"#utility.yul\":371:378   */\n          0x00\n            /* \"#utility.yul\":411:453   */\n          0xffffffffffffffffffffffffffffffffffffffff\n            /* \"#utility.yul\":404:409   */\n          dup3\n            /* \"#utility.yul\":400:454   */\n          and\n            /* \"#utility.yul\":389:454   */\n          swap1\n          pop\n            /* \"#utility.yul\":334:460   */\n          swap2\n          swap1\n          pop\n          jump\t// out\n            /* \"#utility.yul\":466:562   */\n        tag_11:\n            /* \"#utility.yul\":503:510   */\n          0x00\n            /* \"#utility.yul\":532:556   */\n          tag_20\n            /* \"#utility.yul\":550:555   */\n          dup3\n            /* \"#utility.yul\":532:556   */\n          tag_10\n          jump\t// in\n        tag_20:\n            /* \"#utility.yul\":521:556   */\n          swap1\n          pop\n            /* \"#utility.yul\":466:562   */\n          swap2\n          swap1\n          pop\n          jump\t// out\n            /* \"#utility.yul\":568:690   */\n        tag_12:\n            /* \"#utility.yul\":641:665   */\n          tag_22\n            /* \"#utility.yul\":659:664   */\n          dup2\n            /* \"#utility.yul\":641:665   */\n          tag_11\n          jump\t// in\n        tag_22:\n            /* \"#utility.yul\":634:639   */\n          dup2\n            /* \"#utility.yul\":631:666   */\n          eq\n            /* \"#utility.yul\":621:684   */\n          tag_23\n          jumpi\n            /* \"#utility.yul\":680:681   */\n          0x00\n            /* \"#utility.yul\":677:678   */\n          dup1\n            /* \"#utility.yul\":670:682   */\n          revert\n            /* \"#utility.yul\":621:684   */\n        tag_23:\n            /* \"#utility.yul\":568:690   */\n          pop\n          jump\t// out\n            /* \"#utility.yul\":696:839   */\n        tag_13:\n            /* \"#utility.yul\":753:758   */\n          0x00\n            /* \"#utility.yul\":784:790   */\n          dup2\n            /* \"#utility.yul\":778:791   */\n          mload\n            /* \"#utility.yul\":769:791   */\n          swap1\n          pop\n            /* \"#utility.yul\":800:833   */\n          tag_25\n            /* \"#utility.yul\":827:832   */\n          dup2\n            /* \"#utility.yul\":800:833   */\n          tag_12\n          jump\t// in\n        tag_25:\n            /* \"#utility.yul\":696:839   */\n          swap3\n          swap2\n          pop\n          pop\n          jump\t// out\n            /* \"#utility.yul\":845:1196   */\n        tag_3:\n            /* \"#utility.yul\":915:921   */\n          0x00\n            /* \"#utility.yul\":964:966   */\n          0x20\n            /* \"#utility.yul\":952:961   */\n          dup3\n            /* \"#utility.yul\":943:950   */\n          dup5\n            /* \"#utility.yul\":939:962   */\n          sub\n            /* \"#utility.yul\":935:967   */\n          slt\n            /* \"#utility.yul\":932:1051   */\n          iszero\n          tag_27\n          jumpi\n            /* \"#utility.yul\":970:1049   */\n          tag_28\n          tag_8\n          jump\t// in\n        tag_28:\n            /* \"#utility.yul\":932:1051   */\n        tag_27:\n            /* \"#utility.yul\":1090:1091   */\n          0x00\n            /* \"#utility.yul\":1115:1179   */\n          tag_29\n            /* \"#utility.yul\":1171:1178   */\n          dup5\n            /* \"#utility.yul\":1162:1168   */\n          dup3\n            /* \"#utility.yul\":1151:1160   */\n          dup6\n            /* \"#utility.yul\":1147:1169   */\n          add\n            /* \"#utility.yul\":1115:1179   */\n          tag_13\n          jump\t// in\n        tag_29:\n            /* \"#utility.yul\":1105:1179   */\n          swap2\n          pop\n            /* \"#utility.yul\":1061:1189   */\n          pop\n            /* \"#utility.yul\":845:1196   */\n          swap3\n          swap2\n          pop\n          pop\n          jump\t// out\n            /* \"glassyVault.sol\":378:3396  contract School {... */\n        tag_6:\n          dataSize(sub_0)\n          dup1\n          dataOffset(sub_0)\n          0x00\n          codecopy\n          0x00\n          return\n        stop\n\n        sub_0: assembly {\n                /* \"glassyVault.sol\":378:3396  contract School {... */\n              mstore(0x40, 0x80)\n              callvalue\n              dup1\n              iszero\n              tag_1\n              jumpi\n              0x00\n              dup1\n              revert\n            tag_1:\n              pop\n              jumpi(tag_2, lt(calldatasize, 0x04))\n              shr(0xe0, calldataload(0x00))\n              dup1\n              0x9e57716a\n              gt\n              tag_10\n              jumpi\n              dup1\n              0x9e57716a\n              eq\n              tag_6\n              jumpi\n              dup1\n              0xaaa44e5c\n              eq\n              tag_7\n              jumpi\n              dup1\n              0xba5d3078\n              eq\n              tag_8\n              jumpi\n              dup1\n              0xcf254750\n              eq\n              tag_9\n              jumpi\n              jump(tag_2)\n            tag_10:\n              dup1\n              0x321e2665\n              eq\n              tag_3\n              jumpi\n              dup1\n              0x58955d32\n              eq\n              tag_4\n              jumpi\n              dup1\n              0x6f28c355\n              eq\n              tag_5\n              jumpi\n            tag_2:\n              0x00\n              dup1\n              revert\n                /* \"glassyVault.sol\":1541:1950  function createStudent(... */\n            tag_3:\n              tag_11\n              0x04\n              dup1\n              calldatasize\n              sub\n              dup2\n              add\n              swap1\n              tag_12\n              swap2\n              swap1\n              tag_13\n              jump\t// in\n            tag_12:\n              tag_14\n              jump\t// in\n            tag_11:\n              stop\n                /* \"glassyVault.sol\":1958:2402  function setTenthResult(string calldata id, Tenth memory record)... */\n            tag_4:\n              tag_15\n              0x04\n              dup1\n              calldatasize\n              sub\n              dup2\n              add\n              swap1\n              tag_16\n              swap2\n              swap1\n              tag_17\n              jump\t// in\n            tag_16:\n              tag_18\n              jump\t// in\n            tag_15:\n              stop\n                /* \"glassyVault.sol\":527:553  string[] public studentIds */\n            tag_5:\n              tag_19\n              0x04\n              dup1\n              calldatasize\n              sub\n              dup2\n              add\n              swap1\n              tag_20\n              swap2\n              swap1\n              tag_21\n              jump\t// in\n            tag_20:\n              tag_22\n              jump\t// in\n            tag_19:\n              mload(0x40)\n              tag_23\n              swap2\n              swap1\n              tag_24\n              jump\t// in\n            tag_23:\n              mload(0x40)\n              dup1\n              swap2\n              sub\n              swap1\n              return\n                /* \"glassyVault.sol\":475:520  mapping(string => Student) public findStudent */\n            tag_6:\n              tag_25\n              0x04\n              dup1\n              calldatasize\n              sub\n              dup2\n              add\n              swap1\n              tag_26\n              swap2\n              swap1\n              tag_27\n              jump\t// in\n            tag_26:\n              tag_28\n              jump\t// in\n            tag_25:\n              mload(0x40)\n              tag_29\n              swap7\n              swap6\n              swap5\n              swap4\n              swap3\n              swap2\n              swap1\n              tag_30\n              jump\t// in\n            tag_29:\n              mload(0x40)\n              dup1\n              swap2\n              sub\n              swap1\n              return\n                /* \"glassyVault.sol\":3296:3393  function getAllIds() public view returns (string[] memory) {... */\n            tag_7:\n              tag_31\n              tag_32\n              jump\t// in\n            tag_31:\n              mload(0x40)\n              tag_33\n              swap2\n              swap1\n              tag_34\n              jump\t// in\n            tag_33:\n              mload(0x40)\n              dup1\n              swap2\n              sub\n              swap1\n              return\n                /* \"glassyVault.sol\":401:425  address public principal */\n            tag_8:\n              tag_35\n              tag_36\n              jump\t// in\n            tag_35:\n              mload(0x40)\n              tag_37\n              swap2\n              swap1\n              tag_38\n              jump\t// in\n            tag_37:\n              mload(0x40)\n              dup1\n              swap2\n              sub\n              swap1\n              return\n                /* \"glassyVault.sol\":2410:3288  function setTwelthResult(string calldata id, Twelth memory record)... */\n            tag_9:\n              tag_39\n              0x04\n              dup1\n              calldatasize\n              sub\n              dup2\n              add\n              swap1\n              tag_40\n              swap2\n              swap1\n              tag_41\n              jump\t// in\n            tag_40:\n              tag_42\n              jump\t// in\n            tag_39:\n              stop\n                /* \"glassyVault.sol\":1541:1950  function createStudent(... */\n            tag_14:\n                /* \"glassyVault.sol\":1428:1437  principal */\n              0x00\n              dup1\n              sload\n              swap1\n              0x0100\n              exp\n              swap1\n              div\n              0xffffffffffffffffffffffffffffffffffffffff\n              and\n                /* \"glassyVault.sol\":1414:1437  msg.sender == principal */\n              0xffffffffffffffffffffffffffffffffffffffff\n              and\n                /* \"glassyVault.sol\":1414:1424  msg.sender */\n              caller\n                /* \"glassyVault.sol\":1414:1437  msg.sender == principal */\n              0xffffffffffffffffffffffffffffffffffffffff\n              and\n              eq\n                /* \"glassyVault.sol\":1406:1438  require(msg.sender == principal) */\n              tag_44\n              jumpi\n              0x00\n              dup1\n              revert\n            tag_44:\n                /* \"glassyVault.sol\":1726:1747  Student memory newStu */\n              tag_46\n              tag_47\n              jump\t// in\n            tag_46:\n                /* \"glassyVault.sol\":1772:1776  name */\n              dup9\n              dup9\n                /* \"glassyVault.sol\":1758:1776  newStu.name = name */\n              dup1\n              dup1\n              0x1f\n              add\n              0x20\n              dup1\n              swap2\n              div\n              mul\n              0x20\n              add\n              mload(0x40)\n              swap1\n              dup2\n              add\n              0x40\n              mstore\n              dup1\n              swap4\n              swap3\n              swap2\n              swap1\n              dup2\n              dup2\n              mstore\n              0x20\n              add\n              dup4\n              dup4\n              dup1\n              dup3\n              dup5\n              calldatacopy\n              0x00\n              dup2\n              dup5\n              add\n              mstore\n              not(0x1f)\n              0x1f\n              dup3\n              add\n              and\n              swap1\n              pop\n              dup1\n              dup4\n              add\n              swap3\n              pop\n              pop\n              pop\n              pop\n              pop\n              pop\n              pop\n                /* \"glassyVault.sol\":1758:1764  newStu */\n              dup2\n                /* \"glassyVault.sol\":1758:1769  newStu.name */\n              0x00\n              add\n                /* \"glassyVault.sol\":1758:1776  newStu.name = name */\n              dup2\n              swap1\n              mstore\n              pop\n                /* \"glassyVault.sol\":1799:1801  id */\n              dup7\n              dup7\n                /* \"glassyVault.sol\":1787:1801  newStu.id = id */\n              dup1\n              dup1\n              0x1f\n              add\n              0x20\n              dup1\n              swap2\n              div\n              mul\n              0x20\n              add\n              mload(0x40)\n              swap1\n              dup2\n              add\n              0x40\n              mstore\n              dup1\n              swap4\n              swap3\n              swap2\n              swap1\n              dup2\n              dup2\n              mstore\n              0x20\n              add\n              dup4\n              dup4\n              dup1\n              dup3\n              dup5\n              calldatacopy\n              0x00\n              dup2\n              dup5\n              add\n              mstore\n              not(0x1f)\n              0x1f\n              dup3\n              add\n              and\n              swap1\n              pop\n              dup1\n              dup4\n              add\n              swap3\n              pop\n              pop\n              pop\n              pop\n              pop\n              pop\n              pop\n                /* \"glassyVault.sol\":1787:1793  newStu */\n              dup2\n                /* \"glassyVault.sol\":1787:1796  newStu.id */\n              0x20\n              add\n                /* \"glassyVault.sol\":1787:1801  newStu.id = id */\n              dup2\n              swap1\n              mstore\n              pop\n                /* \"glassyVault.sol\":1812:1822  studentIds */\n              0x02\n                /* \"glassyVault.sol\":1828:1830  id */\n              dup8\n              dup8\n                /* \"glassyVault.sol\":1812:1831  studentIds.push(id) */\n              swap1\n              swap2\n              dup1\n              0x01\n              dup2\n              sload\n              add\n              dup1\n              dup3\n              sstore\n              dup1\n              swap2\n              pop\n              pop\n              0x01\n              swap1\n              sub\n              swap1\n              0x00\n              mstore\n              keccak256(0x00, 0x20)\n              add\n              0x00\n              swap1\n              swap2\n              swap3\n              swap1\n              swap2\n              swap3\n              swap1\n              swap2\n              swap3\n              swap1\n              swap2\n              swap3\n              pop\n              swap2\n              swap1\n              tag_49\n              swap3\n              swap2\n              swap1\n              tag_50\n              jump\t// in\n            tag_49:\n              pop\n                /* \"glassyVault.sol\":1863:1869  father */\n              dup5\n              dup5\n                /* \"glassyVault.sol\":1842:1869  newStu.fathersName = father */\n              dup1\n              dup1\n              0x1f\n              add\n              0x20\n              dup1\n              swap2\n              div\n              mul\n              0x20\n              add\n              mload(0x40)\n              swap1\n              dup2\n              add\n              0x40\n              mstore\n              dup1\n              swap4\n              swap3\n              swap2\n              swap1\n              dup2\n              dup2\n              mstore\n              0x20\n              add\n              dup4\n              dup4\n              dup1\n              dup3\n              dup5\n              calldatacopy\n              0x00\n              dup2\n              dup5\n              add\n              mstore\n              not(0x1f)\n              0x1f\n              dup3\n              add\n              and\n              swap1\n              pop\n              dup1\n              dup4\n              add\n              swap3\n              pop\n              pop\n              pop\n              pop\n              pop\n              pop\n              pop\n                /* \"glassyVault.sol\":1842:1848  newStu */\n              dup2\n                /* \"glassyVault.sol\":1842:1860  newStu.fathersName */\n              0x40\n              add\n                /* \"glassyVault.sol\":1842:1869  newStu.fathersName = father */\n              dup2\n              swap1\n              mstore\n              pop\n                /* \"glassyVault.sol\":1901:1907  mother */\n              dup3\n              dup3\n                /* \"glassyVault.sol\":1880:1907  newStu.mothersName = mother */\n              dup1\n              dup1\n              0x1f\n              add\n              0x20\n              dup1\n              swap2\n              div\n              mul\n              0x20\n              add\n              mload(0x40)\n              swap1\n              dup2\n              add\n              0x40\n              mstore\n              dup1\n              swap4\n              swap3\n              swap2\n              swap1\n              dup2\n              dup2\n              mstore\n              0x20\n              add\n              dup4\n              dup4\n              dup1\n              dup3\n              dup5\n              calldatacopy\n              0x00\n              dup2\n              dup5\n              add\n              mstore\n              not(0x1f)\n              0x1f\n              dup3\n              add\n              and\n              swap1\n              pop\n              dup1\n              dup4\n              add\n              swap3\n              pop\n              pop\n              pop\n              pop\n              pop\n              pop\n              pop\n                /* \"glassyVault.sol\":1880:1886  newStu */\n              dup2\n                /* \"glassyVault.sol\":1880:1898  newStu.mothersName */\n              0x60\n              add\n                /* \"glassyVault.sol\":1880:1907  newStu.mothersName = mother */\n              dup2\n              swap1\n              mstore\n              pop\n                /* \"glassyVault.sol\":1936:1942  newStu */\n              dup1\n                /* \"glassyVault.sol\":1918:1929  findStudent */\n              0x01\n                /* \"glassyVault.sol\":1930:1932  id */\n              dup9\n              dup9\n                /* \"glassyVault.sol\":1918:1933  findStudent[id] */\n              mload(0x40)\n              tag_51\n              swap3\n              swap2\n              swap1\n              tag_52\n              jump\t// in\n            tag_51:\n              swap1\n              dup2\n              mstore\n              0x20\n              add\n              mload(0x40)\n              dup1\n              swap2\n              sub\n              swap1\n              keccak256\n                /* \"glassyVault.sol\":1918:1942  findStudent[id] = newStu */\n              0x00\n              dup3\n              add\n              mload\n              dup2\n              0x00\n              add\n              swap1\n              dup1\n              mload\n              swap1\n              0x20\n              add\n              swap1\n              tag_53\n              swap3\n              swap2\n              swap1\n              tag_54\n              jump\t// in\n            tag_53:\n              pop\n              0x20\n              dup3\n              add\n              mload\n              dup2\n              0x01\n              add\n              swap1\n              dup1\n              mload\n              swap1\n              0x20\n              add\n              swap1\n              tag_55\n              swap3\n              swap2\n              swap1\n              tag_54\n              jump\t// in\n            tag_55:\n              pop\n              0x40\n              dup3\n              add\n              mload\n              dup2\n              0x02\n              add\n              swap1\n              dup1\n              mload\n              swap1\n              0x20\n              add\n              swap1\n              tag_56\n              swap3\n              swap2\n              swap1\n              tag_54\n              jump\t// in\n            tag_56:\n              pop\n              0x60\n              dup3\n              add\n              mload\n              dup2\n              0x03\n              add\n              swap1\n              dup1\n              mload\n              swap1\n              0x20\n              add\n              swap1\n              tag_57\n              swap3\n              swap2\n              swap1\n              tag_54\n              jump\t// in\n            tag_57:\n              pop\n              0x80\n              dup3\n              add\n              mload\n              dup2\n              0x04\n              add\n              0x00\n              dup3\n              add\n              mload\n              dup2\n              0x00\n              add\n              sstore\n              0x20\n              dup3\n              add\n              mload\n              dup2\n              0x01\n              add\n              sstore\n              0x40\n              dup3\n              add\n              mload\n              dup2\n              0x02\n              add\n              sstore\n              0x60\n              dup3\n              add\n              mload\n              dup2\n              0x03\n              add\n              sstore\n              0x80\n              dup3\n              add\n              mload\n              dup2\n              0x04\n              add\n              sstore\n              0xa0\n              dup3\n              add\n              mload\n              dup2\n              0x05\n              add\n              sstore\n              pop\n              pop\n              0xa0\n              dup3\n              add\n              mload\n              dup2\n              0x0a\n              add\n              0x00\n              dup3\n              add\n              mload\n              dup2\n              0x00\n              add\n              sstore\n              0x20\n              dup3\n              add\n              mload\n              dup2\n              0x01\n              add\n              sstore\n              0x40\n              dup3\n              add\n              mload\n              dup2\n              0x02\n              add\n              sstore\n              0x60\n              dup3\n              add\n              mload\n              dup2\n              0x03\n              add\n              sstore\n              0x80\n              dup3\n              add\n              mload\n              dup2\n              0x04\n              add\n              sstore\n              0xa0\n              dup3\n              add\n              mload\n              dup2\n              0x05\n              add\n              sstore\n              0xc0\n              dup3\n              add\n              mload\n              dup2\n              0x06\n              add\n              sstore\n              0xe0\n              dup3\n              add\n              mload\n              dup2\n              0x07\n              add\n              sstore\n              0x0100\n              dup3\n              add\n              mload\n              dup2\n              0x08\n              add\n              sstore\n              0x0120\n              dup3\n              add\n              mload\n              dup2\n              0x09\n              add\n              sstore\n              0x0140\n              dup3\n              add\n              mload\n              dup2\n              0x0a\n              add\n              sstore\n              0x0160\n              dup3\n              add\n              mload\n              dup2\n              0x0b\n              add\n              sstore\n              pop\n              pop\n              swap1\n              pop\n              pop\n                /* \"glassyVault.sol\":1715:1950  {... */\n              pop\n                /* \"glassyVault.sol\":1541:1950  function createStudent(... */\n              pop\n              pop\n              pop\n              pop\n              pop\n              pop\n              pop\n              pop\n              jump\t// out\n                /* \"glassyVault.sol\":1958:2402  function setTenthResult(string calldata id, Tenth memory record)... */\n            tag_18:\n                /* \"glassyVault.sol\":1428:1437  principal */\n              0x00\n              dup1\n              sload\n              swap1\n              0x0100\n              exp\n              swap1\n              div\n              0xffffffffffffffffffffffffffffffffffffffff\n              and\n                /* \"glassyVault.sol\":1414:1437  msg.sender == principal */\n              0xffffffffffffffffffffffffffffffffffffffff\n              and\n                /* \"glassyVault.sol\":1414:1424  msg.sender */\n              caller\n                /* \"glassyVault.sol\":1414:1437  msg.sender == principal */\n              0xffffffffffffffffffffffffffffffffffffffff\n              and\n              eq\n                /* \"glassyVault.sol\":1406:1438  require(msg.sender == principal) */\n              tag_59\n              jumpi\n              0x00\n              dup1\n              revert\n            tag_59:\n                /* \"glassyVault.sol\":2105:2111  record */\n              dup1\n                /* \"glassyVault.sol\":2105:2117  record.maths */\n              0x00\n              add\n              mload\n                /* \"glassyVault.sol\":2075:2086  findStudent */\n              0x01\n                /* \"glassyVault.sol\":2087:2089  id */\n              dup5\n              dup5\n                /* \"glassyVault.sol\":2075:2090  findStudent[id] */\n              mload(0x40)\n              tag_61\n              swap3\n              swap2\n              swap1\n              tag_52\n              jump\t// in\n            tag_61:\n              swap1\n              dup2\n              mstore\n              0x20\n              add\n              mload(0x40)\n              dup1\n              swap2\n              sub\n              swap1\n              keccak256\n                /* \"glassyVault.sol\":2075:2096  findStudent[id].first */\n              0x04\n              add\n                /* \"glassyVault.sol\":2075:2102  findStudent[id].first.maths */\n              0x00\n              add\n                /* \"glassyVault.sol\":2075:2117  findStudent[id].first.maths = record.maths */\n              dup2\n              swap1\n              sstore\n              pop\n                /* \"glassyVault.sol\":2160:2166  record */\n              dup1\n                /* \"glassyVault.sol\":2160:2174  record.english */\n              0x20\n              add\n              mload\n                /* \"glassyVault.sol\":2128:2139  findStudent */\n              0x01\n                /* \"glassyVault.sol\":2140:2142  id */\n              dup5\n              dup5\n                /* \"glassyVault.sol\":2128:2143  findStudent[id] */\n              mload(0x40)\n              tag_62\n              swap3\n              swap2\n              swap1\n              tag_52\n              jump\t// in\n            tag_62:\n              swap1\n              dup2\n              mstore\n              0x20\n              add\n              mload(0x40)\n              dup1\n              swap2\n              sub\n              swap1\n              keccak256\n                /* \"glassyVault.sol\":2128:2149  findStudent[id].first */\n              0x04\n              add\n                /* \"glassyVault.sol\":2128:2157  findStudent[id].first.english */\n              0x01\n              add\n                /* \"glassyVault.sol\":2128:2174  findStudent[id].first.english = record.english */\n              dup2\n              swap1\n              sstore\n              pop\n                /* \"glassyVault.sol\":2215:2221  record */\n              dup1\n                /* \"glassyVault.sol\":2215:2227  record.hindi */\n              0x40\n              add\n              mload\n                /* \"glassyVault.sol\":2185:2196  findStudent */\n              0x01\n                /* \"glassyVault.sol\":2197:2199  id */\n              dup5\n              dup5\n                /* \"glassyVault.sol\":2185:2200  findStudent[id] */\n              mload(0x40)\n              tag_63\n              swap3\n              swap2\n              swap1\n              tag_52\n              jump\t// in\n            tag_63:\n              swap1\n              dup2\n              mstore\n              0x20\n              add\n              mload(0x40)\n              dup1\n              swap2\n              sub\n              swap1\n              keccak256\n                /* \"glassyVault.sol\":2185:2206  findStudent[id].first */\n              0x04\n              add\n                /* \"glassyVault.sol\":2185:2212  findStudent[id].first.hindi */\n              0x02\n              add\n                /* \"glassyVault.sol\":2185:2227  findStudent[id].first.hindi = record.hindi */\n              dup2\n              swap1\n              sstore\n              pop\n                /* \"glassyVault.sol\":2270:2276  record */\n              dup1\n                /* \"glassyVault.sol\":2270:2284  record.science */\n              0x60\n              add\n              mload\n                /* \"glassyVault.sol\":2238:2249  findStudent */\n              0x01\n                /* \"glassyVault.sol\":2250:2252  id */\n              dup5\n              dup5\n                /* \"glassyVault.sol\":2238:2253  findStudent[id] */\n              mload(0x40)\n              tag_64\n              swap3\n              swap2\n              swap1\n              tag_52\n              jump\t// in\n            tag_64:\n              swap1\n              dup2\n              mstore\n              0x20\n              add\n              mload(0x40)\n              dup1\n              swap2\n              sub\n              swap1\n              keccak256\n                /* \"glassyVault.sol\":2238:2259  findStudent[id].first */\n              0x04\n              add\n                /* \"glassyVault.sol\":2238:2267  findStudent[id].first.science */\n              0x03\n              add\n                /* \"glassyVault.sol\":2238:2284  findStudent[id].first.science = record.science */\n              dup2\n              swap1\n              sstore\n              pop\n                /* \"glassyVault.sol\":2327:2333  record */\n              dup1\n                /* \"glassyVault.sol\":2327:2341  record.socials */\n              0x80\n              add\n              mload\n                /* \"glassyVault.sol\":2295:2306  findStudent */\n              0x01\n                /* \"glassyVault.sol\":2307:2309  id */\n              dup5\n              dup5\n                /* \"glassyVault.sol\":2295:2310  findStudent[id] */\n              mload(0x40)\n              tag_65\n              swap3\n              swap2\n              swap1\n              tag_52\n              jump\t// in\n            tag_65:\n              swap1\n              dup2\n              mstore\n              0x20\n              add\n              mload(0x40)\n              dup1\n              swap2\n              sub\n              swap1\n              keccak256\n                /* \"glassyVault.sol\":2295:2316  findStudent[id].first */\n              0x04\n              add\n                /* \"glassyVault.sol\":2295:2324  findStudent[id].first.socials */\n              0x04\n              add\n                /* \"glassyVault.sol\":2295:2341  findStudent[id].first.socials = record.socials */\n              dup2\n              swap1\n              sstore\n              pop\n                /* \"glassyVault.sol\":2382:2388  record */\n              dup1\n                /* \"glassyVault.sol\":2382:2394  record.total */\n              0xa0\n              add\n              mload\n                /* \"glassyVault.sol\":2352:2363  findStudent */\n              0x01\n                /* \"glassyVault.sol\":2364:2366  id */\n              dup5\n              dup5\n                /* \"glassyVault.sol\":2352:2367  findStudent[id] */\n              mload(0x40)\n              tag_66\n              swap3\n              swap2\n              swap1\n              tag_52\n              jump\t// in\n            tag_66:\n              swap1\n              dup2\n              mstore\n              0x20\n              add\n              mload(0x40)\n              dup1\n              swap2\n              sub\n              swap1\n              keccak256\n                /* \"glassyVault.sol\":2352:2373  findStudent[id].first */\n              0x04\n              add\n                /* \"glassyVault.sol\":2352:2379  findStudent[id].first.total */\n              0x05\n              add\n                /* \"glassyVault.sol\":2352:2394  findStudent[id].first.total = record.total */\n              dup2\n              swap1\n              sstore\n              pop\n                /* \"glassyVault.sol\":1958:2402  function setTenthResult(string calldata id, Tenth memory record)... */\n              pop\n              pop\n              pop\n              jump\t// out\n                /* \"glassyVault.sol\":527:553  string[] public studentIds */\n            tag_22:\n              0x02\n              dup2\n              dup2\n              sload\n              dup2\n              lt\n              tag_67\n              jumpi\n              0x00\n              dup1\n              revert\n            tag_67:\n              swap1\n              0x00\n              mstore\n              keccak256(0x00, 0x20)\n              add\n              0x00\n              swap2\n              pop\n              swap1\n              pop\n              dup1\n              sload\n              tag_69\n              swap1\n              tag_70\n              jump\t// in\n            tag_69:\n              dup1\n              0x1f\n              add\n              0x20\n              dup1\n              swap2\n              div\n              mul\n              0x20\n              add\n              mload(0x40)\n              swap1\n              dup2\n              add\n              0x40\n              mstore\n              dup1\n              swap3\n              swap2\n              swap1\n              dup2\n              dup2\n              mstore\n              0x20\n              add\n              dup3\n              dup1\n              sload\n              tag_71\n              swap1\n              tag_70\n              jump\t// in\n            tag_71:\n              dup1\n              iszero\n              tag_72\n              jumpi\n              dup1\n              0x1f\n              lt\n              tag_73\n              jumpi\n              0x0100\n              dup1\n              dup4\n              sload\n              div\n              mul\n              dup4\n              mstore\n              swap2\n              0x20\n              add\n              swap2\n              jump(tag_72)\n            tag_73:\n              dup3\n              add\n              swap2\n              swap1\n              0x00\n              mstore\n              keccak256(0x00, 0x20)\n              swap1\n            tag_74:\n              dup2\n              sload\n              dup2\n              mstore\n              swap1\n              0x01\n              add\n              swap1\n              0x20\n              add\n              dup1\n              dup4\n              gt\n              tag_74\n              jumpi\n              dup3\n              swap1\n              sub\n              0x1f\n              and\n              dup3\n              add\n              swap2\n            tag_72:\n              pop\n              pop\n              pop\n              pop\n              pop\n              dup2\n              jump\t// out\n                /* \"glassyVault.sol\":475:520  mapping(string => Student) public findStudent */\n            tag_28:\n              0x01\n              dup2\n              dup1\n              mload\n              0x20\n              dup2\n              add\n              dup3\n              add\n              dup1\n              mload\n              dup5\n              dup3\n              mstore\n              0x20\n              dup4\n              add\n              0x20\n              dup6\n              add\n              keccak256\n              dup2\n              dup4\n              mstore\n              dup1\n              swap6\n              pop\n              pop\n              pop\n              pop\n              pop\n              pop\n              0x00\n              swap2\n              pop\n              swap1\n              pop\n              dup1\n              0x00\n              add\n              dup1\n              sload\n              tag_75\n              swap1\n              tag_70\n              jump\t// in\n            tag_75:\n              dup1\n              0x1f\n              add\n              0x20\n              dup1\n              swap2\n              div\n              mul\n              0x20\n              add\n              mload(0x40)\n              swap1\n              dup2\n              add\n              0x40\n              mstore\n              dup1\n              swap3\n              swap2\n              swap1\n              dup2\n              dup2\n              mstore\n              0x20\n              add\n              dup3\n              dup1\n              sload\n              tag_76\n              swap1\n              tag_70\n              jump\t// in\n            tag_76:\n              dup1\n              iszero\n              tag_77\n              jumpi\n              dup1\n              0x1f\n              lt\n              tag_78\n              jumpi\n              0x0100\n              dup1\n              dup4\n              sload\n              div\n              mul\n              dup4\n              mstore\n              swap2\n              0x20\n              add\n              swap2\n              jump(tag_77)\n            tag_78:\n              dup3\n              add\n              swap2\n              swap1\n              0x00\n              mstore\n              keccak256(0x00, 0x20)\n              swap1\n            tag_79:\n              dup2\n              sload\n              dup2\n              mstore\n              swap1\n              0x01\n              add\n              swap1\n              0x20\n              add\n              dup1\n              dup4\n              gt\n              tag_79\n              jumpi\n              dup3\n              swap1\n              sub\n              0x1f\n              and\n              dup3\n              add\n              swap2\n            tag_77:\n              pop\n              pop\n              pop\n              pop\n              pop\n              swap1\n              dup1\n              0x01\n              add\n              dup1\n              sload\n              tag_80\n              swap1\n              tag_70\n              jump\t// in\n            tag_80:\n              dup1\n              0x1f\n              add\n              0x20\n              dup1\n              swap2\n              div\n              mul\n              0x20\n              add\n              mload(0x40)\n              swap1\n              dup2\n              add\n              0x40\n              mstore\n              dup1\n              swap3\n              swap2\n              swap1\n              dup2\n              dup2\n              mstore\n              0x20\n              add\n              dup3\n              dup1\n              sload\n              tag_81\n              swap1\n              tag_70\n              jump\t// in\n            tag_81:\n              dup1\n              iszero\n              tag_82\n              jumpi\n              dup1\n              0x1f\n              lt\n              tag_83\n              jumpi\n              0x0100\n              dup1\n              dup4\n              sload\n              div\n              mul\n              dup4\n              mstore\n              swap2\n              0x20\n              add\n              swap2\n              jump(tag_82)\n            tag_83:\n              dup3\n              add\n              swap2\n              swap1\n              0x00\n              mstore\n              keccak256(0x00, 0x20)\n              swap1\n            tag_84:\n              dup2\n              sload\n              dup2\n              mstore\n              swap1\n              0x01\n              add\n              swap1\n              0x20\n              add\n              dup1\n              dup4\n              gt\n              tag_84\n              jumpi\n              dup3\n              swap1\n              sub\n              0x1f\n              and\n              dup3\n              add\n              swap2\n            tag_82:\n              pop\n              pop\n              pop\n              pop\n              pop\n              swap1\n              dup1\n              0x02\n              add\n              dup1\n              sload\n              tag_85\n              swap1\n              tag_70\n              jump\t// in\n            tag_85:\n              dup1\n              0x1f\n              add\n              0x20\n              dup1\n              swap2\n              div\n              mul\n              0x20\n              add\n              mload(0x40)\n              swap1\n              dup2\n              add\n              0x40\n              mstore\n              dup1\n              swap3\n              swap2\n              swap1\n              dup2\n              dup2\n              mstore\n              0x20\n              add\n              dup3\n              dup1\n              sload\n              tag_86\n              swap1\n              tag_70\n              jump\t// in\n            tag_86:\n              dup1\n              iszero\n              tag_87\n              jumpi\n              dup1\n              0x1f\n              lt\n              tag_88\n              jumpi\n              0x0100\n              dup1\n              dup4\n              sload\n              div\n              mul\n              dup4\n              mstore\n              swap2\n              0x20\n              add\n              swap2\n              jump(tag_87)\n            tag_88:\n              dup3\n              add\n              swap2\n              swap1\n              0x00\n              mstore\n              keccak256(0x00, 0x20)\n              swap1\n            tag_89:\n              dup2\n              sload\n              dup2\n              mstore\n              swap1\n              0x01\n              add\n              swap1\n              0x20\n              add\n              dup1\n              dup4\n              gt\n              tag_89\n              jumpi\n              dup3\n              swap1\n              sub\n              0x1f\n              and\n              dup3\n              add\n              swap2\n            tag_87:\n              pop\n              pop\n              pop\n              pop\n              pop\n              swap1\n              dup1\n              0x03\n              add\n              dup1\n              sload\n              tag_90\n              swap1\n              tag_70\n              jump\t// in\n            tag_90:\n              dup1\n              0x1f\n              add\n              0x20\n              dup1\n              swap2\n              div\n              mul\n              0x20\n              add\n              mload(0x40)\n              swap1\n              dup2\n              add\n              0x40\n              mstore\n              dup1\n              swap3\n              swap2\n              swap1\n              dup2\n              dup2\n              mstore\n              0x20\n              add\n              dup3\n              dup1\n              sload\n              tag_91\n              swap1\n              tag_70\n              jump\t// in\n            tag_91:\n              dup1\n              iszero\n              tag_92\n              jumpi\n              dup1\n              0x1f\n              lt\n              tag_93\n              jumpi\n              0x0100\n              dup1\n              dup4\n              sload\n              div\n              mul\n              dup4\n              mstore\n              swap2\n              0x20\n              add\n              swap2\n              jump(tag_92)\n            tag_93:\n              dup3\n              add\n              swap2\n              swap1\n              0x00\n              mstore\n              keccak256(0x00, 0x20)\n              swap1\n            tag_94:\n              dup2\n              sload\n              dup2\n              mstore\n              swap1\n              0x01\n              add\n              swap1\n              0x20\n              add\n              dup1\n              dup4\n              gt\n              tag_94\n              jumpi\n              dup3\n              swap1\n              sub\n              0x1f\n              and\n              dup3\n              add\n              swap2\n            tag_92:\n              pop\n              pop\n              pop\n              pop\n              pop\n              swap1\n              dup1\n              0x04\n              add\n              mload(0x40)\n              dup1\n              0xc0\n              add\n              0x40\n              mstore\n              swap1\n              dup2\n              0x00\n              dup3\n              add\n              sload\n              dup2\n              mstore\n              0x20\n              add\n              0x01\n              dup3\n              add\n              sload\n              dup2\n              mstore\n              0x20\n              add\n              0x02\n              dup3\n              add\n              sload\n              dup2\n              mstore\n              0x20\n              add\n              0x03\n              dup3\n              add\n              sload\n              dup2\n              mstore\n              0x20\n              add\n              0x04\n              dup3\n              add\n              sload\n              dup2\n              mstore\n              0x20\n              add\n              0x05\n              dup3\n              add\n              sload\n              dup2\n              mstore\n              pop\n              pop\n              swap1\n              dup1\n              0x0a\n              add\n              mload(0x40)\n              dup1\n              0x0180\n              add\n              0x40\n              mstore\n              swap1\n              dup2\n              0x00\n              dup3\n              add\n              sload\n              dup2\n              mstore\n              0x20\n              add\n              0x01\n              dup3\n              add\n              sload\n              dup2\n              mstore\n              0x20\n              add\n              0x02\n              dup3\n              add\n              sload\n              dup2\n              mstore\n              0x20\n              add\n              0x03\n              dup3\n              add\n              sload\n              dup2\n              mstore\n              0x20\n              add\n              0x04\n              dup3\n              add\n              sload\n              dup2\n              mstore\n              0x20\n              add\n              0x05\n              dup3\n              add\n              sload\n              dup2\n              mstore\n              0x20\n              add\n              0x06\n              dup3\n              add\n              sload\n              dup2\n              mstore\n              0x20\n              add\n              0x07\n              dup3\n              add\n              sload\n              dup2\n              mstore\n              0x20\n              add\n              0x08\n              dup3\n              add\n              sload\n              dup2\n              mstore\n              0x20\n              add\n              0x09\n              dup3\n              add\n              sload\n              dup2\n              mstore\n              0x20\n              add\n              0x0a\n              dup3\n              add\n              sload\n              dup2\n              mstore\n              0x20\n              add\n              0x0b\n              dup3\n              add\n              sload\n              dup2\n              mstore\n              pop\n              pop\n              swap1\n              pop\n              dup7\n              jump\t// out\n                /* \"glassyVault.sol\":3296:3393  function getAllIds() public view returns (string[] memory) {... */\n            tag_32:\n                /* \"glassyVault.sol\":3338:3353  string[] memory */\n              0x60\n                /* \"glassyVault.sol\":3374:3384  studentIds */\n              0x02\n                /* \"glassyVault.sol\":3366:3385  return (studentIds) */\n              dup1\n              sload\n              dup1\n              0x20\n              mul\n              0x20\n              add\n              mload(0x40)\n              swap1\n              dup2\n              add\n              0x40\n              mstore\n              dup1\n              swap3\n              swap2\n              swap1\n              dup2\n              dup2\n              mstore\n              0x20\n              add\n              0x00\n              swap1\n            tag_96:\n              dup3\n              dup3\n              lt\n              iszero\n              tag_97\n              jumpi\n              dup4\n              dup3\n              swap1\n              0x00\n              mstore\n              keccak256(0x00, 0x20)\n              add\n              dup1\n              sload\n              tag_99\n              swap1\n              tag_70\n              jump\t// in\n            tag_99:\n              dup1\n              0x1f\n              add\n              0x20\n              dup1\n              swap2\n              div\n              mul\n              0x20\n              add\n              mload(0x40)\n              swap1\n              dup2\n              add\n              0x40\n              mstore\n              dup1\n              swap3\n              swap2\n              swap1\n              dup2\n              dup2\n              mstore\n              0x20\n              add\n              dup3\n              dup1\n              sload\n              tag_100\n              swap1\n              tag_70\n              jump\t// in\n            tag_100:\n              dup1\n              iszero\n              tag_101\n              jumpi\n              dup1\n              0x1f\n              lt\n              tag_102\n              jumpi\n              0x0100\n              dup1\n              dup4\n              sload\n              div\n              mul\n              dup4\n              mstore\n              swap2\n              0x20\n              add\n              swap2\n              jump(tag_101)\n            tag_102:\n              dup3\n              add\n              swap2\n              swap1\n              0x00\n              mstore\n              keccak256(0x00, 0x20)\n              swap1\n            tag_103:\n              dup2\n              sload\n              dup2\n              mstore\n              swap1\n              0x01\n              add\n              swap1\n              0x20\n              add\n              dup1\n              dup4\n              gt\n              tag_103\n              jumpi\n              dup3\n              swap1\n              sub\n              0x1f\n              and\n              dup3\n              add\n              swap2\n            tag_101:\n              pop\n              pop\n              pop\n              pop\n              pop\n              dup2\n              mstore\n              0x20\n              add\n              swap1\n              0x01\n              add\n              swap1\n              jump(tag_96)\n            tag_97:\n              pop\n              pop\n              pop\n              pop\n              swap1\n              pop\n                /* \"glassyVault.sol\":3296:3393  function getAllIds() public view returns (string[] memory) {... */\n              swap1\n              jump\t// out\n                /* \"glassyVault.sol\":401:425  address public principal */\n            tag_36:\n              0x00\n              dup1\n              sload\n              swap1\n              0x0100\n              exp\n              swap1\n              div\n              0xffffffffffffffffffffffffffffffffffffffff\n              and\n              dup2\n              jump\t// out\n                /* \"glassyVault.sol\":2410:3288  function setTwelthResult(string calldata id, Twelth memory record)... */\n            tag_42:\n                /* \"glassyVault.sol\":1428:1437  principal */\n              0x00\n              dup1\n              sload\n              swap1\n              0x0100\n              exp\n              swap1\n              div\n              0xffffffffffffffffffffffffffffffffffffffff\n              and\n                /* \"glassyVault.sol\":1414:1437  msg.sender == principal */\n              0xffffffffffffffffffffffffffffffffffffffff\n              and\n                /* \"glassyVault.sol\":1414:1424  msg.sender */\n              caller\n                /* \"glassyVault.sol\":1414:1437  msg.sender == principal */\n              0xffffffffffffffffffffffffffffffffffffffff\n              and\n              eq\n                /* \"glassyVault.sol\":1406:1438  require(msg.sender == principal) */\n              tag_105\n              jumpi\n              0x00\n              dup1\n              revert\n            tag_105:\n                /* \"glassyVault.sol\":2562:2568  record */\n              dup1\n                /* \"glassyVault.sol\":2562:2576  record.physics */\n              0x00\n              add\n              mload\n                /* \"glassyVault.sol\":2529:2540  findStudent */\n              0x01\n                /* \"glassyVault.sol\":2541:2543  id */\n              dup5\n              dup5\n                /* \"glassyVault.sol\":2529:2544  findStudent[id] */\n              mload(0x40)\n              tag_107\n              swap3\n              swap2\n              swap1\n              tag_52\n              jump\t// in\n            tag_107:\n              swap1\n              dup2\n              mstore\n              0x20\n              add\n              mload(0x40)\n              dup1\n              swap2\n              sub\n              swap1\n              keccak256\n                /* \"glassyVault.sol\":2529:2551  findStudent[id].second */\n              0x0a\n              add\n                /* \"glassyVault.sol\":2529:2559  findStudent[id].second.physics */\n              0x00\n              add\n                /* \"glassyVault.sol\":2529:2576  findStudent[id].second.physics = record.physics */\n              dup2\n              swap1\n              sstore\n              pop\n                /* \"glassyVault.sol\":2622:2628  record */\n              dup1\n                /* \"glassyVault.sol\":2622:2638  record.chemistry */\n              0x20\n              add\n              mload\n                /* \"glassyVault.sol\":2587:2598  findStudent */\n              0x01\n                /* \"glassyVault.sol\":2599:2601  id */\n              dup5\n              dup5\n                /* \"glassyVault.sol\":2587:2602  findStudent[id] */\n              mload(0x40)\n              tag_108\n              swap3\n              swap2\n              swap1\n              tag_52\n              jump\t// in\n            tag_108:\n              swap1\n              dup2\n              mstore\n              0x20\n              add\n              mload(0x40)\n              dup1\n              swap2\n              sub\n              swap1\n              keccak256\n                /* \"glassyVault.sol\":2587:2609  findStudent[id].second */\n              0x0a\n              add\n                /* \"glassyVault.sol\":2587:2619  findStudent[id].second.chemistry */\n              0x01\n              add\n                /* \"glassyVault.sol\":2587:2638  findStudent[id].second.chemistry = record.chemistry */\n              dup2\n              swap1\n              sstore\n              pop\n                /* \"glassyVault.sol\":2682:2688  record */\n              dup1\n                /* \"glassyVault.sol\":2682:2696  record.biology */\n              0x40\n              add\n              mload\n                /* \"glassyVault.sol\":2649:2660  findStudent */\n              0x01\n                /* \"glassyVault.sol\":2661:2663  id */\n              dup5\n              dup5\n                /* \"glassyVault.sol\":2649:2664  findStudent[id] */\n              mload(0x40)\n              tag_109\n              swap3\n              swap2\n              swap1\n              tag_52\n              jump\t// in\n            tag_109:\n              swap1\n              dup2\n              mstore\n              0x20\n              add\n              mload(0x40)\n              dup1\n              swap2\n              sub\n              swap1\n              keccak256\n                /* \"glassyVault.sol\":2649:2671  findStudent[id].second */\n              0x0a\n              add\n                /* \"glassyVault.sol\":2649:2679  findStudent[id].second.biology */\n              0x02\n              add\n                /* \"glassyVault.sol\":2649:2696  findStudent[id].second.biology = record.biology */\n              dup2\n              swap1\n              sstore\n              pop\n                /* \"glassyVault.sol\":2738:2744  record */\n              dup1\n                /* \"glassyVault.sol\":2738:2750  record.maths */\n              0x60\n              add\n              mload\n                /* \"glassyVault.sol\":2707:2718  findStudent */\n              0x01\n                /* \"glassyVault.sol\":2719:2721  id */\n              dup5\n              dup5\n                /* \"glassyVault.sol\":2707:2722  findStudent[id] */\n              mload(0x40)\n              tag_110\n              swap3\n              swap2\n              swap1\n              tag_52\n              jump\t// in\n            tag_110:\n              swap1\n              dup2\n              mstore\n              0x20\n              add\n              mload(0x40)\n              dup1\n              swap2\n              sub\n              swap1\n              keccak256\n                /* \"glassyVault.sol\":2707:2729  findStudent[id].second */\n              0x0a\n              add\n                /* \"glassyVault.sol\":2707:2735  findStudent[id].second.maths */\n              0x03\n              add\n                /* \"glassyVault.sol\":2707:2750  findStudent[id].second.maths = record.maths */\n              dup2\n              swap1\n              sstore\n              pop\n                /* \"glassyVault.sol\":2794:2800  record */\n              dup1\n                /* \"glassyVault.sol\":2794:2808  record.english */\n              0x80\n              add\n              mload\n                /* \"glassyVault.sol\":2761:2772  findStudent */\n              0x01\n                /* \"glassyVault.sol\":2773:2775  id */\n              dup5\n              dup5\n                /* \"glassyVault.sol\":2761:2776  findStudent[id] */\n              mload(0x40)\n              tag_111\n              swap3\n              swap2\n              swap1\n              tag_52\n              jump\t// in\n            tag_111:\n              swap1\n              dup2\n              mstore\n              0x20\n              add\n              mload(0x40)\n              dup1\n              swap2\n              sub\n              swap1\n              keccak256\n                /* \"glassyVault.sol\":2761:2783  findStudent[id].second */\n              0x0a\n              add\n                /* \"glassyVault.sol\":2761:2791  findStudent[id].second.english */\n              0x04\n              add\n                /* \"glassyVault.sol\":2761:2808  findStudent[id].second.english = record.english */\n              dup2\n              swap1\n              sstore\n              pop\n                /* \"glassyVault.sol\":2860:2866  record */\n              dup1\n                /* \"glassyVault.sol\":2860:2882  record.computerScience */\n              0xa0\n              add\n              mload\n                /* \"glassyVault.sol\":2819:2830  findStudent */\n              0x01\n                /* \"glassyVault.sol\":2831:2833  id */\n              dup5\n              dup5\n                /* \"glassyVault.sol\":2819:2834  findStudent[id] */\n              mload(0x40)\n              tag_112\n              swap3\n              swap2\n              swap1\n              tag_52\n              jump\t// in\n            tag_112:\n              swap1\n              dup2\n              mstore\n              0x20\n              add\n              mload(0x40)\n              dup1\n              swap2\n              sub\n              swap1\n              keccak256\n                /* \"glassyVault.sol\":2819:2841  findStudent[id].second */\n              0x0a\n              add\n                /* \"glassyVault.sol\":2819:2857  findStudent[id].second.computerScience */\n              0x05\n              add\n                /* \"glassyVault.sol\":2819:2882  findStudent[id].second.computerScience = record.computerScience */\n              dup2\n              swap1\n              sstore\n              pop\n                /* \"glassyVault.sol\":2926:2932  record */\n              dup1\n                /* \"glassyVault.sol\":2926:2940  record.history */\n              0xc0\n              add\n              mload\n                /* \"glassyVault.sol\":2893:2904  findStudent */\n              0x01\n                /* \"glassyVault.sol\":2905:2907  id */\n              dup5\n              dup5\n                /* \"glassyVault.sol\":2893:2908  findStudent[id] */\n              mload(0x40)\n              tag_113\n              swap3\n              swap2\n              swap1\n              tag_52\n              jump\t// in\n            tag_113:\n              swap1\n              dup2\n              mstore\n              0x20\n              add\n              mload(0x40)\n              dup1\n              swap2\n              sub\n              swap1\n              keccak256\n                /* \"glassyVault.sol\":2893:2915  findStudent[id].second */\n              0x0a\n              add\n                /* \"glassyVault.sol\":2893:2923  findStudent[id].second.history */\n              0x06\n              add\n                /* \"glassyVault.sol\":2893:2940  findStudent[id].second.history = record.history */\n              dup2\n              swap1\n              sstore\n              pop\n                /* \"glassyVault.sol\":2986:2992  record */\n              dup1\n                /* \"glassyVault.sol\":2986:3002  record.geography */\n              0xe0\n              add\n              mload\n                /* \"glassyVault.sol\":2951:2962  findStudent */\n              0x01\n                /* \"glassyVault.sol\":2963:2965  id */\n              dup5\n              dup5\n                /* \"glassyVault.sol\":2951:2966  findStudent[id] */\n              mload(0x40)\n              tag_114\n              swap3\n              swap2\n              swap1\n              tag_52\n              jump\t// in\n            tag_114:\n              swap1\n              dup2\n              mstore\n              0x20\n              add\n              mload(0x40)\n              dup1\n              swap2\n              sub\n              swap1\n              keccak256\n                /* \"glassyVault.sol\":2951:2973  findStudent[id].second */\n              0x0a\n              add\n                /* \"glassyVault.sol\":2951:2983  findStudent[id].second.geography */\n              0x07\n              add\n                /* \"glassyVault.sol\":2951:3002  findStudent[id].second.geography = record.geography */\n              dup2\n              swap1\n              sstore\n              pop\n                /* \"glassyVault.sol\":3055:3061  record */\n              dup1\n                /* \"glassyVault.sol\":3055:3078  record.politicalScience */\n              0x0100\n              add\n              mload\n                /* \"glassyVault.sol\":3013:3024  findStudent */\n              0x01\n                /* \"glassyVault.sol\":3025:3027  id */\n              dup5\n              dup5\n                /* \"glassyVault.sol\":3013:3028  findStudent[id] */\n              mload(0x40)\n              tag_115\n              swap3\n              swap2\n              swap1\n              tag_52\n              jump\t// in\n            tag_115:\n              swap1\n              dup2\n              mstore\n              0x20\n              add\n              mload(0x40)\n              dup1\n              swap2\n              sub\n              swap1\n              keccak256\n                /* \"glassyVault.sol\":3013:3035  findStudent[id].second */\n              0x0a\n              add\n                /* \"glassyVault.sol\":3013:3052  findStudent[id].second.politicalScience */\n              0x08\n              add\n                /* \"glassyVault.sol\":3013:3078  findStudent[id].second.politicalScience = record.politicalScience */\n              dup2\n              swap1\n              sstore\n              pop\n                /* \"glassyVault.sol\":3124:3130  record */\n              dup1\n                /* \"glassyVault.sol\":3124:3140  record.economics */\n              0x0120\n              add\n              mload\n                /* \"glassyVault.sol\":3089:3100  findStudent */\n              0x01\n                /* \"glassyVault.sol\":3101:3103  id */\n              dup5\n              dup5\n                /* \"glassyVault.sol\":3089:3104  findStudent[id] */\n              mload(0x40)\n              tag_116\n              swap3\n              swap2\n              swap1\n              tag_52\n              jump\t// in\n            tag_116:\n              swap1\n              dup2\n              mstore\n              0x20\n              add\n              mload(0x40)\n              dup1\n              swap2\n              sub\n              swap1\n              keccak256\n                /* \"glassyVault.sol\":3089:3111  findStudent[id].second */\n              0x0a\n              add\n                /* \"glassyVault.sol\":3089:3121  findStudent[id].second.economics */\n              0x09\n              add\n                /* \"glassyVault.sol\":3089:3140  findStudent[id].second.economics = record.economics */\n              dup2\n              swap1\n              sstore\n              pop\n                /* \"glassyVault.sol\":3192:3198  record */\n              dup1\n                /* \"glassyVault.sol\":3192:3214  record.businessStudies */\n              0x0140\n              add\n              mload\n                /* \"glassyVault.sol\":3151:3162  findStudent */\n              0x01\n                /* \"glassyVault.sol\":3163:3165  id */\n              dup5\n              dup5\n                /* \"glassyVault.sol\":3151:3166  findStudent[id] */\n              mload(0x40)\n              tag_117\n              swap3\n              swap2\n              swap1\n              tag_52\n              jump\t// in\n            tag_117:\n              swap1\n              dup2\n              mstore\n              0x20\n              add\n              mload(0x40)\n              dup1\n              swap2\n              sub\n              swap1\n              keccak256\n                /* \"glassyVault.sol\":3151:3173  findStudent[id].second */\n              0x0a\n              add\n                /* \"glassyVault.sol\":3151:3189  findStudent[id].second.businessStudies */\n              0x0a\n              add\n                /* \"glassyVault.sol\":3151:3214  findStudent[id].second.businessStudies = record.businessStudies */\n              dup2\n              swap1\n              sstore\n              pop\n                /* \"glassyVault.sol\":3262:3268  record */\n              dup1\n                /* \"glassyVault.sol\":3262:3280  record.physicaledu */\n              0x0160\n              add\n              mload\n                /* \"glassyVault.sol\":3225:3236  findStudent */\n              0x01\n                /* \"glassyVault.sol\":3237:3239  id */\n              dup5\n              dup5\n                /* \"glassyVault.sol\":3225:3240  findStudent[id] */\n              mload(0x40)\n              tag_118\n              swap3\n              swap2\n              swap1\n              tag_52\n              jump\t// in\n            tag_118:\n              swap1\n              dup2\n              mstore\n              0x20\n              add\n              mload(0x40)\n              dup1\n              swap2\n              sub\n              swap1\n              keccak256\n                /* \"glassyVault.sol\":3225:3247  findStudent[id].second */\n              0x0a\n              add\n                /* \"glassyVault.sol\":3225:3259  findStudent[id].second.physicaledu */\n              0x0b\n              add\n                /* \"glassyVault.sol\":3225:3280  findStudent[id].second.physicaledu = record.physicaledu */\n              dup2\n              swap1\n              sstore\n              pop\n                /* \"glassyVault.sol\":2410:3288  function setTwelthResult(string calldata id, Twelth memory record)... */\n              pop\n              pop\n              pop\n              jump\t// out\n            tag_47:\n              mload(0x40)\n              dup1\n              0xc0\n              add\n              0x40\n              mstore\n              dup1\n              0x60\n              dup2\n              mstore\n              0x20\n              add\n              0x60\n              dup2\n              mstore\n              0x20\n              add\n              0x60\n              dup2\n              mstore\n              0x20\n              add\n              0x60\n              dup2\n              mstore\n              0x20\n              add\n              tag_119\n              tag_120\n              jump\t// in\n            tag_119:\n              dup2\n              mstore\n              0x20\n              add\n              tag_121\n              tag_122\n              jump\t// in\n            tag_121:\n              dup2\n              mstore\n              pop\n              swap1\n              jump\t// out\n            tag_50:\n              dup3\n              dup1\n              sload\n              tag_123\n              swap1\n              tag_70\n              jump\t// in\n            tag_123:\n              swap1\n              0x00\n              mstore\n              keccak256(0x00, 0x20)\n              swap1\n              0x1f\n              add\n              0x20\n              swap1\n              div\n              dup2\n              add\n              swap3\n              dup3\n              tag_125\n              jumpi\n              0x00\n              dup6\n              sstore\n              jump(tag_124)\n            tag_125:\n              dup3\n              0x1f\n              lt\n              tag_126\n              jumpi\n              dup1\n              calldataload\n              not(0xff)\n              and\n              dup4\n              dup1\n              add\n              or\n              dup6\n              sstore\n              jump(tag_124)\n            tag_126:\n              dup3\n              dup1\n              add\n              0x01\n              add\n              dup6\n              sstore\n              dup3\n              iszero\n              tag_124\n              jumpi\n              swap2\n              dup3\n              add\n            tag_127:\n              dup3\n              dup2\n              gt\n              iszero\n              tag_128\n              jumpi\n              dup3\n              calldataload\n              dup3\n              sstore\n              swap2\n              0x20\n              add\n              swap2\n              swap1\n              0x01\n              add\n              swap1\n              jump(tag_127)\n            tag_128:\n            tag_124:\n              pop\n              swap1\n              pop\n              tag_129\n              swap2\n              swap1\n              tag_130\n              jump\t// in\n            tag_129:\n              pop\n              swap1\n              jump\t// out\n            tag_54:\n              dup3\n              dup1\n              sload\n              tag_131\n              swap1\n              tag_70\n              jump\t// in\n            tag_131:\n              swap1\n              0x00\n              mstore\n              keccak256(0x00, 0x20)\n              swap1\n              0x1f\n              add\n              0x20\n              swap1\n              div\n              dup2\n              add\n              swap3\n              dup3\n              tag_133\n              jumpi\n              0x00\n              dup6\n              sstore\n              jump(tag_132)\n            tag_133:\n              dup3\n              0x1f\n              lt\n              tag_134\n              jumpi\n              dup1\n              mload\n              not(0xff)\n              and\n              dup4\n              dup1\n              add\n              or\n              dup6\n              sstore\n              jump(tag_132)\n            tag_134:\n              dup3\n              dup1\n              add\n              0x01\n              add\n              dup6\n              sstore\n              dup3\n              iszero\n              tag_132\n              jumpi\n              swap2\n              dup3\n              add\n            tag_135:\n              dup3\n              dup2\n              gt\n              iszero\n              tag_136\n              jumpi\n              dup3\n              mload\n              dup3\n              sstore\n              swap2\n              0x20\n              add\n              swap2\n              swap1\n              0x01\n              add\n              swap1\n              jump(tag_135)\n            tag_136:\n            tag_132:\n              pop\n              swap1\n              pop\n              tag_137\n              swap2\n              swap1\n              tag_130\n              jump\t// in\n            tag_137:\n              pop\n              swap1\n              jump\t// out\n            tag_120:\n              mload(0x40)\n              dup1\n              0xc0\n              add\n              0x40\n              mstore\n              dup1\n              0x00\n              dup2\n              mstore\n              0x20\n              add\n              0x00\n              dup2\n              mstore\n              0x20\n              add\n              0x00\n              dup2\n              mstore\n              0x20\n              add\n              0x00\n              dup2\n              mstore\n              0x20\n              add\n              0x00\n              dup2\n              mstore\n              0x20\n              add\n              0x00\n              dup2\n              mstore\n              pop\n              swap1\n              jump\t// out\n            tag_122:\n              mload(0x40)\n              dup1\n              0x0180\n              add\n              0x40\n              mstore\n              dup1\n              0x00\n              dup2\n              mstore\n              0x20\n              add\n              0x00\n              dup2\n              mstore\n              0x20\n              add\n              0x00\n              dup2\n              mstore\n              0x20\n              add\n              0x00\n              dup2\n              mstore\n              0x20\n              add\n              0x00\n              dup2\n              mstore\n              0x20\n              add\n              0x00\n              dup2\n              mstore\n              0x20\n              add\n              0x00\n              dup2\n              mstore\n              0x20\n              add\n              0x00\n              dup2\n              mstore\n              0x20\n              add\n              0x00\n              dup2\n              mstore\n              0x20\n              add\n              0x00\n              dup2\n              mstore\n              0x20\n              add\n              0x00\n              dup2\n              mstore\n              0x20\n              add\n              0x00\n              dup2\n              mstore\n              pop\n              swap1\n              jump\t// out\n            tag_130:\n            tag_138:\n              dup1\n              dup3\n              gt\n              iszero\n              tag_139\n              jumpi\n              0x00\n              dup2\n              0x00\n              swap1\n              sstore\n              pop\n              0x01\n              add\n              jump(tag_138)\n            tag_139:\n              pop\n              swap1\n              jump\t// out\n                /* \"#utility.yul\":7:82   */\n            tag_140:\n                /* \"#utility.yul\":40:46   */\n              0x00\n                /* \"#utility.yul\":73:75   */\n              0x40\n                /* \"#utility.yul\":67:76   */\n              mload\n                /* \"#utility.yul\":57:76   */\n              swap1\n              pop\n                /* \"#utility.yul\":7:82   */\n              swap1\n              jump\t// out\n                /* \"#utility.yul\":88:205   */\n            tag_141:\n                /* \"#utility.yul\":197:198   */\n              0x00\n                /* \"#utility.yul\":194:195   */\n              dup1\n                /* \"#utility.yul\":187:199   */\n              revert\n                /* \"#utility.yul\":211:328   */\n            tag_142:\n                /* \"#utility.yul\":320:321   */\n              0x00\n                /* \"#utility.yul\":317:318   */\n              dup1\n                /* \"#utility.yul\":310:322   */\n              revert\n                /* \"#utility.yul\":334:451   */\n            tag_143:\n                /* \"#utility.yul\":443:444   */\n              0x00\n                /* \"#utility.yul\":440:441   */\n              dup1\n                /* \"#utility.yul\":433:445   */\n              revert\n                /* \"#utility.yul\":457:574   */\n            tag_144:\n                /* \"#utility.yul\":566:567   */\n              0x00\n                /* \"#utility.yul\":563:564   */\n              dup1\n                /* \"#utility.yul\":556:568   */\n              revert\n                /* \"#utility.yul\":580:697   */\n            tag_145:\n                /* \"#utility.yul\":689:690   */\n              0x00\n                /* \"#utility.yul\":686:687   */\n              dup1\n                /* \"#utility.yul\":679:691   */\n              revert\n                /* \"#utility.yul\":717:1270   */\n            tag_146:\n                /* \"#utility.yul\":775:783   */\n              0x00\n                /* \"#utility.yul\":785:791   */\n              dup1\n                /* \"#utility.yul\":835:838   */\n              dup4\n                /* \"#utility.yul\":828:832   */\n              0x1f\n                /* \"#utility.yul\":820:826   */\n              dup5\n                /* \"#utility.yul\":816:833   */\n              add\n                /* \"#utility.yul\":812:839   */\n              slt\n                /* \"#utility.yul\":802:924   */\n              tag_195\n              jumpi\n                /* \"#utility.yul\":843:922   */\n              tag_196\n              tag_143\n              jump\t// in\n            tag_196:\n                /* \"#utility.yul\":802:924   */\n            tag_195:\n                /* \"#utility.yul\":956:962   */\n              dup3\n                /* \"#utility.yul\":943:963   */\n              calldataload\n                /* \"#utility.yul\":933:963   */\n              swap1\n              pop\n                /* \"#utility.yul\":986:1004   */\n              0xffffffffffffffff\n                /* \"#utility.yul\":978:984   */\n              dup2\n                /* \"#utility.yul\":975:1005   */\n              gt\n                /* \"#utility.yul\":972:1089   */\n              iszero\n              tag_197\n              jumpi\n                /* \"#utility.yul\":1008:1087   */\n              tag_198\n              tag_144\n              jump\t// in\n            tag_198:\n                /* \"#utility.yul\":972:1089   */\n            tag_197:\n                /* \"#utility.yul\":1122:1126   */\n              0x20\n                /* \"#utility.yul\":1114:1120   */\n              dup4\n                /* \"#utility.yul\":1110:1127   */\n              add\n                /* \"#utility.yul\":1098:1127   */\n              swap2\n              pop\n                /* \"#utility.yul\":1176:1179   */\n              dup4\n                /* \"#utility.yul\":1168:1172   */\n              0x01\n                /* \"#utility.yul\":1160:1166   */\n              dup3\n                /* \"#utility.yul\":1156:1173   */\n              mul\n                /* \"#utility.yul\":1146:1154   */\n              dup4\n                /* \"#utility.yul\":1142:1174   */\n              add\n                /* \"#utility.yul\":1139:1180   */\n              gt\n                /* \"#utility.yul\":1136:1264   */\n              iszero\n              tag_199\n              jumpi\n                /* \"#utility.yul\":1183:1262   */\n              tag_200\n              tag_145\n              jump\t// in\n            tag_200:\n                /* \"#utility.yul\":1136:1264   */\n            tag_199:\n                /* \"#utility.yul\":717:1270   */\n              swap3\n              pop\n              swap3\n              swap1\n              pop\n              jump\t// out\n                /* \"#utility.yul\":1276:2841   */\n            tag_13:\n                /* \"#utility.yul\":1410:1416   */\n              0x00\n                /* \"#utility.yul\":1418:1424   */\n              dup1\n                /* \"#utility.yul\":1426:1432   */\n              0x00\n                /* \"#utility.yul\":1434:1440   */\n              dup1\n                /* \"#utility.yul\":1442:1448   */\n              0x00\n                /* \"#utility.yul\":1450:1456   */\n              dup1\n                /* \"#utility.yul\":1458:1464   */\n              0x00\n                /* \"#utility.yul\":1466:1472   */\n              dup1\n                /* \"#utility.yul\":1515:1518   */\n              0x80\n                /* \"#utility.yul\":1503:1512   */\n              dup10\n                /* \"#utility.yul\":1494:1501   */\n              dup12\n                /* \"#utility.yul\":1490:1513   */\n              sub\n                /* \"#utility.yul\":1486:1519   */\n              slt\n                /* \"#utility.yul\":1483:1603   */\n              iszero\n              tag_202\n              jumpi\n                /* \"#utility.yul\":1522:1601   */\n              tag_203\n              tag_141\n              jump\t// in\n            tag_203:\n                /* \"#utility.yul\":1483:1603   */\n            tag_202:\n                /* \"#utility.yul\":1670:1671   */\n              0x00\n                /* \"#utility.yul\":1659:1668   */\n              dup10\n                /* \"#utility.yul\":1655:1672   */\n              add\n                /* \"#utility.yul\":1642:1673   */\n              calldataload\n                /* \"#utility.yul\":1700:1718   */\n              0xffffffffffffffff\n                /* \"#utility.yul\":1692:1698   */\n              dup2\n                /* \"#utility.yul\":1689:1719   */\n              gt\n                /* \"#utility.yul\":1686:1803   */\n              iszero\n              tag_204\n              jumpi\n                /* \"#utility.yul\":1722:1801   */\n              tag_205\n              tag_142\n              jump\t// in\n            tag_205:\n                /* \"#utility.yul\":1686:1803   */\n            tag_204:\n                /* \"#utility.yul\":1835:1900   */\n              tag_206\n                /* \"#utility.yul\":1892:1899   */\n              dup12\n                /* \"#utility.yul\":1883:1889   */\n              dup3\n                /* \"#utility.yul\":1872:1881   */\n              dup13\n                /* \"#utility.yul\":1868:1890   */\n              add\n                /* \"#utility.yul\":1835:1900   */\n              tag_146\n              jump\t// in\n            tag_206:\n                /* \"#utility.yul\":1817:1900   */\n              swap9\n              pop\n              swap9\n              pop\n                /* \"#utility.yul\":1613:1910   */\n              pop\n                /* \"#utility.yul\":1977:1979   */\n              0x20\n                /* \"#utility.yul\":1966:1975   */\n              dup10\n                /* \"#utility.yul\":1962:1980   */\n              add\n                /* \"#utility.yul\":1949:1981   */\n              calldataload\n                /* \"#utility.yul\":2008:2026   */\n              0xffffffffffffffff\n                /* \"#utility.yul\":2000:2006   */\n              dup2\n                /* \"#utility.yul\":1997:2027   */\n              gt\n                /* \"#utility.yul\":1994:2111   */\n              iszero\n              tag_207\n              jumpi\n                /* \"#utility.yul\":2030:2109   */\n              tag_208\n              tag_142\n              jump\t// in\n            tag_208:\n                /* \"#utility.yul\":1994:2111   */\n            tag_207:\n                /* \"#utility.yul\":2143:2208   */\n              tag_209\n                /* \"#utility.yul\":2200:2207   */\n              dup12\n                /* \"#utility.yul\":2191:2197   */\n              dup3\n                /* \"#utility.yul\":2180:2189   */\n              dup13\n                /* \"#utility.yul\":2176:2198   */\n              add\n                /* \"#utility.yul\":2143:2208   */\n              tag_146\n              jump\t// in\n            tag_209:\n                /* \"#utility.yul\":2125:2208   */\n              swap7\n              pop\n              swap7\n              pop\n                /* \"#utility.yul\":1920:2218   */\n              pop\n                /* \"#utility.yul\":2285:2287   */\n              0x40\n                /* \"#utility.yul\":2274:2283   */\n              dup10\n                /* \"#utility.yul\":2270:2288   */\n              add\n                /* \"#utility.yul\":2257:2289   */\n              calldataload\n                /* \"#utility.yul\":2316:2334   */\n              0xffffffffffffffff\n                /* \"#utility.yul\":2308:2314   */\n              dup2\n                /* \"#utility.yul\":2305:2335   */\n              gt\n                /* \"#utility.yul\":2302:2419   */\n              iszero\n              tag_210\n              jumpi\n                /* \"#utility.yul\":2338:2417   */\n              tag_211\n              tag_142\n              jump\t// in\n            tag_211:\n                /* \"#utility.yul\":2302:2419   */\n            tag_210:\n                /* \"#utility.yul\":2451:2516   */\n              tag_212\n                /* \"#utility.yul\":2508:2515   */\n              dup12\n                /* \"#utility.yul\":2499:2505   */\n              dup3\n                /* \"#utility.yul\":2488:2497   */\n              dup13\n                /* \"#utility.yul\":2484:2506   */\n              add\n                /* \"#utility.yul\":2451:2516   */\n              tag_146\n              jump\t// in\n            tag_212:\n                /* \"#utility.yul\":2433:2516   */\n              swap5\n              pop\n              swap5\n              pop\n                /* \"#utility.yul\":2228:2526   */\n              pop\n                /* \"#utility.yul\":2593:2595   */\n              0x60\n                /* \"#utility.yul\":2582:2591   */\n              dup10\n                /* \"#utility.yul\":2578:2596   */\n              add\n                /* \"#utility.yul\":2565:2597   */\n              calldataload\n                /* \"#utility.yul\":2624:2642   */\n              0xffffffffffffffff\n                /* \"#utility.yul\":2616:2622   */\n              dup2\n                /* \"#utility.yul\":2613:2643   */\n              gt\n                /* \"#utility.yul\":2610:2727   */\n              iszero\n              tag_213\n              jumpi\n                /* \"#utility.yul\":2646:2725   */\n              tag_214\n              tag_142\n              jump\t// in\n            tag_214:\n                /* \"#utility.yul\":2610:2727   */\n            tag_213:\n                /* \"#utility.yul\":2759:2824   */\n              tag_215\n                /* \"#utility.yul\":2816:2823   */\n              dup12\n                /* \"#utility.yul\":2807:2813   */\n              dup3\n                /* \"#utility.yul\":2796:2805   */\n              dup13\n                /* \"#utility.yul\":2792:2814   */\n              add\n                /* \"#utility.yul\":2759:2824   */\n              tag_146\n              jump\t// in\n            tag_215:\n                /* \"#utility.yul\":2741:2824   */\n              swap3\n              pop\n              swap3\n              pop\n                /* \"#utility.yul\":2536:2834   */\n              pop\n                /* \"#utility.yul\":1276:2841   */\n              swap3\n              swap6\n              swap9\n              pop\n              swap3\n              swap6\n              swap9\n              swap1\n              swap4\n              swap7\n              pop\n              jump\t// out\n                /* \"#utility.yul\":2847:2964   */\n            tag_147:\n                /* \"#utility.yul\":2956:2957   */\n              0x00\n                /* \"#utility.yul\":2953:2954   */\n              dup1\n                /* \"#utility.yul\":2946:2958   */\n              revert\n                /* \"#utility.yul\":2970:3072   */\n            tag_148:\n                /* \"#utility.yul\":3011:3017   */\n              0x00\n                /* \"#utility.yul\":3062:3064   */\n              0x1f\n                /* \"#utility.yul\":3058:3065   */\n              not\n                /* \"#utility.yul\":3053:3055   */\n              0x1f\n                /* \"#utility.yul\":3046:3051   */\n              dup4\n                /* \"#utility.yul\":3042:3056   */\n              add\n                /* \"#utility.yul\":3038:3066   */\n              and\n                /* \"#utility.yul\":3028:3066   */\n              swap1\n              pop\n                /* \"#utility.yul\":2970:3072   */\n              swap2\n              swap1\n              pop\n              jump\t// out\n                /* \"#utility.yul\":3078:3258   */\n            tag_149:\n                /* \"#utility.yul\":3126:3203   */\n              0x4e487b7100000000000000000000000000000000000000000000000000000000\n                /* \"#utility.yul\":3123:3124   */\n              0x00\n                /* \"#utility.yul\":3116:3204   */\n              mstore\n                /* \"#utility.yul\":3223:3227   */\n              0x41\n                /* \"#utility.yul\":3220:3221   */\n              0x04\n                /* \"#utility.yul\":3213:3228   */\n              mstore\n                /* \"#utility.yul\":3247:3251   */\n              0x24\n                /* \"#utility.yul\":3244:3245   */\n              0x00\n                /* \"#utility.yul\":3237:3252   */\n              revert\n                /* \"#utility.yul\":3264:3545   */\n            tag_150:\n                /* \"#utility.yul\":3347:3374   */\n              tag_220\n                /* \"#utility.yul\":3369:3373   */\n              dup3\n                /* \"#utility.yul\":3347:3374   */\n              tag_148\n              jump\t// in\n            tag_220:\n                /* \"#utility.yul\":3339:3345   */\n              dup2\n                /* \"#utility.yul\":3335:3375   */\n              add\n                /* \"#utility.yul\":3477:3483   */\n              dup2\n                /* \"#utility.yul\":3465:3475   */\n              dup2\n                /* \"#utility.yul\":3462:3484   */\n              lt\n                /* \"#utility.yul\":3441:3459   */\n              0xffffffffffffffff\n                /* \"#utility.yul\":3429:3439   */\n              dup3\n                /* \"#utility.yul\":3426:3460   */\n              gt\n                /* \"#utility.yul\":3423:3485   */\n              or\n                /* \"#utility.yul\":3420:3508   */\n              iszero\n              tag_221\n              jumpi\n                /* \"#utility.yul\":3488:3506   */\n              tag_222\n              tag_149\n              jump\t// in\n            tag_222:\n                /* \"#utility.yul\":3420:3508   */\n            tag_221:\n                /* \"#utility.yul\":3528:3538   */\n              dup1\n                /* \"#utility.yul\":3524:3526   */\n              0x40\n                /* \"#utility.yul\":3517:3539   */\n              mstore\n                /* \"#utility.yul\":3307:3545   */\n              pop\n                /* \"#utility.yul\":3264:3545   */\n              pop\n              pop\n              jump\t// out\n                /* \"#utility.yul\":3551:3680   */\n            tag_151:\n                /* \"#utility.yul\":3585:3591   */\n              0x00\n                /* \"#utility.yul\":3612:3632   */\n              tag_224\n              tag_140\n              jump\t// in\n            tag_224:\n                /* \"#utility.yul\":3602:3632   */\n              swap1\n              pop\n                /* \"#utility.yul\":3641:3674   */\n              tag_225\n                /* \"#utility.yul\":3669:3673   */\n              dup3\n                /* \"#utility.yul\":3661:3667   */\n              dup3\n                /* \"#utility.yul\":3641:3674   */\n              tag_150\n              jump\t// in\n            tag_225:\n                /* \"#utility.yul\":3551:3680   */\n              swap2\n              swap1\n              pop\n              jump\t// out\n                /* \"#utility.yul\":3809:3885   */\n            tag_153:\n                /* \"#utility.yul\":3845:3852   */\n              0x00\n                /* \"#utility.yul\":3874:3879   */\n              dup2\n                /* \"#utility.yul\":3863:3879   */\n              swap1\n              pop\n                /* \"#utility.yul\":3809:3885   */\n              swap2\n              swap1\n              pop\n              jump\t// out\n                /* \"#utility.yul\":3891:4011   */\n            tag_154:\n                /* \"#utility.yul\":3963:3986   */\n              tag_229\n                /* \"#utility.yul\":3980:3985   */\n              dup2\n                /* \"#utility.yul\":3963:3986   */\n              tag_153\n              jump\t// in\n            tag_229:\n                /* \"#utility.yul\":3956:3961   */\n              dup2\n                /* \"#utility.yul\":3953:3987   */\n              eq\n                /* \"#utility.yul\":3943:4005   */\n              tag_230\n              jumpi\n                /* \"#utility.yul\":4001:4002   */\n              0x00\n                /* \"#utility.yul\":3998:3999   */\n              dup1\n                /* \"#utility.yul\":3991:4003   */\n              revert\n                /* \"#utility.yul\":3943:4005   */\n            tag_230:\n                /* \"#utility.yul\":3891:4011   */\n              pop\n              jump\t// out\n                /* \"#utility.yul\":4017:4154   */\n            tag_155:\n                /* \"#utility.yul\":4062:4067   */\n              0x00\n                /* \"#utility.yul\":4100:4106   */\n              dup2\n                /* \"#utility.yul\":4087:4107   */\n              calldataload\n                /* \"#utility.yul\":4078:4107   */\n              swap1\n              pop\n                /* \"#utility.yul\":4116:4148   */\n              tag_232\n                /* \"#utility.yul\":4142:4147   */\n              dup2\n                /* \"#utility.yul\":4116:4148   */\n              tag_154\n              jump\t// in\n            tag_232:\n                /* \"#utility.yul\":4017:4154   */\n              swap3\n              swap2\n              pop\n              pop\n              jump\t// out\n                /* \"#utility.yul\":4187:5409   */\n            tag_156:\n                /* \"#utility.yul\":4257:4262   */\n              0x00\n                /* \"#utility.yul\":4301:4305   */\n              0xc0\n                /* \"#utility.yul\":4289:4298   */\n              dup3\n                /* \"#utility.yul\":4284:4287   */\n              dup5\n                /* \"#utility.yul\":4280:4299   */\n              sub\n                /* \"#utility.yul\":4276:4306   */\n              slt\n                /* \"#utility.yul\":4273:4390   */\n              iszero\n              tag_234\n              jumpi\n                /* \"#utility.yul\":4309:4388   */\n              tag_235\n              tag_147\n              jump\t// in\n            tag_235:\n                /* \"#utility.yul\":4273:4390   */\n            tag_234:\n                /* \"#utility.yul\":4408:4429   */\n              tag_236\n                /* \"#utility.yul\":4424:4428   */\n              0xc0\n                /* \"#utility.yul\":4408:4429   */\n              tag_151\n              jump\t// in\n            tag_236:\n                /* \"#utility.yul\":4399:4429   */\n              swap1\n              pop\n                /* \"#utility.yul\":4489:4490   */\n              0x00\n                /* \"#utility.yul\":4529:4577   */\n              tag_237\n                /* \"#utility.yul\":4573:4576   */\n              dup5\n                /* \"#utility.yul\":4564:4570   */\n              dup3\n                /* \"#utility.yul\":4553:4562   */\n              dup6\n                /* \"#utility.yul\":4549:4571   */\n              add\n                /* \"#utility.yul\":4529:4577   */\n              tag_155\n              jump\t// in\n            tag_237:\n                /* \"#utility.yul\":4522:4526   */\n              0x00\n                /* \"#utility.yul\":4515:4520   */\n              dup4\n                /* \"#utility.yul\":4511:4527   */\n              add\n                /* \"#utility.yul\":4504:4578   */\n              mstore\n                /* \"#utility.yul\":4439:4589   */\n              pop\n                /* \"#utility.yul\":4651:4653   */\n              0x20\n                /* \"#utility.yul\":4692:4740   */\n              tag_238\n                /* \"#utility.yul\":4736:4739   */\n              dup5\n                /* \"#utility.yul\":4727:4733   */\n              dup3\n                /* \"#utility.yul\":4716:4725   */\n              dup6\n                /* \"#utility.yul\":4712:4734   */\n              add\n                /* \"#utility.yul\":4692:4740   */\n              tag_155\n              jump\t// in\n            tag_238:\n                /* \"#utility.yul\":4685:4689   */\n              0x20\n                /* \"#utility.yul\":4678:4683   */\n              dup4\n                /* \"#utility.yul\":4674:4690   */\n              add\n                /* \"#utility.yul\":4667:4741   */\n              mstore\n                /* \"#utility.yul\":4599:4752   */\n              pop\n                /* \"#utility.yul\":4812:4814   */\n              0x40\n                /* \"#utility.yul\":4853:4901   */\n              tag_239\n                /* \"#utility.yul\":4897:4900   */\n              dup5\n                /* \"#utility.yul\":4888:4894   */\n              dup3\n                /* \"#utility.yul\":4877:4886   */\n              dup6\n                /* \"#utility.yul\":4873:4895   */\n              add\n                /* \"#utility.yul\":4853:4901   */\n              tag_155\n              jump\t// in\n            tag_239:\n                /* \"#utility.yul\":4846:4850   */\n              0x40\n                /* \"#utility.yul\":4839:4844   */\n              dup4\n                /* \"#utility.yul\":4835:4851   */\n              add\n                /* \"#utility.yul\":4828:4902   */\n              mstore\n                /* \"#utility.yul\":4762:4913   */\n              pop\n                /* \"#utility.yul\":4975:4977   */\n              0x60\n                /* \"#utility.yul\":5016:5064   */\n              tag_240\n                /* \"#utility.yul\":5060:5063   */\n              dup5\n                /* \"#utility.yul\":5051:5057   */\n              dup3\n                /* \"#utility.yul\":5040:5049   */\n              dup6\n                /* \"#utility.yul\":5036:5058   */\n              add\n                /* \"#utility.yul\":5016:5064   */\n              tag_155\n              jump\t// in\n            tag_240:\n                /* \"#utility.yul\":5009:5013   */\n              0x60\n                /* \"#utility.yul\":5002:5007   */\n              dup4\n                /* \"#utility.yul\":4998:5014   */\n              add\n                /* \"#utility.yul\":4991:5065   */\n              mstore\n                /* \"#utility.yul\":4923:5076   */\n              pop\n                /* \"#utility.yul\":5138:5141   */\n              0x80\n                /* \"#utility.yul\":5180:5228   */\n              tag_241\n                /* \"#utility.yul\":5224:5227   */\n              dup5\n                /* \"#utility.yul\":5215:5221   */\n              dup3\n                /* \"#utility.yul\":5204:5213   */\n              dup6\n                /* \"#utility.yul\":5200:5222   */\n              add\n                /* \"#utility.yul\":5180:5228   */\n              tag_155\n              jump\t// in\n            tag_241:\n                /* \"#utility.yul\":5173:5177   */\n              0x80\n                /* \"#utility.yul\":5166:5171   */\n              dup4\n                /* \"#utility.yul\":5162:5178   */\n              add\n                /* \"#utility.yul\":5155:5229   */\n              mstore\n                /* \"#utility.yul\":5086:5240   */\n              pop\n                /* \"#utility.yul\":5300:5303   */\n              0xa0\n                /* \"#utility.yul\":5342:5390   */\n              tag_242\n                /* \"#utility.yul\":5386:5389   */\n              dup5\n                /* \"#utility.yul\":5377:5383   */\n              dup3\n                /* \"#utility.yul\":5366:5375   */\n              dup6\n                /* \"#utility.yul\":5362:5384   */\n              add\n                /* \"#utility.yul\":5342:5390   */\n              tag_155\n              jump\t// in\n            tag_242:\n                /* \"#utility.yul\":5335:5339   */\n              0xa0\n                /* \"#utility.yul\":5328:5333   */\n              dup4\n                /* \"#utility.yul\":5324:5340   */\n              add\n                /* \"#utility.yul\":5317:5391   */\n              mstore\n                /* \"#utility.yul\":5250:5402   */\n              pop\n                /* \"#utility.yul\":4187:5409   */\n              swap3\n              swap2\n              pop\n              pop\n              jump\t// out\n                /* \"#utility.yul\":5415:6132   */\n            tag_17:\n                /* \"#utility.yul\":5516:5522   */\n              0x00\n                /* \"#utility.yul\":5524:5530   */\n              dup1\n                /* \"#utility.yul\":5532:5538   */\n              0x00\n                /* \"#utility.yul\":5581:5584   */\n              0xe0\n                /* \"#utility.yul\":5569:5578   */\n              dup5\n                /* \"#utility.yul\":5560:5567   */\n              dup7\n                /* \"#utility.yul\":5556:5579   */\n              sub\n                /* \"#utility.yul\":5552:5585   */\n              slt\n                /* \"#utility.yul\":5549:5669   */\n              iszero\n              tag_244\n              jumpi\n                /* \"#utility.yul\":5588:5667   */\n              tag_245\n              tag_141\n              jump\t// in\n            tag_245:\n                /* \"#utility.yul\":5549:5669   */\n            tag_244:\n                /* \"#utility.yul\":5736:5737   */\n              0x00\n                /* \"#utility.yul\":5725:5734   */\n              dup5\n                /* \"#utility.yul\":5721:5738   */\n              add\n                /* \"#utility.yul\":5708:5739   */\n              calldataload\n                /* \"#utility.yul\":5766:5784   */\n              0xffffffffffffffff\n                /* \"#utility.yul\":5758:5764   */\n              dup2\n                /* \"#utility.yul\":5755:5785   */\n              gt\n                /* \"#utility.yul\":5752:5869   */\n              iszero\n              tag_246\n              jumpi\n                /* \"#utility.yul\":5788:5867   */\n              tag_247\n              tag_142\n              jump\t// in\n            tag_247:\n                /* \"#utility.yul\":5752:5869   */\n            tag_246:\n                /* \"#utility.yul\":5901:5966   */\n              tag_248\n                /* \"#utility.yul\":5958:5965   */\n              dup7\n                /* \"#utility.yul\":5949:5955   */\n              dup3\n                /* \"#utility.yul\":5938:5947   */\n              dup8\n                /* \"#utility.yul\":5934:5956   */\n              add\n                /* \"#utility.yul\":5901:5966   */\n              tag_146\n              jump\t// in\n            tag_248:\n                /* \"#utility.yul\":5883:5966   */\n              swap4\n              pop\n              swap4\n              pop\n                /* \"#utility.yul\":5679:5976   */\n              pop\n                /* \"#utility.yul\":6015:6017   */\n              0x20\n                /* \"#utility.yul\":6041:6115   */\n              tag_249\n                /* \"#utility.yul\":6107:6114   */\n              dup7\n                /* \"#utility.yul\":6098:6104   */\n              dup3\n                /* \"#utility.yul\":6087:6096   */\n              dup8\n                /* \"#utility.yul\":6083:6105   */\n              add\n                /* \"#utility.yul\":6041:6115   */\n              tag_156\n              jump\t// in\n            tag_249:\n                /* \"#utility.yul\":6031:6115   */\n              swap2\n              pop\n                /* \"#utility.yul\":5986:6125   */\n              pop\n                /* \"#utility.yul\":5415:6132   */\n              swap3\n              pop\n              swap3\n              pop\n              swap3\n              jump\t// out\n                /* \"#utility.yul\":6138:6215   */\n            tag_157:\n                /* \"#utility.yul\":6175:6182   */\n              0x00\n                /* \"#utility.yul\":6204:6209   */\n              dup2\n                /* \"#utility.yul\":6193:6209   */\n              swap1\n              pop\n                /* \"#utility.yul\":6138:6215   */\n              swap2\n              swap1\n              pop\n              jump\t// out\n                /* \"#utility.yul\":6221:6343   */\n            tag_158:\n                /* \"#utility.yul\":6294:6318   */\n              tag_252\n                /* \"#utility.yul\":6312:6317   */\n              dup2\n                /* \"#utility.yul\":6294:6318   */\n              tag_157\n              jump\t// in\n            tag_252:\n                /* \"#utility.yul\":6287:6292   */\n              dup2\n                /* \"#utility.yul\":6284:6319   */\n              eq\n                /* \"#utility.yul\":6274:6337   */\n              tag_253\n              jumpi\n                /* \"#utility.yul\":6333:6334   */\n              0x00\n                /* \"#utility.yul\":6330:6331   */\n              dup1\n                /* \"#utility.yul\":6323:6335   */\n              revert\n                /* \"#utility.yul\":6274:6337   */\n            tag_253:\n                /* \"#utility.yul\":6221:6343   */\n              pop\n              jump\t// out\n                /* \"#utility.yul\":6349:6488   */\n            tag_159:\n                /* \"#utility.yul\":6395:6400   */\n              0x00\n                /* \"#utility.yul\":6433:6439   */\n              dup2\n                /* \"#utility.yul\":6420:6440   */\n              calldataload\n                /* \"#utility.yul\":6411:6440   */\n              swap1\n              pop\n                /* \"#utility.yul\":6449:6482   */\n              tag_255\n                /* \"#utility.yul\":6476:6481   */\n              dup2\n                /* \"#utility.yul\":6449:6482   */\n              tag_158\n              jump\t// in\n            tag_255:\n                /* \"#utility.yul\":6349:6488   */\n              swap3\n              swap2\n              pop\n              pop\n              jump\t// out\n                /* \"#utility.yul\":6494:6823   */\n            tag_21:\n                /* \"#utility.yul\":6553:6559   */\n              0x00\n                /* \"#utility.yul\":6602:6604   */\n              0x20\n                /* \"#utility.yul\":6590:6599   */\n              dup3\n                /* \"#utility.yul\":6581:6588   */\n              dup5\n                /* \"#utility.yul\":6577:6600   */\n              sub\n                /* \"#utility.yul\":6573:6605   */\n              slt\n                /* \"#utility.yul\":6570:6689   */\n              iszero\n              tag_257\n              jumpi\n                /* \"#utility.yul\":6608:6687   */\n              tag_258\n              tag_141\n              jump\t// in\n            tag_258:\n                /* \"#utility.yul\":6570:6689   */\n            tag_257:\n                /* \"#utility.yul\":6728:6729   */\n              0x00\n                /* \"#utility.yul\":6753:6806   */\n              tag_259\n                /* \"#utility.yul\":6798:6805   */\n              dup5\n                /* \"#utility.yul\":6789:6795   */\n              dup3\n                /* \"#utility.yul\":6778:6787   */\n              dup6\n                /* \"#utility.yul\":6774:6796   */\n              add\n                /* \"#utility.yul\":6753:6806   */\n              tag_159\n              jump\t// in\n            tag_259:\n                /* \"#utility.yul\":6743:6806   */\n              swap2\n              pop\n                /* \"#utility.yul\":6699:6816   */\n              pop\n                /* \"#utility.yul\":6494:6823   */\n              swap3\n              swap2\n              pop\n              pop\n              jump\t// out\n                /* \"#utility.yul\":6829:6928   */\n            tag_160:\n                /* \"#utility.yul\":6881:6887   */\n              0x00\n                /* \"#utility.yul\":6915:6920   */\n              dup2\n                /* \"#utility.yul\":6909:6921   */\n              mload\n                /* \"#utility.yul\":6899:6921   */\n              swap1\n              pop\n                /* \"#utility.yul\":6829:6928   */\n              swap2\n              swap1\n              pop\n              jump\t// out\n                /* \"#utility.yul\":6934:7103   */\n            tag_161:\n                /* \"#utility.yul\":7018:7029   */\n              0x00\n                /* \"#utility.yul\":7052:7058   */\n              dup3\n                /* \"#utility.yul\":7047:7050   */\n              dup3\n                /* \"#utility.yul\":7040:7059   */\n              mstore\n                /* \"#utility.yul\":7092:7096   */\n              0x20\n                /* \"#utility.yul\":7087:7090   */\n              dup3\n                /* \"#utility.yul\":7083:7097   */\n              add\n                /* \"#utility.yul\":7068:7097   */\n              swap1\n              pop\n                /* \"#utility.yul\":6934:7103   */\n              swap3\n              swap2\n              pop\n              pop\n              jump\t// out\n                /* \"#utility.yul\":7109:7416   */\n            tag_162:\n                /* \"#utility.yul\":7177:7178   */\n              0x00\n                /* \"#utility.yul\":7187:7300   */\n            tag_263:\n                /* \"#utility.yul\":7201:7207   */\n              dup4\n                /* \"#utility.yul\":7198:7199   */\n              dup2\n                /* \"#utility.yul\":7195:7208   */\n              lt\n                /* \"#utility.yul\":7187:7300   */\n              iszero\n              tag_265\n              jumpi\n                /* \"#utility.yul\":7286:7287   */\n              dup1\n                /* \"#utility.yul\":7281:7284   */\n              dup3\n                /* \"#utility.yul\":7277:7288   */\n              add\n                /* \"#utility.yul\":7271:7289   */\n              mload\n                /* \"#utility.yul\":7267:7268   */\n              dup2\n                /* \"#utility.yul\":7262:7265   */\n              dup5\n                /* \"#utility.yul\":7258:7269   */\n              add\n                /* \"#utility.yul\":7251:7290   */\n              mstore\n                /* \"#utility.yul\":7223:7225   */\n              0x20\n                /* \"#utility.yul\":7220:7221   */\n              dup2\n                /* \"#utility.yul\":7216:7226   */\n              add\n                /* \"#utility.yul\":7211:7226   */\n              swap1\n              pop\n                /* \"#utility.yul\":7187:7300   */\n              jump(tag_263)\n            tag_265:\n                /* \"#utility.yul\":7318:7324   */\n              dup4\n                /* \"#utility.yul\":7315:7316   */\n              dup2\n                /* \"#utility.yul\":7312:7325   */\n              gt\n                /* \"#utility.yul\":7309:7410   */\n              iszero\n              tag_266\n              jumpi\n                /* \"#utility.yul\":7398:7399   */\n              0x00\n                /* \"#utility.yul\":7389:7395   */\n              dup5\n                /* \"#utility.yul\":7384:7387   */\n              dup5\n                /* \"#utility.yul\":7380:7396   */\n              add\n                /* \"#utility.yul\":7373:7400   */\n              mstore\n                /* \"#utility.yul\":7309:7410   */\n            tag_266:\n                /* \"#utility.yul\":7158:7416   */\n              pop\n                /* \"#utility.yul\":7109:7416   */\n              pop\n              pop\n              pop\n              jump\t// out\n                /* \"#utility.yul\":7422:7786   */\n            tag_163:\n                /* \"#utility.yul\":7510:7513   */\n              0x00\n                /* \"#utility.yul\":7538:7577   */\n              tag_268\n                /* \"#utility.yul\":7571:7576   */\n              dup3\n                /* \"#utility.yul\":7538:7577   */\n              tag_160\n              jump\t// in\n            tag_268:\n                /* \"#utility.yul\":7593:7664   */\n              tag_269\n                /* \"#utility.yul\":7657:7663   */\n              dup2\n                /* \"#utility.yul\":7652:7655   */\n              dup6\n                /* \"#utility.yul\":7593:7664   */\n              tag_161\n              jump\t// in\n            tag_269:\n                /* \"#utility.yul\":7586:7664   */\n              swap4\n              pop\n                /* \"#utility.yul\":7673:7725   */\n              tag_270\n                /* \"#utility.yul\":7718:7724   */\n              dup2\n                /* \"#utility.yul\":7713:7716   */\n              dup6\n                /* \"#utility.yul\":7706:7710   */\n              0x20\n                /* \"#utility.yul\":7699:7704   */\n              dup7\n                /* \"#utility.yul\":7695:7711   */\n              add\n                /* \"#utility.yul\":7673:7725   */\n              tag_162\n              jump\t// in\n            tag_270:\n                /* \"#utility.yul\":7750:7779   */\n              tag_271\n                /* \"#utility.yul\":7772:7778   */\n              dup2\n                /* \"#utility.yul\":7750:7779   */\n              tag_148\n              jump\t// in\n            tag_271:\n                /* \"#utility.yul\":7745:7748   */\n              dup5\n                /* \"#utility.yul\":7741:7780   */\n              add\n                /* \"#utility.yul\":7734:7780   */\n              swap2\n              pop\n                /* \"#utility.yul\":7514:7786   */\n              pop\n                /* \"#utility.yul\":7422:7786   */\n              swap3\n              swap2\n              pop\n              pop\n              jump\t// out\n                /* \"#utility.yul\":7792:8105   */\n            tag_24:\n                /* \"#utility.yul\":7905:7909   */\n              0x00\n                /* \"#utility.yul\":7943:7945   */\n              0x20\n                /* \"#utility.yul\":7932:7941   */\n              dup3\n                /* \"#utility.yul\":7928:7946   */\n              add\n                /* \"#utility.yul\":7920:7946   */\n              swap1\n              pop\n                /* \"#utility.yul\":7992:8001   */\n              dup2\n                /* \"#utility.yul\":7986:7990   */\n              dup2\n                /* \"#utility.yul\":7982:8002   */\n              sub\n                /* \"#utility.yul\":7978:7979   */\n              0x00\n                /* \"#utility.yul\":7967:7976   */\n              dup4\n                /* \"#utility.yul\":7963:7980   */\n              add\n                /* \"#utility.yul\":7956:8003   */\n              mstore\n                /* \"#utility.yul\":8020:8098   */\n              tag_273\n                /* \"#utility.yul\":8093:8097   */\n              dup2\n                /* \"#utility.yul\":8084:8090   */\n              dup5\n                /* \"#utility.yul\":8020:8098   */\n              tag_163\n              jump\t// in\n            tag_273:\n                /* \"#utility.yul\":8012:8098   */\n              swap1\n              pop\n                /* \"#utility.yul\":7792:8105   */\n              swap3\n              swap2\n              pop\n              pop\n              jump\t// out\n                /* \"#utility.yul\":8111:8228   */\n            tag_164:\n                /* \"#utility.yul\":8220:8221   */\n              0x00\n                /* \"#utility.yul\":8217:8218   */\n              dup1\n                /* \"#utility.yul\":8210:8222   */\n              revert\n                /* \"#utility.yul\":8234:8542   */\n            tag_165:\n                /* \"#utility.yul\":8296:8300   */\n              0x00\n                /* \"#utility.yul\":8386:8404   */\n              0xffffffffffffffff\n                /* \"#utility.yul\":8378:8384   */\n              dup3\n                /* \"#utility.yul\":8375:8405   */\n              gt\n                /* \"#utility.yul\":8372:8428   */\n              iszero\n              tag_276\n              jumpi\n                /* \"#utility.yul\":8408:8426   */\n              tag_277\n              tag_149\n              jump\t// in\n            tag_277:\n                /* \"#utility.yul\":8372:8428   */\n            tag_276:\n                /* \"#utility.yul\":8446:8475   */\n              tag_278\n                /* \"#utility.yul\":8468:8474   */\n              dup3\n                /* \"#utility.yul\":8446:8475   */\n              tag_148\n              jump\t// in\n            tag_278:\n                /* \"#utility.yul\":8438:8475   */\n              swap1\n              pop\n                /* \"#utility.yul\":8530:8534   */\n              0x20\n                /* \"#utility.yul\":8524:8528   */\n              dup2\n                /* \"#utility.yul\":8520:8535   */\n              add\n                /* \"#utility.yul\":8512:8535   */\n              swap1\n              pop\n                /* \"#utility.yul\":8234:8542   */\n              swap2\n              swap1\n              pop\n              jump\t// out\n                /* \"#utility.yul\":8548:8702   */\n            tag_166:\n                /* \"#utility.yul\":8632:8638   */\n              dup3\n                /* \"#utility.yul\":8627:8630   */\n              dup2\n                /* \"#utility.yul\":8622:8625   */\n              dup4\n                /* \"#utility.yul\":8609:8639   */\n              calldatacopy\n                /* \"#utility.yul\":8694:8695   */\n              0x00\n                /* \"#utility.yul\":8685:8691   */\n              dup4\n                /* \"#utility.yul\":8680:8683   */\n              dup4\n                /* \"#utility.yul\":8676:8692   */\n              add\n                /* \"#utility.yul\":8669:8696   */\n              mstore\n                /* \"#utility.yul\":8548:8702   */\n              pop\n              pop\n              pop\n              jump\t// out\n                /* \"#utility.yul\":8708:9120   */\n            tag_167:\n                /* \"#utility.yul\":8786:8791   */\n              0x00\n                /* \"#utility.yul\":8811:8877   */\n              tag_281\n                /* \"#utility.yul\":8827:8876   */\n              tag_282\n                /* \"#utility.yul\":8869:8875   */\n              dup5\n                /* \"#utility.yul\":8827:8876   */\n              tag_165\n              jump\t// in\n            tag_282:\n                /* \"#utility.yul\":8811:8877   */\n              tag_151\n              jump\t// in\n            tag_281:\n                /* \"#utility.yul\":8802:8877   */\n              swap1\n              pop\n                /* \"#utility.yul\":8900:8906   */\n              dup3\n                /* \"#utility.yul\":8893:8898   */\n              dup2\n                /* \"#utility.yul\":8886:8907   */\n              mstore\n                /* \"#utility.yul\":8938:8942   */\n              0x20\n                /* \"#utility.yul\":8931:8936   */\n              dup2\n                /* \"#utility.yul\":8927:8943   */\n              add\n                /* \"#utility.yul\":8976:8979   */\n              dup5\n                /* \"#utility.yul\":8967:8973   */\n              dup5\n                /* \"#utility.yul\":8962:8965   */\n              dup5\n                /* \"#utility.yul\":8958:8974   */\n              add\n                /* \"#utility.yul\":8955:8980   */\n              gt\n                /* \"#utility.yul\":8952:9064   */\n              iszero\n              tag_283\n              jumpi\n                /* \"#utility.yul\":8983:9062   */\n              tag_284\n              tag_164\n              jump\t// in\n            tag_284:\n                /* \"#utility.yul\":8952:9064   */\n            tag_283:\n                /* \"#utility.yul\":9073:9114   */\n              tag_285\n                /* \"#utility.yul\":9107:9113   */\n              dup5\n                /* \"#utility.yul\":9102:9105   */\n              dup3\n                /* \"#utility.yul\":9097:9100   */\n              dup6\n                /* \"#utility.yul\":9073:9114   */\n              tag_166\n              jump\t// in\n            tag_285:\n                /* \"#utility.yul\":8792:9120   */\n              pop\n                /* \"#utility.yul\":8708:9120   */\n              swap4\n              swap3\n              pop\n              pop\n              pop\n              jump\t// out\n                /* \"#utility.yul\":9140:9480   */\n            tag_168:\n                /* \"#utility.yul\":9196:9201   */\n              0x00\n                /* \"#utility.yul\":9245:9248   */\n              dup3\n                /* \"#utility.yul\":9238:9242   */\n              0x1f\n                /* \"#utility.yul\":9230:9236   */\n              dup4\n                /* \"#utility.yul\":9226:9243   */\n              add\n                /* \"#utility.yul\":9222:9249   */\n              slt\n                /* \"#utility.yul\":9212:9334   */\n              tag_287\n              jumpi\n                /* \"#utility.yul\":9253:9332   */\n              tag_288\n              tag_143\n              jump\t// in\n            tag_288:\n                /* \"#utility.yul\":9212:9334   */\n            tag_287:\n                /* \"#utility.yul\":9370:9376   */\n              dup2\n                /* \"#utility.yul\":9357:9377   */\n              calldataload\n                /* \"#utility.yul\":9395:9474   */\n              tag_289\n                /* \"#utility.yul\":9470:9473   */\n              dup5\n                /* \"#utility.yul\":9462:9468   */\n              dup3\n                /* \"#utility.yul\":9455:9459   */\n              0x20\n                /* \"#utility.yul\":9447:9453   */\n              dup7\n                /* \"#utility.yul\":9443:9460   */\n              add\n                /* \"#utility.yul\":9395:9474   */\n              tag_167\n              jump\t// in\n            tag_289:\n                /* \"#utility.yul\":9386:9474   */\n              swap2\n              pop\n                /* \"#utility.yul\":9202:9480   */\n              pop\n                /* \"#utility.yul\":9140:9480   */\n              swap3\n              swap2\n              pop\n              pop\n              jump\t// out\n                /* \"#utility.yul\":9486:9995   */\n            tag_27:\n                /* \"#utility.yul\":9555:9561   */\n              0x00\n                /* \"#utility.yul\":9604:9606   */\n              0x20\n                /* \"#utility.yul\":9592:9601   */\n              dup3\n                /* \"#utility.yul\":9583:9590   */\n              dup5\n                /* \"#utility.yul\":9579:9602   */\n              sub\n                /* \"#utility.yul\":9575:9607   */\n              slt\n                /* \"#utility.yul\":9572:9691   */\n              iszero\n              tag_291\n              jumpi\n                /* \"#utility.yul\":9610:9689   */\n              tag_292\n              tag_141\n              jump\t// in\n            tag_292:\n                /* \"#utility.yul\":9572:9691   */\n            tag_291:\n                /* \"#utility.yul\":9758:9759   */\n              0x00\n                /* \"#utility.yul\":9747:9756   */\n              dup3\n                /* \"#utility.yul\":9743:9760   */\n              add\n                /* \"#utility.yul\":9730:9761   */\n              calldataload\n                /* \"#utility.yul\":9788:9806   */\n              0xffffffffffffffff\n                /* \"#utility.yul\":9780:9786   */\n              dup2\n                /* \"#utility.yul\":9777:9807   */\n              gt\n                /* \"#utility.yul\":9774:9891   */\n              iszero\n              tag_293\n              jumpi\n                /* \"#utility.yul\":9810:9889   */\n              tag_294\n              tag_142\n              jump\t// in\n            tag_294:\n                /* \"#utility.yul\":9774:9891   */\n            tag_293:\n                /* \"#utility.yul\":9915:9978   */\n              tag_295\n                /* \"#utility.yul\":9970:9977   */\n              dup5\n                /* \"#utility.yul\":9961:9967   */\n              dup3\n                /* \"#utility.yul\":9950:9959   */\n              dup6\n                /* \"#utility.yul\":9946:9968   */\n              add\n                /* \"#utility.yul\":9915:9978   */\n              tag_168\n              jump\t// in\n            tag_295:\n                /* \"#utility.yul\":9905:9978   */\n              swap2\n              pop\n                /* \"#utility.yul\":9701:9988   */\n              pop\n                /* \"#utility.yul\":9486:9995   */\n              swap3\n              swap2\n              pop\n              pop\n              jump\t// out\n                /* \"#utility.yul\":10001:10106   */\n            tag_169:\n                /* \"#utility.yul\":10076:10099   */\n              tag_297\n                /* \"#utility.yul\":10093:10098   */\n              dup2\n                /* \"#utility.yul\":10076:10099   */\n              tag_153\n              jump\t// in\n            tag_297:\n                /* \"#utility.yul\":10071:10074   */\n              dup3\n                /* \"#utility.yul\":10064:10100   */\n              mstore\n                /* \"#utility.yul\":10001:10106   */\n              pop\n              pop\n              jump\t// out\n                /* \"#utility.yul\":10162:11357   */\n            tag_170:\n                /* \"#utility.yul\":10301:10305   */\n              0xc0\n                /* \"#utility.yul\":10296:10299   */\n              dup3\n                /* \"#utility.yul\":10292:10306   */\n              add\n                /* \"#utility.yul\":10389:10393   */\n              0x00\n                /* \"#utility.yul\":10382:10387   */\n              dup3\n                /* \"#utility.yul\":10378:10394   */\n              add\n                /* \"#utility.yul\":10372:10395   */\n              mload\n                /* \"#utility.yul\":10408:10469   */\n              tag_299\n                /* \"#utility.yul\":10463:10467   */\n              0x00\n                /* \"#utility.yul\":10458:10461   */\n              dup6\n                /* \"#utility.yul\":10454:10468   */\n              add\n                /* \"#utility.yul\":10440:10452   */\n              dup3\n                /* \"#utility.yul\":10408:10469   */\n              tag_169\n              jump\t// in\n            tag_299:\n                /* \"#utility.yul\":10316:10479   */\n              pop\n                /* \"#utility.yul\":10564:10568   */\n              0x20\n                /* \"#utility.yul\":10557:10562   */\n              dup3\n                /* \"#utility.yul\":10553:10569   */\n              add\n                /* \"#utility.yul\":10547:10570   */\n              mload\n                /* \"#utility.yul\":10583:10644   */\n              tag_300\n                /* \"#utility.yul\":10638:10642   */\n              0x20\n                /* \"#utility.yul\":10633:10636   */\n              dup6\n                /* \"#utility.yul\":10629:10643   */\n              add\n                /* \"#utility.yul\":10615:10627   */\n              dup3\n                /* \"#utility.yul\":10583:10644   */\n              tag_169\n              jump\t// in\n            tag_300:\n                /* \"#utility.yul\":10489:10654   */\n              pop\n                /* \"#utility.yul\":10737:10741   */\n              0x40\n                /* \"#utility.yul\":10730:10735   */\n              dup3\n                /* \"#utility.yul\":10726:10742   */\n              add\n                /* \"#utility.yul\":10720:10743   */\n              mload\n                /* \"#utility.yul\":10756:10817   */\n              tag_301\n                /* \"#utility.yul\":10811:10815   */\n              0x40\n                /* \"#utility.yul\":10806:10809   */\n              dup6\n                /* \"#utility.yul\":10802:10816   */\n              add\n                /* \"#utility.yul\":10788:10800   */\n              dup3\n                /* \"#utility.yul\":10756:10817   */\n              tag_169\n              jump\t// in\n            tag_301:\n                /* \"#utility.yul\":10664:10827   */\n              pop\n                /* \"#utility.yul\":10912:10916   */\n              0x60\n                /* \"#utility.yul\":10905:10910   */\n              dup3\n                /* \"#utility.yul\":10901:10917   */\n              add\n                /* \"#utility.yul\":10895:10918   */\n              mload\n                /* \"#utility.yul\":10931:10992   */\n              tag_302\n                /* \"#utility.yul\":10986:10990   */\n              0x60\n                /* \"#utility.yul\":10981:10984   */\n              dup6\n                /* \"#utility.yul\":10977:10991   */\n              add\n                /* \"#utility.yul\":10963:10975   */\n              dup3\n                /* \"#utility.yul\":10931:10992   */\n              tag_169\n              jump\t// in\n            tag_302:\n                /* \"#utility.yul\":10837:11002   */\n              pop\n                /* \"#utility.yul\":11087:11091   */\n              0x80\n                /* \"#utility.yul\":11080:11085   */\n              dup3\n                /* \"#utility.yul\":11076:11092   */\n              add\n                /* \"#utility.yul\":11070:11093   */\n              mload\n                /* \"#utility.yul\":11106:11167   */\n              tag_303\n                /* \"#utility.yul\":11161:11165   */\n              0x80\n                /* \"#utility.yul\":11156:11159   */\n              dup6\n                /* \"#utility.yul\":11152:11166   */\n              add\n                /* \"#utility.yul\":11138:11150   */\n              dup3\n                /* \"#utility.yul\":11106:11167   */\n              tag_169\n              jump\t// in\n            tag_303:\n                /* \"#utility.yul\":11012:11177   */\n              pop\n                /* \"#utility.yul\":11260:11264   */\n              0xa0\n                /* \"#utility.yul\":11253:11258   */\n              dup3\n                /* \"#utility.yul\":11249:11265   */\n              add\n                /* \"#utility.yul\":11243:11266   */\n              mload\n                /* \"#utility.yul\":11279:11340   */\n              tag_304\n                /* \"#utility.yul\":11334:11338   */\n              0xa0\n                /* \"#utility.yul\":11329:11332   */\n              dup6\n                /* \"#utility.yul\":11325:11339   */\n              add\n                /* \"#utility.yul\":11311:11323   */\n              dup3\n                /* \"#utility.yul\":11279:11340   */\n              tag_169\n              jump\t// in\n            tag_304:\n                /* \"#utility.yul\":11187:11350   */\n              pop\n                /* \"#utility.yul\":10270:11357   */\n              pop\n                /* \"#utility.yul\":10162:11357   */\n              pop\n              pop\n              jump\t// out\n                /* \"#utility.yul\":11415:13719   */\n            tag_171:\n                /* \"#utility.yul\":11556:11562   */\n              0x0180\n                /* \"#utility.yul\":11551:11554   */\n              dup3\n                /* \"#utility.yul\":11547:11563   */\n              add\n                /* \"#utility.yul\":11648:11652   */\n              0x00\n                /* \"#utility.yul\":11641:11646   */\n              dup3\n                /* \"#utility.yul\":11637:11653   */\n              add\n                /* \"#utility.yul\":11631:11654   */\n              mload\n                /* \"#utility.yul\":11667:11728   */\n              tag_306\n                /* \"#utility.yul\":11722:11726   */\n              0x00\n                /* \"#utility.yul\":11717:11720   */\n              dup6\n                /* \"#utility.yul\":11713:11727   */\n              add\n                /* \"#utility.yul\":11699:11711   */\n              dup3\n                /* \"#utility.yul\":11667:11728   */\n              tag_169\n              jump\t// in\n            tag_306:\n                /* \"#utility.yul\":11573:11738   */\n              pop\n                /* \"#utility.yul\":11825:11829   */\n              0x20\n                /* \"#utility.yul\":11818:11823   */\n              dup3\n                /* \"#utility.yul\":11814:11830   */\n              add\n                /* \"#utility.yul\":11808:11831   */\n              mload\n                /* \"#utility.yul\":11844:11905   */\n              tag_307\n                /* \"#utility.yul\":11899:11903   */\n              0x20\n                /* \"#utility.yul\":11894:11897   */\n              dup6\n                /* \"#utility.yul\":11890:11904   */\n              add\n                /* \"#utility.yul\":11876:11888   */\n              dup3\n                /* \"#utility.yul\":11844:11905   */\n              tag_169\n              jump\t// in\n            tag_307:\n                /* \"#utility.yul\":11748:11915   */\n              pop\n                /* \"#utility.yul\":12000:12004   */\n              0x40\n                /* \"#utility.yul\":11993:11998   */\n              dup3\n                /* \"#utility.yul\":11989:12005   */\n              add\n                /* \"#utility.yul\":11983:12006   */\n              mload\n                /* \"#utility.yul\":12019:12080   */\n              tag_308\n                /* \"#utility.yul\":12074:12078   */\n              0x40\n                /* \"#utility.yul\":12069:12072   */\n              dup6\n                /* \"#utility.yul\":12065:12079   */\n              add\n                /* \"#utility.yul\":12051:12063   */\n              dup3\n                /* \"#utility.yul\":12019:12080   */\n              tag_169\n              jump\t// in\n            tag_308:\n                /* \"#utility.yul\":11925:12090   */\n              pop\n                /* \"#utility.yul\":12173:12177   */\n              0x60\n                /* \"#utility.yul\":12166:12171   */\n              dup3\n                /* \"#utility.yul\":12162:12178   */\n              add\n                /* \"#utility.yul\":12156:12179   */\n              mload\n                /* \"#utility.yul\":12192:12253   */\n              tag_309\n                /* \"#utility.yul\":12247:12251   */\n              0x60\n                /* \"#utility.yul\":12242:12245   */\n              dup6\n                /* \"#utility.yul\":12238:12252   */\n              add\n                /* \"#utility.yul\":12224:12236   */\n              dup3\n                /* \"#utility.yul\":12192:12253   */\n              tag_169\n              jump\t// in\n            tag_309:\n                /* \"#utility.yul\":12100:12263   */\n              pop\n                /* \"#utility.yul\":12348:12352   */\n              0x80\n                /* \"#utility.yul\":12341:12346   */\n              dup3\n                /* \"#utility.yul\":12337:12353   */\n              add\n                /* \"#utility.yul\":12331:12354   */\n              mload\n                /* \"#utility.yul\":12367:12428   */\n              tag_310\n                /* \"#utility.yul\":12422:12426   */\n              0x80\n                /* \"#utility.yul\":12417:12420   */\n              dup6\n                /* \"#utility.yul\":12413:12427   */\n              add\n                /* \"#utility.yul\":12399:12411   */\n              dup3\n                /* \"#utility.yul\":12367:12428   */\n              tag_169\n              jump\t// in\n            tag_310:\n                /* \"#utility.yul\":12273:12438   */\n              pop\n                /* \"#utility.yul\":12531:12535   */\n              0xa0\n                /* \"#utility.yul\":12524:12529   */\n              dup3\n                /* \"#utility.yul\":12520:12536   */\n              add\n                /* \"#utility.yul\":12514:12537   */\n              mload\n                /* \"#utility.yul\":12550:12611   */\n              tag_311\n                /* \"#utility.yul\":12605:12609   */\n              0xa0\n                /* \"#utility.yul\":12600:12603   */\n              dup6\n                /* \"#utility.yul\":12596:12610   */\n              add\n                /* \"#utility.yul\":12582:12594   */\n              dup3\n                /* \"#utility.yul\":12550:12611   */\n              tag_169\n              jump\t// in\n            tag_311:\n                /* \"#utility.yul\":12448:12621   */\n              pop\n                /* \"#utility.yul\":12706:12710   */\n              0xc0\n                /* \"#utility.yul\":12699:12704   */\n              dup3\n                /* \"#utility.yul\":12695:12711   */\n              add\n                /* \"#utility.yul\":12689:12712   */\n              mload\n                /* \"#utility.yul\":12725:12786   */\n              tag_312\n                /* \"#utility.yul\":12780:12784   */\n              0xc0\n                /* \"#utility.yul\":12775:12778   */\n              dup6\n                /* \"#utility.yul\":12771:12785   */\n              add\n                /* \"#utility.yul\":12757:12769   */\n              dup3\n                /* \"#utility.yul\":12725:12786   */\n              tag_169\n              jump\t// in\n            tag_312:\n                /* \"#utility.yul\":12631:12796   */\n              pop\n                /* \"#utility.yul\":12883:12887   */\n              0xe0\n                /* \"#utility.yul\":12876:12881   */\n              dup3\n                /* \"#utility.yul\":12872:12888   */\n              add\n                /* \"#utility.yul\":12866:12889   */\n              mload\n                /* \"#utility.yul\":12902:12963   */\n              tag_313\n                /* \"#utility.yul\":12957:12961   */\n              0xe0\n                /* \"#utility.yul\":12952:12955   */\n              dup6\n                /* \"#utility.yul\":12948:12962   */\n              add\n                /* \"#utility.yul\":12934:12946   */\n              dup3\n                /* \"#utility.yul\":12902:12963   */\n              tag_169\n              jump\t// in\n            tag_313:\n                /* \"#utility.yul\":12806:12973   */\n              pop\n                /* \"#utility.yul\":13067:13073   */\n              0x0100\n                /* \"#utility.yul\":13060:13065   */\n              dup3\n                /* \"#utility.yul\":13056:13074   */\n              add\n                /* \"#utility.yul\":13050:13075   */\n              mload\n                /* \"#utility.yul\":13088:13151   */\n              tag_314\n                /* \"#utility.yul\":13143:13149   */\n              0x0100\n                /* \"#utility.yul\":13138:13141   */\n              dup6\n                /* \"#utility.yul\":13134:13150   */\n              add\n                /* \"#utility.yul\":13120:13132   */\n              dup3\n                /* \"#utility.yul\":13088:13151   */\n              tag_169\n              jump\t// in\n            tag_314:\n                /* \"#utility.yul\":12983:13161   */\n              pop\n                /* \"#utility.yul\":13248:13254   */\n              0x0120\n                /* \"#utility.yul\":13241:13246   */\n              dup3\n                /* \"#utility.yul\":13237:13255   */\n              add\n                /* \"#utility.yul\":13231:13256   */\n              mload\n                /* \"#utility.yul\":13269:13332   */\n              tag_315\n                /* \"#utility.yul\":13324:13330   */\n              0x0120\n                /* \"#utility.yul\":13319:13322   */\n              dup6\n                /* \"#utility.yul\":13315:13331   */\n              add\n                /* \"#utility.yul\":13301:13313   */\n              dup3\n                /* \"#utility.yul\":13269:13332   */\n              tag_169\n              jump\t// in\n            tag_315:\n                /* \"#utility.yul\":13171:13342   */\n              pop\n                /* \"#utility.yul\":13435:13441   */\n              0x0140\n                /* \"#utility.yul\":13428:13433   */\n              dup3\n                /* \"#utility.yul\":13424:13442   */\n              add\n                /* \"#utility.yul\":13418:13443   */\n              mload\n                /* \"#utility.yul\":13456:13519   */\n              tag_316\n                /* \"#utility.yul\":13511:13517   */\n              0x0140\n                /* \"#utility.yul\":13506:13509   */\n              dup6\n                /* \"#utility.yul\":13502:13518   */\n              add\n                /* \"#utility.yul\":13488:13500   */\n              dup3\n                /* \"#utility.yul\":13456:13519   */\n              tag_169\n              jump\t// in\n            tag_316:\n                /* \"#utility.yul\":13352:13529   */\n              pop\n                /* \"#utility.yul\":13618:13624   */\n              0x0160\n                /* \"#utility.yul\":13611:13616   */\n              dup3\n                /* \"#utility.yul\":13607:13625   */\n              add\n                /* \"#utility.yul\":13601:13626   */\n              mload\n                /* \"#utility.yul\":13639:13702   */\n              tag_317\n                /* \"#utility.yul\":13694:13700   */\n              0x0160\n                /* \"#utility.yul\":13689:13692   */\n              dup6\n                /* \"#utility.yul\":13685:13701   */\n              add\n                /* \"#utility.yul\":13671:13683   */\n              dup3\n                /* \"#utility.yul\":13639:13702   */\n              tag_169\n              jump\t// in\n            tag_317:\n                /* \"#utility.yul\":13539:13712   */\n              pop\n                /* \"#utility.yul\":11525:13719   */\n              pop\n                /* \"#utility.yul\":11415:13719   */\n              pop\n              pop\n              jump\t// out\n                /* \"#utility.yul\":13725:15036   */\n            tag_30:\n                /* \"#utility.yul\":14124:14128   */\n              0x00\n                /* \"#utility.yul\":14162:14165   */\n              0x02c0\n                /* \"#utility.yul\":14151:14160   */\n              dup3\n                /* \"#utility.yul\":14147:14166   */\n              add\n                /* \"#utility.yul\":14139:14166   */\n              swap1\n              pop\n                /* \"#utility.yul\":14212:14221   */\n              dup2\n                /* \"#utility.yul\":14206:14210   */\n              dup2\n                /* \"#utility.yul\":14202:14222   */\n              sub\n                /* \"#utility.yul\":14198:14199   */\n              0x00\n                /* \"#utility.yul\":14187:14196   */\n              dup4\n                /* \"#utility.yul\":14183:14200   */\n              add\n                /* \"#utility.yul\":14176:14223   */\n              mstore\n                /* \"#utility.yul\":14240:14318   */\n              tag_319\n                /* \"#utility.yul\":14313:14317   */\n              dup2\n                /* \"#utility.yul\":14304:14310   */\n              dup10\n                /* \"#utility.yul\":14240:14318   */\n              tag_163\n              jump\t// in\n            tag_319:\n                /* \"#utility.yul\":14232:14318   */\n              swap1\n              pop\n                /* \"#utility.yul\":14365:14374   */\n              dup2\n                /* \"#utility.yul\":14359:14363   */\n              dup2\n                /* \"#utility.yul\":14355:14375   */\n              sub\n                /* \"#utility.yul\":14350:14352   */\n              0x20\n                /* \"#utility.yul\":14339:14348   */\n              dup4\n                /* \"#utility.yul\":14335:14353   */\n              add\n                /* \"#utility.yul\":14328:14376   */\n              mstore\n                /* \"#utility.yul\":14393:14471   */\n              tag_320\n                /* \"#utility.yul\":14466:14470   */\n              dup2\n                /* \"#utility.yul\":14457:14463   */\n              dup9\n                /* \"#utility.yul\":14393:14471   */\n              tag_163\n              jump\t// in\n            tag_320:\n                /* \"#utility.yul\":14385:14471   */\n              swap1\n              pop\n                /* \"#utility.yul\":14518:14527   */\n              dup2\n                /* \"#utility.yul\":14512:14516   */\n              dup2\n                /* \"#utility.yul\":14508:14528   */\n              sub\n                /* \"#utility.yul\":14503:14505   */\n              0x40\n                /* \"#utility.yul\":14492:14501   */\n              dup4\n                /* \"#utility.yul\":14488:14506   */\n              add\n                /* \"#utility.yul\":14481:14529   */\n              mstore\n                /* \"#utility.yul\":14546:14624   */\n              tag_321\n                /* \"#utility.yul\":14619:14623   */\n              dup2\n                /* \"#utility.yul\":14610:14616   */\n              dup8\n                /* \"#utility.yul\":14546:14624   */\n              tag_163\n              jump\t// in\n            tag_321:\n                /* \"#utility.yul\":14538:14624   */\n              swap1\n              pop\n                /* \"#utility.yul\":14671:14680   */\n              dup2\n                /* \"#utility.yul\":14665:14669   */\n              dup2\n                /* \"#utility.yul\":14661:14681   */\n              sub\n                /* \"#utility.yul\":14656:14658   */\n              0x60\n                /* \"#utility.yul\":14645:14654   */\n              dup4\n                /* \"#utility.yul\":14641:14659   */\n              add\n                /* \"#utility.yul\":14634:14682   */\n              mstore\n                /* \"#utility.yul\":14699:14777   */\n              tag_322\n                /* \"#utility.yul\":14772:14776   */\n              dup2\n                /* \"#utility.yul\":14763:14769   */\n              dup7\n                /* \"#utility.yul\":14699:14777   */\n              tag_163\n              jump\t// in\n            tag_322:\n                /* \"#utility.yul\":14691:14777   */\n              swap1\n              pop\n                /* \"#utility.yul\":14787:14902   */\n              tag_323\n                /* \"#utility.yul\":14897:14900   */\n              0x80\n                /* \"#utility.yul\":14886:14895   */\n              dup4\n                /* \"#utility.yul\":14882:14901   */\n              add\n                /* \"#utility.yul\":14873:14879   */\n              dup6\n                /* \"#utility.yul\":14787:14902   */\n              tag_170\n              jump\t// in\n            tag_323:\n                /* \"#utility.yul\":14912:15029   */\n              tag_324\n                /* \"#utility.yul\":15024:15027   */\n              0x0140\n                /* \"#utility.yul\":15013:15022   */\n              dup4\n                /* \"#utility.yul\":15009:15028   */\n              add\n                /* \"#utility.yul\":15000:15006   */\n              dup5\n                /* \"#utility.yul\":14912:15029   */\n              tag_171\n              jump\t// in\n            tag_324:\n                /* \"#utility.yul\":13725:15036   */\n              swap8\n              swap7\n              pop\n              pop\n              pop\n              pop\n              pop\n              pop\n              pop\n              jump\t// out\n                /* \"#utility.yul\":15042:15166   */\n            tag_172:\n                /* \"#utility.yul\":15119:15125   */\n              0x00\n                /* \"#utility.yul\":15153:15158   */\n              dup2\n                /* \"#utility.yul\":15147:15159   */\n              mload\n                /* \"#utility.yul\":15137:15159   */\n              swap1\n              pop\n                /* \"#utility.yul\":15042:15166   */\n              swap2\n              swap1\n              pop\n              jump\t// out\n                /* \"#utility.yul\":15172:15366   */\n            tag_173:\n                /* \"#utility.yul\":15281:15292   */\n              0x00\n                /* \"#utility.yul\":15315:15321   */\n              dup3\n                /* \"#utility.yul\":15310:15313   */\n              dup3\n                /* \"#utility.yul\":15303:15322   */\n              mstore\n                /* \"#utility.yul\":15355:15359   */\n              0x20\n                /* \"#utility.yul\":15350:15353   */\n              dup3\n                /* \"#utility.yul\":15346:15360   */\n              add\n                /* \"#utility.yul\":15331:15360   */\n              swap1\n              pop\n                /* \"#utility.yul\":15172:15366   */\n              swap3\n              swap2\n              pop\n              pop\n              jump\t// out\n                /* \"#utility.yul\":15372:15514   */\n            tag_174:\n                /* \"#utility.yul\":15449:15453   */\n              0x00\n                /* \"#utility.yul\":15472:15475   */\n              dup2\n                /* \"#utility.yul\":15464:15475   */\n              swap1\n              pop\n                /* \"#utility.yul\":15502:15506   */\n              0x20\n                /* \"#utility.yul\":15497:15500   */\n              dup3\n                /* \"#utility.yul\":15493:15507   */\n              add\n                /* \"#utility.yul\":15485:15507   */\n              swap1\n              pop\n                /* \"#utility.yul\":15372:15514   */\n              swap2\n              swap1\n              pop\n              jump\t// out\n                /* \"#utility.yul\":15520:15679   */\n            tag_175:\n                /* \"#utility.yul\":15594:15605   */\n              0x00\n                /* \"#utility.yul\":15628:15634   */\n              dup3\n                /* \"#utility.yul\":15623:15626   */\n              dup3\n                /* \"#utility.yul\":15616:15635   */\n              mstore\n                /* \"#utility.yul\":15668:15672   */\n              0x20\n                /* \"#utility.yul\":15663:15666   */\n              dup3\n                /* \"#utility.yul\":15659:15673   */\n              add\n                /* \"#utility.yul\":15644:15673   */\n              swap1\n              pop\n                /* \"#utility.yul\":15520:15679   */\n              swap3\n              swap2\n              pop\n              pop\n              jump\t// out\n                /* \"#utility.yul\":15685:16029   */\n            tag_176:\n                /* \"#utility.yul\":15763:15766   */\n              0x00\n                /* \"#utility.yul\":15791:15830   */\n              tag_330\n                /* \"#utility.yul\":15824:15829   */\n              dup3\n                /* \"#utility.yul\":15791:15830   */\n              tag_160\n              jump\t// in\n            tag_330:\n                /* \"#utility.yul\":15846:15907   */\n              tag_331\n                /* \"#utility.yul\":15900:15906   */\n              dup2\n                /* \"#utility.yul\":15895:15898   */\n              dup6\n                /* \"#utility.yul\":15846:15907   */\n              tag_175\n              jump\t// in\n            tag_331:\n                /* \"#utility.yul\":15839:15907   */\n              swap4\n              pop\n                /* \"#utility.yul\":15916:15968   */\n              tag_332\n                /* \"#utility.yul\":15961:15967   */\n              dup2\n                /* \"#utility.yul\":15956:15959   */\n              dup6\n                /* \"#utility.yul\":15949:15953   */\n              0x20\n                /* \"#utility.yul\":15942:15947   */\n              dup7\n                /* \"#utility.yul\":15938:15954   */\n              add\n                /* \"#utility.yul\":15916:15968   */\n              tag_162\n              jump\t// in\n            tag_332:\n                /* \"#utility.yul\":15993:16022   */\n              tag_333\n                /* \"#utility.yul\":16015:16021   */\n              dup2\n                /* \"#utility.yul\":15993:16022   */\n              tag_148\n              jump\t// in\n            tag_333:\n                /* \"#utility.yul\":15988:15991   */\n              dup5\n                /* \"#utility.yul\":15984:16023   */\n              add\n                /* \"#utility.yul\":15977:16023   */\n              swap2\n              pop\n                /* \"#utility.yul\":15767:16029   */\n              pop\n                /* \"#utility.yul\":15685:16029   */\n              swap3\n              swap2\n              pop\n              pop\n              jump\t// out\n                /* \"#utility.yul\":16035:16231   */\n            tag_177:\n                /* \"#utility.yul\":16124:16134   */\n              0x00\n                /* \"#utility.yul\":16159:16225   */\n              tag_335\n                /* \"#utility.yul\":16221:16224   */\n              dup4\n                /* \"#utility.yul\":16213:16219   */\n              dup4\n                /* \"#utility.yul\":16159:16225   */\n              tag_176\n              jump\t// in\n            tag_335:\n                /* \"#utility.yul\":16145:16225   */\n              swap1\n              pop\n                /* \"#utility.yul\":16035:16231   */\n              swap3\n              swap2\n              pop\n              pop\n              jump\t// out\n                /* \"#utility.yul\":16237:16360   */\n            tag_178:\n                /* \"#utility.yul\":16317:16321   */\n              0x00\n                /* \"#utility.yul\":16349:16353   */\n              0x20\n                /* \"#utility.yul\":16344:16347   */\n              dup3\n                /* \"#utility.yul\":16340:16354   */\n              add\n                /* \"#utility.yul\":16332:16354   */\n              swap1\n              pop\n                /* \"#utility.yul\":16237:16360   */\n              swap2\n              swap1\n              pop\n              jump\t// out\n                /* \"#utility.yul\":16394:17385   */\n            tag_179:\n                /* \"#utility.yul\":16533:16536   */\n              0x00\n                /* \"#utility.yul\":16562:16626   */\n              tag_338\n                /* \"#utility.yul\":16620:16625   */\n              dup3\n                /* \"#utility.yul\":16562:16626   */\n              tag_172\n              jump\t// in\n            tag_338:\n                /* \"#utility.yul\":16642:16738   */\n              tag_339\n                /* \"#utility.yul\":16731:16737   */\n              dup2\n                /* \"#utility.yul\":16726:16729   */\n              dup6\n                /* \"#utility.yul\":16642:16738   */\n              tag_173\n              jump\t// in\n            tag_339:\n                /* \"#utility.yul\":16635:16738   */\n              swap4\n              pop\n                /* \"#utility.yul\":16764:16767   */\n              dup4\n                /* \"#utility.yul\":16809:16813   */\n              0x20\n                /* \"#utility.yul\":16801:16807   */\n              dup3\n                /* \"#utility.yul\":16797:16814   */\n              mul\n                /* \"#utility.yul\":16792:16795   */\n              dup6\n                /* \"#utility.yul\":16788:16815   */\n              add\n                /* \"#utility.yul\":16839:16905   */\n              tag_340\n                /* \"#utility.yul\":16899:16904   */\n              dup6\n                /* \"#utility.yul\":16839:16905   */\n              tag_174\n              jump\t// in\n            tag_340:\n                /* \"#utility.yul\":16928:16935   */\n              dup1\n                /* \"#utility.yul\":16959:16960   */\n              0x00\n                /* \"#utility.yul\":16944:17340   */\n            tag_341:\n                /* \"#utility.yul\":16969:16975   */\n              dup6\n                /* \"#utility.yul\":16966:16967   */\n              dup2\n                /* \"#utility.yul\":16963:16976   */\n              lt\n                /* \"#utility.yul\":16944:17340   */\n              iszero\n              tag_343\n              jumpi\n                /* \"#utility.yul\":17040:17049   */\n              dup5\n                /* \"#utility.yul\":17034:17038   */\n              dup5\n                /* \"#utility.yul\":17030:17050   */\n              sub\n                /* \"#utility.yul\":17025:17028   */\n              dup10\n                /* \"#utility.yul\":17018:17051   */\n              mstore\n                /* \"#utility.yul\":17091:17097   */\n              dup2\n                /* \"#utility.yul\":17085:17098   */\n              mload\n                /* \"#utility.yul\":17119:17203   */\n              tag_344\n                /* \"#utility.yul\":17198:17202   */\n              dup6\n                /* \"#utility.yul\":17183:17196   */\n              dup3\n                /* \"#utility.yul\":17119:17203   */\n              tag_177\n              jump\t// in\n            tag_344:\n                /* \"#utility.yul\":17111:17203   */\n              swap5\n              pop\n                /* \"#utility.yul\":17226:17296   */\n              tag_345\n                /* \"#utility.yul\":17289:17295   */\n              dup4\n                /* \"#utility.yul\":17226:17296   */\n              tag_178\n              jump\t// in\n            tag_345:\n                /* \"#utility.yul\":17216:17296   */\n              swap3\n              pop\n                /* \"#utility.yul\":17325:17329   */\n              0x20\n                /* \"#utility.yul\":17320:17323   */\n              dup11\n                /* \"#utility.yul\":17316:17330   */\n              add\n                /* \"#utility.yul\":17309:17330   */\n              swap10\n              pop\n                /* \"#utility.yul\":17004:17340   */\n              pop\n                /* \"#utility.yul\":16991:16992   */\n              0x01\n                /* \"#utility.yul\":16988:16989   */\n              dup2\n                /* \"#utility.yul\":16984:16993   */\n              add\n                /* \"#utility.yul\":16979:16993   */\n              swap1\n              pop\n                /* \"#utility.yul\":16944:17340   */\n              jump(tag_341)\n            tag_343:\n                /* \"#utility.yul\":16948:16962   */\n              pop\n                /* \"#utility.yul\":17356:17360   */\n              dup3\n                /* \"#utility.yul\":17349:17360   */\n              swap8\n              pop\n                /* \"#utility.yul\":17376:17379   */\n              dup8\n                /* \"#utility.yul\":17369:17379   */\n              swap6\n              pop\n                /* \"#utility.yul\":16538:17385   */\n              pop\n              pop\n              pop\n              pop\n              pop\n                /* \"#utility.yul\":16394:17385   */\n              swap3\n              swap2\n              pop\n              pop\n              jump\t// out\n                /* \"#utility.yul\":17391:17804   */\n            tag_34:\n                /* \"#utility.yul\":17554:17558   */\n              0x00\n                /* \"#utility.yul\":17592:17594   */\n              0x20\n                /* \"#utility.yul\":17581:17590   */\n              dup3\n                /* \"#utility.yul\":17577:17595   */\n              add\n                /* \"#utility.yul\":17569:17595   */\n              swap1\n              pop\n                /* \"#utility.yul\":17641:17650   */\n              dup2\n                /* \"#utility.yul\":17635:17639   */\n              dup2\n                /* \"#utility.yul\":17631:17651   */\n              sub\n                /* \"#utility.yul\":17627:17628   */\n              0x00\n                /* \"#utility.yul\":17616:17625   */\n              dup4\n                /* \"#utility.yul\":17612:17629   */\n              add\n                /* \"#utility.yul\":17605:17652   */\n              mstore\n                /* \"#utility.yul\":17669:17797   */\n              tag_347\n                /* \"#utility.yul\":17792:17796   */\n              dup2\n                /* \"#utility.yul\":17783:17789   */\n              dup5\n                /* \"#utility.yul\":17669:17797   */\n              tag_179\n              jump\t// in\n            tag_347:\n                /* \"#utility.yul\":17661:17797   */\n              swap1\n              pop\n                /* \"#utility.yul\":17391:17804   */\n              swap3\n              swap2\n              pop\n              pop\n              jump\t// out\n                /* \"#utility.yul\":17810:17936   */\n            tag_180:\n                /* \"#utility.yul\":17847:17854   */\n              0x00\n                /* \"#utility.yul\":17887:17929   */\n              0xffffffffffffffffffffffffffffffffffffffff\n                /* \"#utility.yul\":17880:17885   */\n              dup3\n                /* \"#utility.yul\":17876:17930   */\n              and\n                /* \"#utility.yul\":17865:17930   */\n              swap1\n              pop\n                /* \"#utility.yul\":17810:17936   */\n              swap2\n              swap1\n              pop\n              jump\t// out\n                /* \"#utility.yul\":17942:18038   */\n            tag_181:\n                /* \"#utility.yul\":17979:17986   */\n              0x00\n                /* \"#utility.yul\":18008:18032   */\n              tag_350\n                /* \"#utility.yul\":18026:18031   */\n              dup3\n                /* \"#utility.yul\":18008:18032   */\n              tag_180\n              jump\t// in\n            tag_350:\n                /* \"#utility.yul\":17997:18032   */\n              swap1\n              pop\n                /* \"#utility.yul\":17942:18038   */\n              swap2\n              swap1\n              pop\n              jump\t// out\n                /* \"#utility.yul\":18044:18162   */\n            tag_182:\n                /* \"#utility.yul\":18131:18155   */\n              tag_352\n                /* \"#utility.yul\":18149:18154   */\n              dup2\n                /* \"#utility.yul\":18131:18155   */\n              tag_181\n              jump\t// in\n            tag_352:\n                /* \"#utility.yul\":18126:18129   */\n              dup3\n                /* \"#utility.yul\":18119:18156   */\n              mstore\n                /* \"#utility.yul\":18044:18162   */\n              pop\n              pop\n              jump\t// out\n                /* \"#utility.yul\":18168:18390   */\n            tag_38:\n                /* \"#utility.yul\":18261:18265   */\n              0x00\n                /* \"#utility.yul\":18299:18301   */\n              0x20\n                /* \"#utility.yul\":18288:18297   */\n              dup3\n                /* \"#utility.yul\":18284:18302   */\n              add\n                /* \"#utility.yul\":18276:18302   */\n              swap1\n              pop\n                /* \"#utility.yul\":18312:18383   */\n              tag_354\n                /* \"#utility.yul\":18380:18381   */\n              0x00\n                /* \"#utility.yul\":18369:18378   */\n              dup4\n                /* \"#utility.yul\":18365:18382   */\n              add\n                /* \"#utility.yul\":18356:18362   */\n              dup5\n                /* \"#utility.yul\":18312:18383   */\n              tag_182\n              jump\t// in\n            tag_354:\n                /* \"#utility.yul\":18168:18390   */\n              swap3\n              swap2\n              pop\n              pop\n              jump\t// out\n                /* \"#utility.yul\":18424:20682   */\n            tag_183:\n                /* \"#utility.yul\":18495:18500   */\n              0x00\n                /* \"#utility.yul\":18539:18545   */\n              0x0180\n                /* \"#utility.yul\":18527:18536   */\n              dup3\n                /* \"#utility.yul\":18522:18525   */\n              dup5\n                /* \"#utility.yul\":18518:18537   */\n              sub\n                /* \"#utility.yul\":18514:18546   */\n              slt\n                /* \"#utility.yul\":18511:18630   */\n              iszero\n              tag_356\n              jumpi\n                /* \"#utility.yul\":18549:18628   */\n              tag_357\n              tag_147\n              jump\t// in\n            tag_357:\n                /* \"#utility.yul\":18511:18630   */\n            tag_356:\n                /* \"#utility.yul\":18648:18671   */\n              tag_358\n                /* \"#utility.yul\":18664:18670   */\n              0x0180\n                /* \"#utility.yul\":18648:18671   */\n              tag_151\n              jump\t// in\n            tag_358:\n                /* \"#utility.yul\":18639:18671   */\n              swap1\n              pop\n                /* \"#utility.yul\":18733:18734   */\n              0x00\n                /* \"#utility.yul\":18773:18821   */\n              tag_359\n                /* \"#utility.yul\":18817:18820   */\n              dup5\n                /* \"#utility.yul\":18808:18814   */\n              dup3\n                /* \"#utility.yul\":18797:18806   */\n              dup6\n                /* \"#utility.yul\":18793:18815   */\n              add\n                /* \"#utility.yul\":18773:18821   */\n              tag_155\n              jump\t// in\n            tag_359:\n                /* \"#utility.yul\":18766:18770   */\n              0x00\n                /* \"#utility.yul\":18759:18764   */\n              dup4\n                /* \"#utility.yul\":18755:18771   */\n              add\n                /* \"#utility.yul\":18748:18822   */\n              mstore\n                /* \"#utility.yul\":18681:18833   */\n              pop\n                /* \"#utility.yul\":18897:18899   */\n              0x20\n                /* \"#utility.yul\":18938:18986   */\n              tag_360\n                /* \"#utility.yul\":18982:18985   */\n              dup5\n                /* \"#utility.yul\":18973:18979   */\n              dup3\n                /* \"#utility.yul\":18962:18971   */\n              dup6\n                /* \"#utility.yul\":18958:18980   */\n              add\n                /* \"#utility.yul\":18938:18986   */\n              tag_155\n              jump\t// in\n            tag_360:\n                /* \"#utility.yul\":18931:18935   */\n              0x20\n                /* \"#utility.yul\":18924:18929   */\n              dup4\n                /* \"#utility.yul\":18920:18936   */\n              add\n                /* \"#utility.yul\":18913:18987   */\n              mstore\n                /* \"#utility.yul\":18843:18998   */\n              pop\n                /* \"#utility.yul\":19060:19062   */\n              0x40\n                /* \"#utility.yul\":19101:19149   */\n              tag_361\n                /* \"#utility.yul\":19145:19148   */\n              dup5\n                /* \"#utility.yul\":19136:19142   */\n              dup3\n                /* \"#utility.yul\":19125:19134   */\n              dup6\n                /* \"#utility.yul\":19121:19143   */\n              add\n                /* \"#utility.yul\":19101:19149   */\n              tag_155\n              jump\t// in\n            tag_361:\n                /* \"#utility.yul\":19094:19098   */\n              0x40\n                /* \"#utility.yul\":19087:19092   */\n              dup4\n                /* \"#utility.yul\":19083:19099   */\n              add\n                /* \"#utility.yul\":19076:19150   */\n              mstore\n                /* \"#utility.yul\":19008:19161   */\n              pop\n                /* \"#utility.yul\":19221:19223   */\n              0x60\n                /* \"#utility.yul\":19262:19310   */\n              tag_362\n                /* \"#utility.yul\":19306:19309   */\n              dup5\n                /* \"#utility.yul\":19297:19303   */\n              dup3\n                /* \"#utility.yul\":19286:19295   */\n              dup6\n                /* \"#utility.yul\":19282:19304   */\n              add\n                /* \"#utility.yul\":19262:19310   */\n              tag_155\n              jump\t// in\n            tag_362:\n                /* \"#utility.yul\":19255:19259   */\n              0x60\n                /* \"#utility.yul\":19248:19253   */\n              dup4\n                /* \"#utility.yul\":19244:19260   */\n              add\n                /* \"#utility.yul\":19237:19311   */\n              mstore\n                /* \"#utility.yul\":19171:19322   */\n              pop\n                /* \"#utility.yul\":19384:19387   */\n              0x80\n                /* \"#utility.yul\":19426:19474   */\n              tag_363\n                /* \"#utility.yul\":19470:19473   */\n              dup5\n                /* \"#utility.yul\":19461:19467   */\n              dup3\n                /* \"#utility.yul\":19450:19459   */\n              dup6\n                /* \"#utility.yul\":19446:19468   */\n              add\n                /* \"#utility.yul\":19426:19474   */\n              tag_155\n              jump\t// in\n            tag_363:\n                /* \"#utility.yul\":19419:19423   */\n              0x80\n                /* \"#utility.yul\":19412:19417   */\n              dup4\n                /* \"#utility.yul\":19408:19424   */\n              add\n                /* \"#utility.yul\":19401:19475   */\n              mstore\n                /* \"#utility.yul\":19332:19486   */\n              pop\n                /* \"#utility.yul\":19556:19559   */\n              0xa0\n                /* \"#utility.yul\":19598:19646   */\n              tag_364\n                /* \"#utility.yul\":19642:19645   */\n              dup5\n                /* \"#utility.yul\":19633:19639   */\n              dup3\n                /* \"#utility.yul\":19622:19631   */\n              dup6\n                /* \"#utility.yul\":19618:19640   */\n              add\n                /* \"#utility.yul\":19598:19646   */\n              tag_155\n              jump\t// in\n            tag_364:\n                /* \"#utility.yul\":19591:19595   */\n              0xa0\n                /* \"#utility.yul\":19584:19589   */\n              dup4\n                /* \"#utility.yul\":19580:19596   */\n              add\n                /* \"#utility.yul\":19573:19647   */\n              mstore\n                /* \"#utility.yul\":19496:19658   */\n              pop\n                /* \"#utility.yul\":19720:19723   */\n              0xc0\n                /* \"#utility.yul\":19762:19810   */\n              tag_365\n                /* \"#utility.yul\":19806:19809   */\n              dup5\n                /* \"#utility.yul\":19797:19803   */\n              dup3\n                /* \"#utility.yul\":19786:19795   */\n              dup6\n                /* \"#utility.yul\":19782:19804   */\n              add\n                /* \"#utility.yul\":19762:19810   */\n              tag_155\n              jump\t// in\n            tag_365:\n                /* \"#utility.yul\":19755:19759   */\n              0xc0\n                /* \"#utility.yul\":19748:19753   */\n              dup4\n                /* \"#utility.yul\":19744:19760   */\n              add\n                /* \"#utility.yul\":19737:19811   */\n              mstore\n                /* \"#utility.yul\":19668:19822   */\n              pop\n                /* \"#utility.yul\":19886:19889   */\n              0xe0\n                /* \"#utility.yul\":19928:19976   */\n              tag_366\n                /* \"#utility.yul\":19972:19975   */\n              dup5\n                /* \"#utility.yul\":19963:19969   */\n              dup3\n                /* \"#utility.yul\":19952:19961   */\n              dup6\n                /* \"#utility.yul\":19948:19970   */\n              add\n                /* \"#utility.yul\":19928:19976   */\n              tag_155\n              jump\t// in\n            tag_366:\n                /* \"#utility.yul\":19921:19925   */\n              0xe0\n                /* \"#utility.yul\":19914:19919   */\n              dup4\n                /* \"#utility.yul\":19910:19926   */\n              add\n                /* \"#utility.yul\":19903:19977   */\n              mstore\n                /* \"#utility.yul\":19832:19988   */\n              pop\n                /* \"#utility.yul\":20059:20062   */\n              0x0100\n                /* \"#utility.yul\":20103:20151   */\n              tag_367\n                /* \"#utility.yul\":20147:20150   */\n              dup5\n                /* \"#utility.yul\":20138:20144   */\n              dup3\n                /* \"#utility.yul\":20127:20136   */\n              dup6\n                /* \"#utility.yul\":20123:20145   */\n              add\n                /* \"#utility.yul\":20103:20151   */\n              tag_155\n              jump\t// in\n            tag_367:\n                /* \"#utility.yul\":20094:20100   */\n              0x0100\n                /* \"#utility.yul\":20087:20092   */\n              dup4\n                /* \"#utility.yul\":20083:20101   */\n              add\n                /* \"#utility.yul\":20076:20152   */\n              mstore\n                /* \"#utility.yul\":19998:20163   */\n              pop\n                /* \"#utility.yul\":20227:20230   */\n              0x0120\n                /* \"#utility.yul\":20271:20319   */\n              tag_368\n                /* \"#utility.yul\":20315:20318   */\n              dup5\n                /* \"#utility.yul\":20306:20312   */\n              dup3\n                /* \"#utility.yul\":20295:20304   */\n              dup6\n                /* \"#utility.yul\":20291:20313   */\n              add\n                /* \"#utility.yul\":20271:20319   */\n              tag_155\n              jump\t// in\n            tag_368:\n                /* \"#utility.yul\":20262:20268   */\n              0x0120\n                /* \"#utility.yul\":20255:20260   */\n              dup4\n                /* \"#utility.yul\":20251:20269   */\n              add\n                /* \"#utility.yul\":20244:20320   */\n              mstore\n                /* \"#utility.yul\":20173:20331   */\n              pop\n                /* \"#utility.yul\":20401:20404   */\n              0x0140\n                /* \"#utility.yul\":20445:20493   */\n              tag_369\n                /* \"#utility.yul\":20489:20492   */\n              dup5\n                /* \"#utility.yul\":20480:20486   */\n              dup3\n                /* \"#utility.yul\":20469:20478   */\n              dup6\n                /* \"#utility.yul\":20465:20487   */\n              add\n                /* \"#utility.yul\":20445:20493   */\n              tag_155\n              jump\t// in\n            tag_369:\n                /* \"#utility.yul\":20436:20442   */\n              0x0140\n                /* \"#utility.yul\":20429:20434   */\n              dup4\n                /* \"#utility.yul\":20425:20443   */\n              add\n                /* \"#utility.yul\":20418:20494   */\n              mstore\n                /* \"#utility.yul\":20341:20505   */\n              pop\n                /* \"#utility.yul\":20571:20574   */\n              0x0160\n                /* \"#utility.yul\":20615:20663   */\n              tag_370\n                /* \"#utility.yul\":20659:20662   */\n              dup5\n                /* \"#utility.yul\":20650:20656   */\n              dup3\n                /* \"#utility.yul\":20639:20648   */\n              dup6\n                /* \"#utility.yul\":20635:20657   */\n              add\n                /* \"#utility.yul\":20615:20663   */\n              tag_155\n              jump\t// in\n            tag_370:\n                /* \"#utility.yul\":20606:20612   */\n              0x0160\n                /* \"#utility.yul\":20599:20604   */\n              dup4\n                /* \"#utility.yul\":20595:20613   */\n              add\n                /* \"#utility.yul\":20588:20664   */\n              mstore\n                /* \"#utility.yul\":20515:20675   */\n              pop\n                /* \"#utility.yul\":18424:20682   */\n              swap3\n              swap2\n              pop\n              pop\n              jump\t// out\n                /* \"#utility.yul\":20688:21407   */\n            tag_41:\n                /* \"#utility.yul\":20790:20796   */\n              0x00\n                /* \"#utility.yul\":20798:20804   */\n              dup1\n                /* \"#utility.yul\":20806:20812   */\n              0x00\n                /* \"#utility.yul\":20855:20858   */\n              0x01a0\n                /* \"#utility.yul\":20843:20852   */\n              dup5\n                /* \"#utility.yul\":20834:20841   */\n              dup7\n                /* \"#utility.yul\":20830:20853   */\n              sub\n                /* \"#utility.yul\":20826:20859   */\n              slt\n                /* \"#utility.yul\":20823:20943   */\n              iszero\n              tag_372\n              jumpi\n                /* \"#utility.yul\":20862:20941   */\n              tag_373\n              tag_141\n              jump\t// in\n            tag_373:\n                /* \"#utility.yul\":20823:20943   */\n            tag_372:\n                /* \"#utility.yul\":21010:21011   */\n              0x00\n                /* \"#utility.yul\":20999:21008   */\n              dup5\n                /* \"#utility.yul\":20995:21012   */\n              add\n                /* \"#utility.yul\":20982:21013   */\n              calldataload\n                /* \"#utility.yul\":21040:21058   */\n              0xffffffffffffffff\n                /* \"#utility.yul\":21032:21038   */\n              dup2\n                /* \"#utility.yul\":21029:21059   */\n              gt\n                /* \"#utility.yul\":21026:21143   */\n              iszero\n              tag_374\n              jumpi\n                /* \"#utility.yul\":21062:21141   */\n              tag_375\n              tag_142\n              jump\t// in\n            tag_375:\n                /* \"#utility.yul\":21026:21143   */\n            tag_374:\n                /* \"#utility.yul\":21175:21240   */\n              tag_376\n                /* \"#utility.yul\":21232:21239   */\n              dup7\n                /* \"#utility.yul\":21223:21229   */\n              dup3\n                /* \"#utility.yul\":21212:21221   */\n              dup8\n                /* \"#utility.yul\":21208:21230   */\n              add\n                /* \"#utility.yul\":21175:21240   */\n              tag_146\n              jump\t// in\n            tag_376:\n                /* \"#utility.yul\":21157:21240   */\n              swap4\n              pop\n              swap4\n              pop\n                /* \"#utility.yul\":20953:21250   */\n              pop\n                /* \"#utility.yul\":21289:21291   */\n              0x20\n                /* \"#utility.yul\":21315:21390   */\n              tag_377\n                /* \"#utility.yul\":21382:21389   */\n              dup7\n                /* \"#utility.yul\":21373:21379   */\n              dup3\n                /* \"#utility.yul\":21362:21371   */\n              dup8\n                /* \"#utility.yul\":21358:21380   */\n              add\n                /* \"#utility.yul\":21315:21390   */\n              tag_183\n              jump\t// in\n            tag_377:\n                /* \"#utility.yul\":21305:21390   */\n              swap2\n              pop\n                /* \"#utility.yul\":21260:21400   */\n              pop\n                /* \"#utility.yul\":20688:21407   */\n              swap3\n              pop\n              swap3\n              pop\n              swap3\n              jump\t// out\n                /* \"#utility.yul\":21413:21561   */\n            tag_184:\n                /* \"#utility.yul\":21515:21526   */\n              0x00\n                /* \"#utility.yul\":21552:21555   */\n              dup2\n                /* \"#utility.yul\":21537:21555   */\n              swap1\n              pop\n                /* \"#utility.yul\":21413:21561   */\n              swap3\n              swap2\n              pop\n              pop\n              jump\t// out\n                /* \"#utility.yul\":21591:21908   */\n            tag_185:\n                /* \"#utility.yul\":21707:21710   */\n              0x00\n                /* \"#utility.yul\":21728:21817   */\n              tag_380\n                /* \"#utility.yul\":21810:21816   */\n              dup4\n                /* \"#utility.yul\":21805:21808   */\n              dup6\n                /* \"#utility.yul\":21728:21817   */\n              tag_184\n              jump\t// in\n            tag_380:\n                /* \"#utility.yul\":21721:21817   */\n              swap4\n              pop\n                /* \"#utility.yul\":21827:21870   */\n              tag_381\n                /* \"#utility.yul\":21863:21869   */\n              dup4\n                /* \"#utility.yul\":21858:21861   */\n              dup6\n                /* \"#utility.yul\":21851:21856   */\n              dup5\n                /* \"#utility.yul\":21827:21870   */\n              tag_166\n              jump\t// in\n            tag_381:\n                /* \"#utility.yul\":21895:21901   */\n              dup3\n                /* \"#utility.yul\":21890:21893   */\n              dup5\n                /* \"#utility.yul\":21886:21902   */\n              add\n                /* \"#utility.yul\":21879:21902   */\n              swap1\n              pop\n                /* \"#utility.yul\":21591:21908   */\n              swap4\n              swap3\n              pop\n              pop\n              pop\n              jump\t// out\n                /* \"#utility.yul\":21914:22209   */\n            tag_52:\n                /* \"#utility.yul\":22056:22059   */\n              0x00\n                /* \"#utility.yul\":22078:22183   */\n              tag_383\n                /* \"#utility.yul\":22179:22182   */\n              dup3\n                /* \"#utility.yul\":22170:22176   */\n              dup5\n                /* \"#utility.yul\":22162:22168   */\n              dup7\n                /* \"#utility.yul\":22078:22183   */\n              tag_185\n              jump\t// in\n            tag_383:\n                /* \"#utility.yul\":22071:22183   */\n              swap2\n              pop\n                /* \"#utility.yul\":22200:22203   */\n              dup2\n                /* \"#utility.yul\":22193:22203   */\n              swap1\n              pop\n                /* \"#utility.yul\":21914:22209   */\n              swap4\n              swap3\n              pop\n              pop\n              pop\n              jump\t// out\n                /* \"#utility.yul\":22215:22395   */\n            tag_186:\n                /* \"#utility.yul\":22263:22340   */\n              0x4e487b7100000000000000000000000000000000000000000000000000000000\n                /* \"#utility.yul\":22260:22261   */\n              0x00\n                /* \"#utility.yul\":22253:22341   */\n              mstore\n                /* \"#utility.yul\":22360:22364   */\n              0x22\n                /* \"#utility.yul\":22357:22358   */\n              0x04\n                /* \"#utility.yul\":22350:22365   */\n              mstore\n                /* \"#utility.yul\":22384:22388   */\n              0x24\n                /* \"#utility.yul\":22381:22382   */\n              0x00\n                /* \"#utility.yul\":22374:22389   */\n              revert\n                /* \"#utility.yul\":22401:22721   */\n            tag_70:\n                /* \"#utility.yul\":22445:22451   */\n              0x00\n                /* \"#utility.yul\":22482:22483   */\n              0x02\n                /* \"#utility.yul\":22476:22480   */\n              dup3\n                /* \"#utility.yul\":22472:22484   */\n              div\n                /* \"#utility.yul\":22462:22484   */\n              swap1\n              pop\n                /* \"#utility.yul\":22529:22530   */\n              0x01\n                /* \"#utility.yul\":22523:22527   */\n              dup3\n                /* \"#utility.yul\":22519:22531   */\n              and\n                /* \"#utility.yul\":22550:22568   */\n              dup1\n                /* \"#utility.yul\":22540:22621   */\n              tag_386\n              jumpi\n                /* \"#utility.yul\":22606:22610   */\n              0x7f\n                /* \"#utility.yul\":22598:22604   */\n              dup3\n                /* \"#utility.yul\":22594:22611   */\n              and\n                /* \"#utility.yul\":22584:22611   */\n              swap2\n              pop\n                /* \"#utility.yul\":22540:22621   */\n            tag_386:\n                /* \"#utility.yul\":22668:22670   */\n              0x20\n                /* \"#utility.yul\":22660:22666   */\n              dup3\n                /* \"#utility.yul\":22657:22671   */\n              lt\n                /* \"#utility.yul\":22637:22655   */\n              dup2\n                /* \"#utility.yul\":22634:22672   */\n              eq\n                /* \"#utility.yul\":22631:22715   */\n              iszero\n              tag_387\n              jumpi\n                /* \"#utility.yul\":22687:22705   */\n              tag_388\n              tag_186\n              jump\t// in\n            tag_388:\n                /* \"#utility.yul\":22631:22715   */\n            tag_387:\n                /* \"#utility.yul\":22452:22721   */\n              pop\n                /* \"#utility.yul\":22401:22721   */\n              swap2\n              swap1\n              pop\n              jump\t// out\n\n            auxdata: 0xa2646970667358221220e8fe92b25b7f3e4b604560f5097afc403138d6157657aa7e5d62c7470520ec6c64736f6c63430008090033\n        }\n    }\n\n    auxdata: 0xa2646970667358221220bb43ae8ecaad9528d1023af12068c66252c8ddb2b55421ff03c8216f26f1708464736f6c63430008090033\n}\n",
    "bytecode": {
      "linkReferences": {},
      "object": "608060405234801561001057600080fd5b50612060806100206000396000f3fe608060405234801561001057600080fd5b50600436106100415760003560e01c806305ad1d16146100465780634eed407e14610050578063bae324fc14610080575b600080fd5b61004e61009e565b005b61006a60048036038101906100659190610251565b61013c565b60405161007791906102fd565b60405180910390f35b61008861017b565b60405161009591906103d6565b60405180910390f35b6000336040516100ad90610209565b6100b79190610419565b604051809103906000f0801580156100d3573d6000803e3d6000fd5b5090506000819080600181540180825580915050600190039060005260206000200160009091909190916101000a81548173ffffffffffffffffffffffffffffffffffffffff021916908373ffffffffffffffffffffffffffffffffffffffff16021790555050565b6000818154811061014c57600080fd5b906000526020600020016000915054906101000a900473ffffffffffffffffffffffffffffffffffffffff1681565b606060008054806020026020016040519081016040528092919081815260200182805480156101ff57602002820191906000526020600020905b8160009054906101000a900473ffffffffffffffffffffffffffffffffffffffff1673ffffffffffffffffffffffffffffffffffffffff16815260200190600101908083116101b5575b5050505050905090565b611bf68061043583390190565b600080fd5b6000819050919050565b61022e8161021b565b811461023957600080fd5b50565b60008135905061024b81610225565b92915050565b60006020828403121561026757610266610216565b5b60006102758482850161023c565b91505092915050565b600073ffffffffffffffffffffffffffffffffffffffff82169050919050565b6000819050919050565b60006102c36102be6102b98461027e565b61029e565b61027e565b9050919050565b60006102d5826102a8565b9050919050565b60006102e7826102ca565b9050919050565b6102f7816102dc565b82525050565b600060208201905061031260008301846102ee565b92915050565b600081519050919050565b600082825260208201905092915050565b6000819050602082019050919050565b61034d816102dc565b82525050565b600061035f8383610344565b60208301905092915050565b6000602082019050919050565b600061038382610318565b61038d8185610323565b935061039883610334565b8060005b838110156103c95781516103b08882610353565b97506103bb8361036b565b92505060018101905061039c565b5085935050505092915050565b600060208201905081810360008301526103f08184610378565b905092915050565b60006104038261027e565b9050919050565b610413816103f8565b82525050565b600060208201905061042e600083018461040a565b9291505056fe60806040523480156200001157600080fd5b5060405162001bf638038062001bf68339818101604052810190620000379190620000e8565b806000806101000a81548173ffffffffffffffffffffffffffffffffffffffff021916908373ffffffffffffffffffffffffffffffffffffffff160217905550506200011a565b600080fd5b600073ffffffffffffffffffffffffffffffffffffffff82169050919050565b6000620000b08262000083565b9050919050565b620000c281620000a3565b8114620000ce57600080fd5b50565b600081519050620000e281620000b7565b92915050565b6000602082840312156200010157620001006200007e565b5b60006200011184828501620000d1565b91505092915050565b611acc806200012a6000396000f3fe608060405234801561001057600080fd5b506004361061007d5760003560e01c80639e57716a1161005b5780639e57716a146100ea578063aaa44e5c1461011f578063ba5d30781461013d578063cf2547501461015b5761007d565b8063321e26651461008257806358955d321461009e5780636f28c355146100ba575b600080fd5b61009c60048036038101906100979190611025565b610177565b005b6100b860048036038101906100b39190611275565b6104ba565b005b6100d460048036038101906100cf919061130b565b610631565b6040516100e191906113c0565b60405180910390f35b61010460048036038101906100ff9190611497565b6106dd565b60405161011696959493929190611660565b60405180910390f35b610127610a18565b60405161013491906117eb565b60405180910390f35b610145610af1565b604051610152919061184e565b60405180910390f35b6101756004803603810190610170919061198b565b610b15565b005b60008054906101000a900473ffffffffffffffffffffffffffffffffffffffff1673ffffffffffffffffffffffffffffffffffffffff163373ffffffffffffffffffffffffffffffffffffffff16146101cf57600080fd5b6101d7610daa565b88888080601f016020809104026020016040519081016040528093929190818152602001838380828437600081840152601f19601f82011690508083019250505050505050816000018190525086868080601f016020809104026020016040519081016040528093929190818152602001838380828437600081840152601f19601f82011690508083019250505050505050816020018190525060028787909180600181540180825580915050600190039060005260206000200160009091929091929091929091925091906102ae929190610dec565b5084848080601f016020809104026020016040519081016040528093929190818152602001838380828437600081840152601f19601f82011690508083019250505050505050816040018190525082828080601f016020809104026020016040519081016040528093929190818152602001838380828437600081840152601f19601f820116905080830192505050505050508160600181905250806001888860405161035c929190611a1c565b90815260200160405180910390206000820151816000019080519060200190610386929190610e72565b5060208201518160010190805190602001906103a3929190610e72565b5060408201518160020190805190602001906103c0929190610e72565b5060608201518160030190805190602001906103dd929190610e72565b50608082015181600401600082015181600001556020820151816001015560408201518160020155606082015181600301556080820151816004015560a08201518160050155505060a082015181600a01600082015181600001556020820151816001015560408201518160020155606082015181600301556080820151816004015560a0820151816005015560c0820151816006015560e082015181600701556101008201518160080155610120820151816009015561014082015181600a015561016082015181600b01555050905050505050505050505050565b60008054906101000a900473ffffffffffffffffffffffffffffffffffffffff1673ffffffffffffffffffffffffffffffffffffffff163373ffffffffffffffffffffffffffffffffffffffff161461051257600080fd5b806000015160018484604051610529929190611a1c565b908152602001604051809103902060040160000181905550806020015160018484604051610558929190611a1c565b908152602001604051809103902060040160010181905550806040015160018484604051610587929190611a1c565b9081526020016040518091039020600401600201819055508060600151600184846040516105b6929190611a1c565b9081526020016040518091039020600401600301819055508060800151600184846040516105e5929190611a1c565b9081526020016040518091039020600401600401819055508060a0015160018484604051610614929190611a1c565b908152602001604051809103902060040160050181905550505050565b6002818154811061064157600080fd5b90600052602060002001600091509050805461065c90611a64565b80601f016020809104026020016040519081016040528092919081815260200182805461068890611a64565b80156106d55780601f106106aa576101008083540402835291602001916106d5565b820191906000526020600020905b8154815290600101906020018083116106b857829003601f168201915b505050505081565b60018180516020810182018051848252602083016020850120818352809550505050505060009150905080600001805461071690611a64565b80601f016020809104026020016040519081016040528092919081815260200182805461074290611a64565b801561078f5780601f106107645761010080835404028352916020019161078f565b820191906000526020600020905b81548152906001019060200180831161077257829003601f168201915b5050505050908060010180546107a490611a64565b80601f01602080910402602001604051908101604052809291908181526020018280546107d090611a64565b801561081d5780601f106107f25761010080835404028352916020019161081d565b820191906000526020600020905b81548152906001019060200180831161080057829003601f168201915b50505050509080600201805461083290611a64565b80601f016020809104026020016040519081016040528092919081815260200182805461085e90611a64565b80156108ab5780601f10610880576101008083540402835291602001916108ab565b820191906000526020600020905b81548152906001019060200180831161088e57829003601f168201915b5050505050908060030180546108c090611a64565b80601f01602080910402602001604051908101604052809291908181526020018280546108ec90611a64565b80156109395780601f1061090e57610100808354040283529160200191610939565b820191906000526020600020905b81548152906001019060200180831161091c57829003601f168201915b505050505090806004016040518060c001604052908160008201548152602001600182015481526020016002820154815260200160038201548152602001600482015481526020016005820154815250509080600a016040518061018001604052908160008201548152602001600182015481526020016002820154815260200160038201548152602001600482015481526020016005820154815260200160068201548152602001600782015481526020016008820154815260200160098201548152602001600a8201548152602001600b82015481525050905086565b60606002805480602002602001604051908101604052809291908181526020016000905b82821015610ae8578382906000526020600020018054610a5b90611a64565b80601f0160208091040260200160405190810160405280929190818152602001828054610a8790611a64565b8015610ad45780601f10610aa957610100808354040283529160200191610ad4565b820191906000526020600020905b815481529060010190602001808311610ab757829003601f168201915b505050505081526020019060010190610a3c565b50505050905090565b60008054906101000a900473ffffffffffffffffffffffffffffffffffffffff1681565b60008054906101000a900473ffffffffffffffffffffffffffffffffffffffff1673ffffffffffffffffffffffffffffffffffffffff163373ffffffffffffffffffffffffffffffffffffffff1614610b6d57600080fd5b806000015160018484604051610b84929190611a1c565b9081526020016040518091039020600a0160000181905550806020015160018484604051610bb3929190611a1c565b9081526020016040518091039020600a0160010181905550806040015160018484604051610be2929190611a1c565b9081526020016040518091039020600a0160020181905550806060015160018484604051610c11929190611a1c565b9081526020016040518091039020600a0160030181905550806080015160018484604051610c40929190611a1c565b9081526020016040518091039020600a01600401819055508060a0015160018484604051610c6f929190611a1c565b9081526020016040518091039020600a01600501819055508060c0015160018484604051610c9e929190611a1c565b9081526020016040518091039020600a01600601819055508060e0015160018484604051610ccd929190611a1c565b9081526020016040518091039020600a016007018190555080610100015160018484604051610cfd929190611a1c565b9081526020016040518091039020600a016008018190555080610120015160018484604051610d2d929190611a1c565b9081526020016040518091039020600a016009018190555080610140015160018484604051610d5d929190611a1c565b9081526020016040518091039020600a01600a018190555080610160015160018484604051610d8d929190611a1c565b9081526020016040518091039020600a01600b0181905550505050565b6040518060c0016040528060608152602001606081526020016060815260200160608152602001610dd9610ef8565b8152602001610de6610f2e565b81525090565b828054610df890611a64565b90600052602060002090601f016020900481019282610e1a5760008555610e61565b82601f10610e3357803560ff1916838001178555610e61565b82800160010185558215610e61579182015b82811115610e60578235825591602001919060010190610e45565b5b509050610e6e9190610f8f565b5090565b828054610e7e90611a64565b90600052602060002090601f016020900481019282610ea05760008555610ee7565b82601f10610eb957805160ff1916838001178555610ee7565b82800160010185558215610ee7579182015b82811115610ee6578251825591602001919060010190610ecb565b5b509050610ef49190610f8f565b5090565b6040518060c001604052806000815260200160008152602001600081526020016000815260200160008152602001600081525090565b6040518061018001604052806000815260200160008152602001600081526020016000815260200160008152602001600081526020016000815260200160008152602001600081526020016000815260200160008152602001600081525090565b5b80821115610fa8576000816000905550600101610f90565b5090565b6000604051905090565b600080fd5b600080fd5b600080fd5b600080fd5b600080fd5b60008083601f840112610fe557610fe4610fc0565b5b8235905067ffffffffffffffff81111561100257611001610fc5565b5b60208301915083600182028301111561101e5761101d610fca565b5b9250929050565b6000806000806000806000806080898b03121561104557611044610fb6565b5b600089013567ffffffffffffffff81111561106357611062610fbb565b5b61106f8b828c01610fcf565b9850985050602089013567ffffffffffffffff81111561109257611091610fbb565b5b61109e8b828c01610fcf565b9650965050604089013567ffffffffffffffff8111156110c1576110c0610fbb565b5b6110cd8b828c01610fcf565b9450945050606089013567ffffffffffffffff8111156110f0576110ef610fbb565b5b6110fc8b828c01610fcf565b92509250509295985092959890939650565b600080fd5b6000601f19601f8301169050919050565b7f4e487b7100000000000000000000000000000000000000000000000000000000600052604160045260246000fd5b61115c82611113565b810181811067ffffffffffffffff8211171561117b5761117a611124565b5b80604052505050565b600061118e610fac565b905061119a8282611153565b919050565b6000819050919050565b6111b28161119f565b81146111bd57600080fd5b50565b6000813590506111cf816111a9565b92915050565b600060c082840312156111eb576111ea61110e565b5b6111f560c0611184565b90506000611205848285016111c0565b6000830152506020611219848285016111c0565b602083015250604061122d848285016111c0565b6040830152506060611241848285016111c0565b6060830152506080611255848285016111c0565b60808301525060a0611269848285016111c0565b60a08301525092915050565b600080600060e0848603121561128e5761128d610fb6565b5b600084013567ffffffffffffffff8111156112ac576112ab610fbb565b5b6112b886828701610fcf565b935093505060206112cb868287016111d5565b9150509250925092565b6000819050919050565b6112e8816112d5565b81146112f357600080fd5b50565b600081359050611305816112df565b92915050565b60006020828403121561132157611320610fb6565b5b600061132f848285016112f6565b91505092915050565b600081519050919050565b600082825260208201905092915050565b60005b83811015611372578082015181840152602081019050611357565b83811115611381576000848401525b50505050565b600061139282611338565b61139c8185611343565b93506113ac818560208601611354565b6113b581611113565b840191505092915050565b600060208201905081810360008301526113da8184611387565b905092915050565b600080fd5b600067ffffffffffffffff82111561140257611401611124565b5b61140b82611113565b9050602081019050919050565b82818337600083830152505050565b600061143a611435846113e7565b611184565b905082815260208101848484011115611456576114556113e2565b5b611461848285611418565b509392505050565b600082601f83011261147e5761147d610fc0565b5b813561148e848260208601611427565b91505092915050565b6000602082840312156114ad576114ac610fb6565b5b600082013567ffffffffffffffff8111156114cb576114ca610fbb565b5b6114d784828501611469565b91505092915050565b6114e98161119f565b82525050565b60c08201600082015161150560008501826114e0565b50602082015161151860208501826114e0565b50604082015161152b60408501826114e0565b50606082015161153e60608501826114e0565b50608082015161155160808501826114e0565b5060a082015161156460a08501826114e0565b50505050565b6101808201600082015161158160008501826114e0565b50602082015161159460208501826114e0565b5060408201516115a760408501826114e0565b5060608201516115ba60608501826114e0565b5060808201516115cd60808501826114e0565b5060a08201516115e060a08501826114e0565b5060c08201516115f360c08501826114e0565b5060e082015161160660e08501826114e0565b5061010082015161161b6101008501826114e0565b506101208201516116306101208501826114e0565b506101408201516116456101408501826114e0565b5061016082015161165a6101608501826114e0565b50505050565b60006102c082019050818103600083015261167b8189611387565b9050818103602083015261168f8188611387565b905081810360408301526116a38187611387565b905081810360608301526116b78186611387565b90506116c660808301856114ef565b6116d461014083018461156a565b979650505050505050565b600081519050919050565b600082825260208201905092915050565b6000819050602082019050919050565b600082825260208201905092915050565b600061172782611338565b611731818561170b565b9350611741818560208601611354565b61174a81611113565b840191505092915050565b6000611761838361171c565b905092915050565b6000602082019050919050565b6000611781826116df565b61178b81856116ea565b93508360208202850161179d856116fb565b8060005b858110156117d957848403895281516117ba8582611755565b94506117c583611769565b925060208a019950506001810190506117a1565b50829750879550505050505092915050565b600060208201905081810360008301526118058184611776565b905092915050565b600073ffffffffffffffffffffffffffffffffffffffff82169050919050565b60006118388261180d565b9050919050565b6118488161182d565b82525050565b6000602082019050611863600083018461183f565b92915050565b600061018082840312156118805761187f61110e565b5b61188b610180611184565b9050600061189b848285016111c0565b60008301525060206118af848285016111c0565b60208301525060406118c3848285016111c0565b60408301525060606118d7848285016111c0565b60608301525060806118eb848285016111c0565b60808301525060a06118ff848285016111c0565b60a08301525060c0611913848285016111c0565b60c08301525060e0611927848285016111c0565b60e08301525061010061193c848285016111c0565b61010083015250610120611952848285016111c0565b61012083015250610140611968848285016111c0565b6101408301525061016061197e848285016111c0565b6101608301525092915050565b60008060006101a084860312156119a5576119a4610fb6565b5b600084013567ffffffffffffffff8111156119c3576119c2610fbb565b5b6119cf86828701610fcf565b935093505060206119e286828701611869565b9150509250925092565b600081905092915050565b6000611a0383856119ec565b9350611a10838584611418565b82840190509392505050565b6000611a298284866119f7565b91508190509392505050565b7f4e487b7100000000000000000000000000000000000000000000000000000000600052602260045260246000fd5b60006002820490506001821680611a7c57607f821691505b60208210811415611a9057611a8f611a35565b5b5091905056fea2646970667358221220e8fe92b25b7f3e4b604560f5097afc403138d6157657aa7e5d62c7470520ec6c64736f6c63430008090033a2646970667358221220bb43ae8ecaad9528d1023af12068c66252c8ddb2b55421ff03c8216f26f1708464736f6c63430008090033",
      "opcodes": "PUSH1 0x80 PUSH1 0x40 MSTORE CALLVALUE DUP1 ISZERO PUSH2 0x10 JUMPI PUSH1 0x0 DUP1 REVERT JUMPDEST POP PUSH2 0x2060 DUP1 PUSH2 0x20 PUSH1 0x0 CODECOPY PUSH1 0x0 RETURN INVALID PUSH1 0x80 PUSH1 0x40 MSTORE CALLVALUE DUP1 ISZERO PUSH2 0x10 JUMPI PUSH1 0x0 DUP1 REVERT JUMPDEST POP PUSH1 0x4 CALLDATASIZE LT PUSH2 0x41 JUMPI PUSH1 0x0 CALLDATALOAD PUSH1 0xE0 SHR DUP1 PUSH4 0x5AD1D16 EQ PUSH2 0x46 JUMPI DUP1 PUSH4 0x4EED407E EQ PUSH2 0x50 JUMPI DUP1 PUSH4 0xBAE324FC EQ PUSH2 0x80 JUMPI JUMPDEST PUSH1 0x0 DUP1 REVERT JUMPDEST PUSH2 0x4E PUSH2 0x9E JUMP JUMPDEST STOP JUMPDEST PUSH2 0x6A PUSH1 0x4 DUP1 CALLDATASIZE SUB DUP2 ADD SWAP1 PUSH2 0x65 SWAP2 SWAP1 PUSH2 0x251 JUMP JUMPDEST PUSH2 0x13C JUMP JUMPDEST PUSH1 0x40 MLOAD PUSH2 0x77 SWAP2 SWAP1 PUSH2 0x2FD JUMP JUMPDEST PUSH1 0x40 MLOAD DUP1 SWAP2 SUB SWAP1 RETURN JUMPDEST PUSH2 0x88 PUSH2 0x17B JUMP JUMPDEST PUSH1 0x40 MLOAD PUSH2 0x95 SWAP2 SWAP1 PUSH2 0x3D6 JUMP JUMPDEST PUSH1 0x40 MLOAD DUP1 SWAP2 SUB SWAP1 RETURN JUMPDEST PUSH1 0x0 CALLER PUSH1 0x40 MLOAD PUSH2 0xAD SWAP1 PUSH2 0x209 JUMP JUMPDEST PUSH2 0xB7 SWAP2 SWAP1 PUSH2 0x419 JUMP JUMPDEST PUSH1 0x40 MLOAD DUP1 SWAP2 SUB SWAP1 PUSH1 0x0 CREATE DUP1 ISZERO DUP1 ISZERO PUSH2 0xD3 JUMPI RETURNDATASIZE PUSH1 0x0 DUP1 RETURNDATACOPY RETURNDATASIZE PUSH1 0x0 REVERT JUMPDEST POP SWAP1 POP PUSH1 0x0 DUP2 SWAP1 DUP1 PUSH1 0x1 DUP2 SLOAD ADD DUP1 DUP3 SSTORE DUP1 SWAP2 POP POP PUSH1 0x1 SWAP1 SUB SWAP1 PUSH1 0x0 MSTORE PUSH1 0x20 PUSH1 0x0 KECCAK256 ADD PUSH1 0x0 SWAP1 SWAP2 SWAP1 SWAP2 SWAP1 SWAP2 PUSH2 0x100 EXP DUP2 SLOAD DUP2 PUSH20 0xFFFFFFFFFFFFFFFFFFFFFFFFFFFFFFFFFFFFFFFF MUL NOT AND SWAP1 DUP4 PUSH20 0xFFFFFFFFFFFFFFFFFFFFFFFFFFFFFFFFFFFFFFFF AND MUL OR SWAP1 SSTORE POP POP JUMP JUMPDEST PUSH1 0x0 DUP2 DUP2 SLOAD DUP2 LT PUSH2 0x14C JUMPI PUSH1 0x0 DUP1 REVERT JUMPDEST SWAP1 PUSH1 0x0 MSTORE PUSH1 0x20 PUSH1 0x0 KECCAK256 ADD PUSH1 0x0 SWAP2 POP SLOAD SWAP1 PUSH2 0x100 EXP SWAP1 DIV PUSH20 0xFFFFFFFFFFFFFFFFFFFFFFFFFFFFFFFFFFFFFFFF AND DUP2 JUMP JUMPDEST PUSH1 0x60 PUSH1 0x0 DUP1 SLOAD DUP1 PUSH1 0x20 MUL PUSH1 0x20 ADD PUSH1 0x40 MLOAD SWAP1 DUP2 ADD PUSH1 0x40 MSTORE DUP1 SWAP3 SWAP2 SWAP1 DUP2 DUP2 MSTORE PUSH1 0x20 ADD DUP3 DUP1 SLOAD DUP1 ISZERO PUSH2 0x1FF JUMPI PUSH1 0x20 MUL DUP3 ADD SWAP2 SWAP1 PUSH1 0x0 MSTORE PUSH1 0x20 PUSH1 0x0 KECCAK256 SWAP1 JUMPDEST DUP2 PUSH1 0x0 SWAP1 SLOAD SWAP1 PUSH2 0x100 EXP SWAP1 DIV PUSH20 0xFFFFFFFFFFFFFFFFFFFFFFFFFFFFFFFFFFFFFFFF AND PUSH20 0xFFFFFFFFFFFFFFFFFFFFFFFFFFFFFFFFFFFFFFFF AND DUP2 MSTORE PUSH1 0x20 ADD SWAP1 PUSH1 0x1 ADD SWAP1 DUP1 DUP4 GT PUSH2 0x1B5 JUMPI JUMPDEST POP POP POP POP POP SWAP1 POP SWAP1 JUMP JUMPDEST PUSH2 0x1BF6 DUP1 PUSH2 0x435 DUP4 CODECOPY ADD SWAP1 JUMP JUMPDEST PUSH1 0x0 DUP1 REVERT JUMPDEST PUSH1 0x0 DUP2 SWAP1 POP SWAP2 SWAP1 POP JUMP JUMPDEST PUSH2 0x22E DUP2 PUSH2 0x21B JUMP JUMPDEST DUP2 EQ PUSH2 0x239 JUMPI PUSH1 0x0 DUP1 REVERT JUMPDEST POP JUMP JUMPDEST PUSH1 0x0 DUP2 CALLDATALOAD SWAP1 POP PUSH2 0x24B DUP2 PUSH2 0x225 JUMP JUMPDEST SWAP3 SWAP2 POP POP JUMP JUMPDEST PUSH1 0x0 PUSH1 0x20 DUP3 DUP5 SUB SLT ISZERO PUSH2 0x267 JUMPI PUSH2 0x266 PUSH2 0x216 JUMP JUMPDEST JUMPDEST PUSH1 0x0 PUSH2 0x275 DUP5 DUP3 DUP6 ADD PUSH2 0x23C JUMP JUMPDEST SWAP2 POP POP SWAP3 SWAP2 POP POP JUMP JUMPDEST PUSH1 0x0 PUSH20 0xFFFFFFFFFFFFFFFFFFFFFFFFFFFFFFFFFFFFFFFF DUP3 AND SWAP1 POP SWAP2 SWAP1 POP JUMP JUMPDEST PUSH1 0x0 DUP2 SWAP1 POP SWAP2 SWAP1 POP JUMP JUMPDEST PUSH1 0x0 PUSH2 0x2C3 PUSH2 0x2BE PUSH2 0x2B9 DUP5 PUSH2 0x27E JUMP JUMPDEST PUSH2 0x29E JUMP JUMPDEST PUSH2 0x27E JUMP JUMPDEST SWAP1 POP SWAP2 SWAP1 POP JUMP JUMPDEST PUSH1 0x0 PUSH2 0x2D5 DUP3 PUSH2 0x2A8 JUMP JUMPDEST SWAP1 POP SWAP2 SWAP1 POP JUMP JUMPDEST PUSH1 0x0 PUSH2 0x2E7 DUP3 PUSH2 0x2CA JUMP JUMPDEST SWAP1 POP SWAP2 SWAP1 POP JUMP JUMPDEST PUSH2 0x2F7 DUP2 PUSH2 0x2DC JUMP JUMPDEST DUP3 MSTORE POP POP JUMP JUMPDEST PUSH1 0x0 PUSH1 0x20 DUP3 ADD SWAP1 POP PUSH2 0x312 PUSH1 0x0 DUP4 ADD DUP5 PUSH2 0x2EE JUMP JUMPDEST SWAP3 SWAP2 POP POP JUMP JUMPDEST PUSH1 0x0 DUP2 MLOAD SWAP1 POP SWAP2 SWAP1 POP JUMP JUMPDEST PUSH1 0x0 DUP3 DUP3 MSTORE PUSH1 0x20 DUP3 ADD SWAP1 POP SWAP3 SWAP2 POP POP JUMP JUMPDEST PUSH1 0x0 DUP2 SWAP1 POP PUSH1 0x20 DUP3 ADD SWAP1 POP SWAP2 SWAP1 POP JUMP JUMPDEST PUSH2 0x34D DUP2 PUSH2 0x2DC JUMP JUMPDEST DUP3 MSTORE POP POP JUMP JUMPDEST PUSH1 0x0 PUSH2 0x35F DUP4 DUP4 PUSH2 0x344 JUMP JUMPDEST PUSH1 0x20 DUP4 ADD SWAP1 POP SWAP3 SWAP2 POP POP JUMP JUMPDEST PUSH1 0x0 PUSH1 0x20 DUP3 ADD SWAP1 POP SWAP2 SWAP1 POP JUMP JUMPDEST PUSH1 0x0 PUSH2 0x383 DUP3 PUSH2 0x318 JUMP JUMPDEST PUSH2 0x38D DUP2 DUP6 PUSH2 0x323 JUMP JUMPDEST SWAP4 POP PUSH2 0x398 DUP4 PUSH2 0x334 JUMP JUMPDEST DUP1 PUSH1 0x0 JUMPDEST DUP4 DUP2 LT ISZERO PUSH2 0x3C9 JUMPI DUP2 MLOAD PUSH2 0x3B0 DUP9 DUP3 PUSH2 0x353 JUMP JUMPDEST SWAP8 POP PUSH2 0x3BB DUP4 PUSH2 0x36B JUMP JUMPDEST SWAP3 POP POP PUSH1 0x1 DUP2 ADD SWAP1 POP PUSH2 0x39C JUMP JUMPDEST POP DUP6 SWAP4 POP POP POP POP SWAP3 SWAP2 POP POP JUMP JUMPDEST PUSH1 0x0 PUSH1 0x20 DUP3 ADD SWAP1 POP DUP2 DUP2 SUB PUSH1 0x0 DUP4 ADD MSTORE PUSH2 0x3F0 DUP2 DUP5 PUSH2 0x378 JUMP JUMPDEST SWAP1 POP SWAP3 SWAP2 POP POP JUMP JUMPDEST PUSH1 0x0 PUSH2 0x403 DUP3 PUSH2 0x27E JUMP JUMPDEST SWAP1 POP SWAP2 SWAP1 POP JUMP JUMPDEST PUSH2 0x413 DUP2 PUSH2 0x3F8 JUMP JUMPDEST DUP3 MSTORE POP POP JUMP JUMPDEST PUSH1 0x0 PUSH1 0x20 DUP3 ADD SWAP1 POP PUSH2 0x42E PUSH1 0x0 DUP4 ADD DUP5 PUSH2 0x40A JUMP JUMPDEST SWAP3 SWAP2 POP POP JUMP INVALID PUSH1 0x80 PUSH1 0x40 MSTORE CALLVALUE DUP1 ISZERO PUSH3 0x11 JUMPI PUSH1 0x0 DUP1 REVERT JUMPDEST POP PUSH1 0x40 MLOAD PUSH3 0x1BF6 CODESIZE SUB DUP1 PUSH3 0x1BF6 DUP4 CODECOPY DUP2 DUP2 ADD PUSH1 0x40 MSTORE DUP2 ADD SWAP1 PUSH3 0x37 SWAP2 SWAP1 PUSH3 0xE8 JUMP JUMPDEST DUP1 PUSH1 0x0 DUP1 PUSH2 0x100 EXP DUP2 SLOAD DUP2 PUSH20 0xFFFFFFFFFFFFFFFFFFFFFFFFFFFFFFFFFFFFFFFF MUL NOT AND SWAP1 DUP4 PUSH20 0xFFFFFFFFFFFFFFFFFFFFFFFFFFFFFFFFFFFFFFFF AND MUL OR SWAP1 SSTORE POP POP PUSH3 0x11A JUMP JUMPDEST PUSH1 0x0 DUP1 REVERT JUMPDEST PUSH1 0x0 PUSH20 0xFFFFFFFFFFFFFFFFFFFFFFFFFFFFFFFFFFFFFFFF DUP3 AND SWAP1 POP SWAP2 SWAP1 POP JUMP JUMPDEST PUSH1 0x0 PUSH3 0xB0 DUP3 PUSH3 0x83 JUMP JUMPDEST SWAP1 POP SWAP2 SWAP1 POP JUMP JUMPDEST PUSH3 0xC2 DUP2 PUSH3 0xA3 JUMP JUMPDEST DUP2 EQ PUSH3 0xCE JUMPI PUSH1 0x0 DUP1 REVERT JUMPDEST POP JUMP JUMPDEST PUSH1 0x0 DUP2 MLOAD SWAP1 POP PUSH3 0xE2 DUP2 PUSH3 0xB7 JUMP JUMPDEST SWAP3 SWAP2 POP POP JUMP JUMPDEST PUSH1 0x0 PUSH1 0x20 DUP3 DUP5 SUB SLT ISZERO PUSH3 0x101 JUMPI PUSH3 0x100 PUSH3 0x7E JUMP JUMPDEST JUMPDEST PUSH1 0x0 PUSH3 0x111 DUP5 DUP3 DUP6 ADD PUSH3 0xD1 JUMP JUMPDEST SWAP2 POP POP SWAP3 SWAP2 POP POP JUMP JUMPDEST PUSH2 0x1ACC DUP1 PUSH3 0x12A PUSH1 0x0 CODECOPY PUSH1 0x0 RETURN INVALID PUSH1 0x80 PUSH1 0x40 MSTORE CALLVALUE DUP1 ISZERO PUSH2 0x10 JUMPI PUSH1 0x0 DUP1 REVERT JUMPDEST POP PUSH1 0x4 CALLDATASIZE LT PUSH2 0x7D JUMPI PUSH1 0x0 CALLDATALOAD PUSH1 0xE0 SHR DUP1 PUSH4 0x9E57716A GT PUSH2 0x5B JUMPI DUP1 PUSH4 0x9E57716A EQ PUSH2 0xEA JUMPI DUP1 PUSH4 0xAAA44E5C EQ PUSH2 0x11F JUMPI DUP1 PUSH4 0xBA5D3078 EQ PUSH2 0x13D JUMPI DUP1 PUSH4 0xCF254750 EQ PUSH2 0x15B JUMPI PUSH2 0x7D JUMP JUMPDEST DUP1 PUSH4 0x321E2665 EQ PUSH2 0x82 JUMPI DUP1 PUSH4 0x58955D32 EQ PUSH2 0x9E JUMPI DUP1 PUSH4 0x6F28C355 EQ PUSH2 0xBA JUMPI JUMPDEST PUSH1 0x0 DUP1 REVERT JUMPDEST PUSH2 0x9C PUSH1 0x4 DUP1 CALLDATASIZE SUB DUP2 ADD SWAP1 PUSH2 0x97 SWAP2 SWAP1 PUSH2 0x1025 JUMP JUMPDEST PUSH2 0x177 JUMP JUMPDEST STOP JUMPDEST PUSH2 0xB8 PUSH1 0x4 DUP1 CALLDATASIZE SUB DUP2 ADD SWAP1 PUSH2 0xB3 SWAP2 SWAP1 PUSH2 0x1275 JUMP JUMPDEST PUSH2 0x4BA JUMP JUMPDEST STOP JUMPDEST PUSH2 0xD4 PUSH1 0x4 DUP1 CALLDATASIZE SUB DUP2 ADD SWAP1 PUSH2 0xCF SWAP2 SWAP1 PUSH2 0x130B JUMP JUMPDEST PUSH2 0x631 JUMP JUMPDEST PUSH1 0x40 MLOAD PUSH2 0xE1 SWAP2 SWAP1 PUSH2 0x13C0 JUMP JUMPDEST PUSH1 0x40 MLOAD DUP1 SWAP2 SUB SWAP1 RETURN JUMPDEST PUSH2 0x104 PUSH1 0x4 DUP1 CALLDATASIZE SUB DUP2 ADD SWAP1 PUSH2 0xFF SWAP2 SWAP1 PUSH2 0x1497 JUMP JUMPDEST PUSH2 0x6DD JUMP JUMPDEST PUSH1 0x40 MLOAD PUSH2 0x116 SWAP7 SWAP6 SWAP5 SWAP4 SWAP3 SWAP2 SWAP1 PUSH2 0x1660 JUMP JUMPDEST PUSH1 0x40 MLOAD DUP1 SWAP2 SUB SWAP1 RETURN JUMPDEST PUSH2 0x127 PUSH2 0xA18 JUMP JUMPDEST PUSH1 0x40 MLOAD PUSH2 0x134 SWAP2 SWAP1 PUSH2 0x17EB JUMP JUMPDEST PUSH1 0x40 MLOAD DUP1 SWAP2 SUB SWAP1 RETURN JUMPDEST PUSH2 0x145 PUSH2 0xAF1 JUMP JUMPDEST PUSH1 0x40 MLOAD PUSH2 0x152 SWAP2 SWAP1 PUSH2 0x184E JUMP JUMPDEST PUSH1 0x40 MLOAD DUP1 SWAP2 SUB SWAP1 RETURN JUMPDEST PUSH2 0x175 PUSH1 0x4 DUP1 CALLDATASIZE SUB DUP2 ADD SWAP1 PUSH2 0x170 SWAP2 SWAP1 PUSH2 0x198B JUMP JUMPDEST PUSH2 0xB15 JUMP JUMPDEST STOP JUMPDEST PUSH1 0x0 DUP1 SLOAD SWAP1 PUSH2 0x100 EXP SWAP1 DIV PUSH20 0xFFFFFFFFFFFFFFFFFFFFFFFFFFFFFFFFFFFFFFFF AND PUSH20 0xFFFFFFFFFFFFFFFFFFFFFFFFFFFFFFFFFFFFFFFF AND CALLER PUSH20 0xFFFFFFFFFFFFFFFFFFFFFFFFFFFFFFFFFFFFFFFF AND EQ PUSH2 0x1CF JUMPI PUSH1 0x0 DUP1 REVERT JUMPDEST PUSH2 0x1D7 PUSH2 0xDAA JUMP JUMPDEST DUP9 DUP9 DUP1 DUP1 PUSH1 0x1F ADD PUSH1 0x20 DUP1 SWAP2 DIV MUL PUSH1 0x20 ADD PUSH1 0x40 MLOAD SWAP1 DUP2 ADD PUSH1 0x40 MSTORE DUP1 SWAP4 SWAP3 SWAP2 SWAP1 DUP2 DUP2 MSTORE PUSH1 0x20 ADD DUP4 DUP4 DUP1 DUP3 DUP5 CALLDATACOPY PUSH1 0x0 DUP2 DUP5 ADD MSTORE PUSH1 0x1F NOT PUSH1 0x1F DUP3 ADD AND SWAP1 POP DUP1 DUP4 ADD SWAP3 POP POP POP POP POP POP POP DUP2 PUSH1 0x0 ADD DUP2 SWAP1 MSTORE POP DUP7 DUP7 DUP1 DUP1 PUSH1 0x1F ADD PUSH1 0x20 DUP1 SWAP2 DIV MUL PUSH1 0x20 ADD PUSH1 0x40 MLOAD SWAP1 DUP2 ADD PUSH1 0x40 MSTORE DUP1 SWAP4 SWAP3 SWAP2 SWAP1 DUP2 DUP2 MSTORE PUSH1 0x20 ADD DUP4 DUP4 DUP1 DUP3 DUP5 CALLDATACOPY PUSH1 0x0 DUP2 DUP5 ADD MSTORE PUSH1 0x1F NOT PUSH1 0x1F DUP3 ADD AND SWAP1 POP DUP1 DUP4 ADD SWAP3 POP POP POP POP POP POP POP DUP2 PUSH1 0x20 ADD DUP2 SWAP1 MSTORE POP PUSH1 0x2 DUP8 DUP8 SWAP1 SWAP2 DUP1 PUSH1 0x1 DUP2 SLOAD ADD DUP1 DUP3 SSTORE DUP1 SWAP2 POP POP PUSH1 0x1 SWAP1 SUB SWAP1 PUSH1 0x0 MSTORE PUSH1 0x20 PUSH1 0x0 KECCAK256 ADD PUSH1 0x0 SWAP1 SWAP2 SWAP3 SWAP1 SWAP2 SWAP3 SWAP1 SWAP2 SWAP3 SWAP1 SWAP2 SWAP3 POP SWAP2 SWAP1 PUSH2 0x2AE SWAP3 SWAP2 SWAP1 PUSH2 0xDEC JUMP JUMPDEST POP DUP5 DUP5 DUP1 DUP1 PUSH1 0x1F ADD PUSH1 0x20 DUP1 SWAP2 DIV MUL PUSH1 0x20 ADD PUSH1 0x40 MLOAD SWAP1 DUP2 ADD PUSH1 0x40 MSTORE DUP1 SWAP4 SWAP3 SWAP2 SWAP1 DUP2 DUP2 MSTORE PUSH1 0x20 ADD DUP4 DUP4 DUP1 DUP3 DUP5 CALLDATACOPY PUSH1 0x0 DUP2 DUP5 ADD MSTORE PUSH1 0x1F NOT PUSH1 0x1F DUP3 ADD AND SWAP1 POP DUP1 DUP4 ADD SWAP3 POP POP POP POP POP POP POP DUP2 PUSH1 0x40 ADD DUP2 SWAP1 MSTORE POP DUP3 DUP3 DUP1 DUP1 PUSH1 0x1F ADD PUSH1 0x20 DUP1 SWAP2 DIV MUL PUSH1 0x20 ADD PUSH1 0x40 MLOAD SWAP1 DUP2 ADD PUSH1 0x40 MSTORE DUP1 SWAP4 SWAP3 SWAP2 SWAP1 DUP2 DUP2 MSTORE PUSH1 0x20 ADD DUP4 DUP4 DUP1 DUP3 DUP5 CALLDATACOPY PUSH1 0x0 DUP2 DUP5 ADD MSTORE PUSH1 0x1F NOT PUSH1 0x1F DUP3 ADD AND SWAP1 POP DUP1 DUP4 ADD SWAP3 POP POP POP POP POP POP POP DUP2 PUSH1 0x60 ADD DUP2 SWAP1 MSTORE POP DUP1 PUSH1 0x1 DUP9 DUP9 PUSH1 0x40 MLOAD PUSH2 0x35C SWAP3 SWAP2 SWAP1 PUSH2 0x1A1C JUMP JUMPDEST SWAP1 DUP2 MSTORE PUSH1 0x20 ADD PUSH1 0x40 MLOAD DUP1 SWAP2 SUB SWAP1 KECCAK256 PUSH1 0x0 DUP3 ADD MLOAD DUP2 PUSH1 0x0 ADD SWAP1 DUP1 MLOAD SWAP1 PUSH1 0x20 ADD SWAP1 PUSH2 0x386 SWAP3 SWAP2 SWAP1 PUSH2 0xE72 JUMP JUMPDEST POP PUSH1 0x20 DUP3 ADD MLOAD DUP2 PUSH1 0x1 ADD SWAP1 DUP1 MLOAD SWAP1 PUSH1 0x20 ADD SWAP1 PUSH2 0x3A3 SWAP3 SWAP2 SWAP1 PUSH2 0xE72 JUMP JUMPDEST POP PUSH1 0x40 DUP3 ADD MLOAD DUP2 PUSH1 0x2 ADD SWAP1 DUP1 MLOAD SWAP1 PUSH1 0x20 ADD SWAP1 PUSH2 0x3C0 SWAP3 SWAP2 SWAP1 PUSH2 0xE72 JUMP JUMPDEST POP PUSH1 0x60 DUP3 ADD MLOAD DUP2 PUSH1 0x3 ADD SWAP1 DUP1 MLOAD SWAP1 PUSH1 0x20 ADD SWAP1 PUSH2 0x3DD SWAP3 SWAP2 SWAP1 PUSH2 0xE72 JUMP JUMPDEST POP PUSH1 0x80 DUP3 ADD MLOAD DUP2 PUSH1 0x4 ADD PUSH1 0x0 DUP3 ADD MLOAD DUP2 PUSH1 0x0 ADD SSTORE PUSH1 0x20 DUP3 ADD MLOAD DUP2 PUSH1 0x1 ADD SSTORE PUSH1 0x40 DUP3 ADD MLOAD DUP2 PUSH1 0x2 ADD SSTORE PUSH1 0x60 DUP3 ADD MLOAD DUP2 PUSH1 0x3 ADD SSTORE PUSH1 0x80 DUP3 ADD MLOAD DUP2 PUSH1 0x4 ADD SSTORE PUSH1 0xA0 DUP3 ADD MLOAD DUP2 PUSH1 0x5 ADD SSTORE POP POP PUSH1 0xA0 DUP3 ADD MLOAD DUP2 PUSH1 0xA ADD PUSH1 0x0 DUP3 ADD MLOAD DUP2 PUSH1 0x0 ADD SSTORE PUSH1 0x20 DUP3 ADD MLOAD DUP2 PUSH1 0x1 ADD SSTORE PUSH1 0x40 DUP3 ADD MLOAD DUP2 PUSH1 0x2 ADD SSTORE PUSH1 0x60 DUP3 ADD MLOAD DUP2 PUSH1 0x3 ADD SSTORE PUSH1 0x80 DUP3 ADD MLOAD DUP2 PUSH1 0x4 ADD SSTORE PUSH1 0xA0 DUP3 ADD MLOAD DUP2 PUSH1 0x5 ADD SSTORE PUSH1 0xC0 DUP3 ADD MLOAD DUP2 PUSH1 0x6 ADD SSTORE PUSH1 0xE0 DUP3 ADD MLOAD DUP2 PUSH1 0x7 ADD SSTORE PUSH2 0x100 DUP3 ADD MLOAD DUP2 PUSH1 0x8 ADD SSTORE PUSH2 0x120 DUP3 ADD MLOAD DUP2 PUSH1 0x9 ADD SSTORE PUSH2 0x140 DUP3 ADD MLOAD DUP2 PUSH1 0xA ADD SSTORE PUSH2 0x160 DUP3 ADD MLOAD DUP2 PUSH1 0xB ADD SSTORE POP POP SWAP1 POP POP POP POP POP POP POP POP POP POP POP JUMP JUMPDEST PUSH1 0x0 DUP1 SLOAD SWAP1 PUSH2 0x100 EXP SWAP1 DIV PUSH20 0xFFFFFFFFFFFFFFFFFFFFFFFFFFFFFFFFFFFFFFFF AND PUSH20 0xFFFFFFFFFFFFFFFFFFFFFFFFFFFFFFFFFFFFFFFF AND CALLER PUSH20 0xFFFFFFFFFFFFFFFFFFFFFFFFFFFFFFFFFFFFFFFF AND EQ PUSH2 0x512 JUMPI PUSH1 0x0 DUP1 REVERT JUMPDEST DUP1 PUSH1 0x0 ADD MLOAD PUSH1 0x1 DUP5 DUP5 PUSH1 0x40 MLOAD PUSH2 0x529 SWAP3 SWAP2 SWAP1 PUSH2 0x1A1C JUMP JUMPDEST SWAP1 DUP2 MSTORE PUSH1 0x20 ADD PUSH1 0x40 MLOAD DUP1 SWAP2 SUB SWAP1 KECCAK256 PUSH1 0x4 ADD PUSH1 0x0 ADD DUP2 SWAP1 SSTORE POP DUP1 PUSH1 0x20 ADD MLOAD PUSH1 0x1 DUP5 DUP5 PUSH1 0x40 MLOAD PUSH2 0x558 SWAP3 SWAP2 SWAP1 PUSH2 0x1A1C JUMP JUMPDEST SWAP1 DUP2 MSTORE PUSH1 0x20 ADD PUSH1 0x40 MLOAD DUP1 SWAP2 SUB SWAP1 KECCAK256 PUSH1 0x4 ADD PUSH1 0x1 ADD DUP2 SWAP1 SSTORE POP DUP1 PUSH1 0x40 ADD MLOAD PUSH1 0x1 DUP5 DUP5 PUSH1 0x40 MLOAD PUSH2 0x587 SWAP3 SWAP2 SWAP1 PUSH2 0x1A1C JUMP JUMPDEST SWAP1 DUP2 MSTORE PUSH1 0x20 ADD PUSH1 0x40 MLOAD DUP1 SWAP2 SUB SWAP1 KECCAK256 PUSH1 0x4 ADD PUSH1 0x2 ADD DUP2 SWAP1 SSTORE POP DUP1 PUSH1 0x60 ADD MLOAD PUSH1 0x1 DUP5 DUP5 PUSH1 0x40 MLOAD PUSH2 0x5B6 SWAP3 SWAP2 SWAP1 PUSH2 0x1A1C JUMP JUMPDEST SWAP1 DUP2 MSTORE PUSH1 0x20 ADD PUSH1 0x40 MLOAD DUP1 SWAP2 SUB SWAP1 KECCAK256 PUSH1 0x4 ADD PUSH1 0x3 ADD DUP2 SWAP1 SSTORE POP DUP1 PUSH1 0x80 ADD MLOAD PUSH1 0x1 DUP5 DUP5 PUSH1 0x40 MLOAD PUSH2 0x5E5 SWAP3 SWAP2 SWAP1 PUSH2 0x1A1C JUMP JUMPDEST SWAP1 DUP2 MSTORE PUSH1 0x20 ADD PUSH1 0x40 MLOAD DUP1 SWAP2 SUB SWAP1 KECCAK256 PUSH1 0x4 ADD PUSH1 0x4 ADD DUP2 SWAP1 SSTORE POP DUP1 PUSH1 0xA0 ADD MLOAD PUSH1 0x1 DUP5 DUP5 PUSH1 0x40 MLOAD PUSH2 0x614 SWAP3 SWAP2 SWAP1 PUSH2 0x1A1C JUMP JUMPDEST SWAP1 DUP2 MSTORE PUSH1 0x20 ADD PUSH1 0x40 MLOAD DUP1 SWAP2 SUB SWAP1 KECCAK256 PUSH1 0x4 ADD PUSH1 0x5 ADD DUP2 SWAP1 SSTORE POP POP POP POP JUMP JUMPDEST PUSH1 0x2 DUP2 DUP2 SLOAD DUP2 LT PUSH2 0x641 JUMPI PUSH1 0x0 DUP1 REVERT JUMPDEST SWAP1 PUSH1 0x0 MSTORE PUSH1 0x20 PUSH1 0x0 KECCAK256 ADD PUSH1 0x0 SWAP2 POP SWAP1 POP DUP1 SLOAD PUSH2 0x65C SWAP1 PUSH2 0x1A64 JUMP JUMPDEST DUP1 PUSH1 0x1F ADD PUSH1 0x20 DUP1 SWAP2 DIV MUL PUSH1 0x20 ADD PUSH1 0x40 MLOAD SWAP1 DUP2 ADD PUSH1 0x40 MSTORE DUP1 SWAP3 SWAP2 SWAP1 DUP2 DUP2 MSTORE PUSH1 0x20 ADD DUP3 DUP1 SLOAD PUSH2 0x688 SWAP1 PUSH2 0x1A64 JUMP JUMPDEST DUP1 ISZERO PUSH2 0x6D5 JUMPI DUP1 PUSH1 0x1F LT PUSH2 0x6AA JUMPI PUSH2 0x100 DUP1 DUP4 SLOAD DIV MUL DUP4 MSTORE SWAP2 PUSH1 0x20 ADD SWAP2 PUSH2 0x6D5 JUMP JUMPDEST DUP3 ADD SWAP2 SWAP1 PUSH1 0x0 MSTORE PUSH1 0x20 PUSH1 0x0 KECCAK256 SWAP1 JUMPDEST DUP2 SLOAD DUP2 MSTORE SWAP1 PUSH1 0x1 ADD SWAP1 PUSH1 0x20 ADD DUP1 DUP4 GT PUSH2 0x6B8 JUMPI DUP3 SWAP1 SUB PUSH1 0x1F AND DUP3 ADD SWAP2 JUMPDEST POP POP POP POP POP DUP2 JUMP JUMPDEST PUSH1 0x1 DUP2 DUP1 MLOAD PUSH1 0x20 DUP2 ADD DUP3 ADD DUP1 MLOAD DUP5 DUP3 MSTORE PUSH1 0x20 DUP4 ADD PUSH1 0x20 DUP6 ADD KECCAK256 DUP2 DUP4 MSTORE DUP1 SWAP6 POP POP POP POP POP POP PUSH1 0x0 SWAP2 POP SWAP1 POP DUP1 PUSH1 0x0 ADD DUP1 SLOAD PUSH2 0x716 SWAP1 PUSH2 0x1A64 JUMP JUMPDEST DUP1 PUSH1 0x1F ADD PUSH1 0x20 DUP1 SWAP2 DIV MUL PUSH1 0x20 ADD PUSH1 0x40 MLOAD SWAP1 DUP2 ADD PUSH1 0x40 MSTORE DUP1 SWAP3 SWAP2 SWAP1 DUP2 DUP2 MSTORE PUSH1 0x20 ADD DUP3 DUP1 SLOAD PUSH2 0x742 SWAP1 PUSH2 0x1A64 JUMP JUMPDEST DUP1 ISZERO PUSH2 0x78F JUMPI DUP1 PUSH1 0x1F LT PUSH2 0x764 JUMPI PUSH2 0x100 DUP1 DUP4 SLOAD DIV MUL DUP4 MSTORE SWAP2 PUSH1 0x20 ADD SWAP2 PUSH2 0x78F JUMP JUMPDEST DUP3 ADD SWAP2 SWAP1 PUSH1 0x0 MSTORE PUSH1 0x20 PUSH1 0x0 KECCAK256 SWAP1 JUMPDEST DUP2 SLOAD DUP2 MSTORE SWAP1 PUSH1 0x1 ADD SWAP1 PUSH1 0x20 ADD DUP1 DUP4 GT PUSH2 0x772 JUMPI DUP3 SWAP1 SUB PUSH1 0x1F AND DUP3 ADD SWAP2 JUMPDEST POP POP POP POP POP SWAP1 DUP1 PUSH1 0x1 ADD DUP1 SLOAD PUSH2 0x7A4 SWAP1 PUSH2 0x1A64 JUMP JUMPDEST DUP1 PUSH1 0x1F ADD PUSH1 0x20 DUP1 SWAP2 DIV MUL PUSH1 0x20 ADD PUSH1 0x40 MLOAD SWAP1 DUP2 ADD PUSH1 0x40 MSTORE DUP1 SWAP3 SWAP2 SWAP1 DUP2 DUP2 MSTORE PUSH1 0x20 ADD DUP3 DUP1 SLOAD PUSH2 0x7D0 SWAP1 PUSH2 0x1A64 JUMP JUMPDEST DUP1 ISZERO PUSH2 0x81D JUMPI DUP1 PUSH1 0x1F LT PUSH2 0x7F2 JUMPI PUSH2 0x100 DUP1 DUP4 SLOAD DIV MUL DUP4 MSTORE SWAP2 PUSH1 0x20 ADD SWAP2 PUSH2 0x81D JUMP JUMPDEST DUP3 ADD SWAP2 SWAP1 PUSH1 0x0 MSTORE PUSH1 0x20 PUSH1 0x0 KECCAK256 SWAP1 JUMPDEST DUP2 SLOAD DUP2 MSTORE SWAP1 PUSH1 0x1 ADD SWAP1 PUSH1 0x20 ADD DUP1 DUP4 GT PUSH2 0x800 JUMPI DUP3 SWAP1 SUB PUSH1 0x1F AND DUP3 ADD SWAP2 JUMPDEST POP POP POP POP POP SWAP1 DUP1 PUSH1 0x2 ADD DUP1 SLOAD PUSH2 0x832 SWAP1 PUSH2 0x1A64 JUMP JUMPDEST DUP1 PUSH1 0x1F ADD PUSH1 0x20 DUP1 SWAP2 DIV MUL PUSH1 0x20 ADD PUSH1 0x40 MLOAD SWAP1 DUP2 ADD PUSH1 0x40 MSTORE DUP1 SWAP3 SWAP2 SWAP1 DUP2 DUP2 MSTORE PUSH1 0x20 ADD DUP3 DUP1 SLOAD PUSH2 0x85E SWAP1 PUSH2 0x1A64 JUMP JUMPDEST DUP1 ISZERO PUSH2 0x8AB JUMPI DUP1 PUSH1 0x1F LT PUSH2 0x880 JUMPI PUSH2 0x100 DUP1 DUP4 SLOAD DIV MUL DUP4 MSTORE SWAP2 PUSH1 0x20 ADD SWAP2 PUSH2 0x8AB JUMP JUMPDEST DUP3 ADD SWAP2 SWAP1 PUSH1 0x0 MSTORE PUSH1 0x20 PUSH1 0x0 KECCAK256 SWAP1 JUMPDEST DUP2 SLOAD DUP2 MSTORE SWAP1 PUSH1 0x1 ADD SWAP1 PUSH1 0x20 ADD DUP1 DUP4 GT PUSH2 0x88E JUMPI DUP3 SWAP1 SUB PUSH1 0x1F AND DUP3 ADD SWAP2 JUMPDEST POP POP POP POP POP SWAP1 DUP1 PUSH1 0x3 ADD DUP1 SLOAD PUSH2 0x8C0 SWAP1 PUSH2 0x1A64 JUMP JUMPDEST DUP1 PUSH1 0x1F ADD PUSH1 0x20 DUP1 SWAP2 DIV MUL PUSH1 0x20 ADD PUSH1 0x40 MLOAD SWAP1 DUP2 ADD PUSH1 0x40 MSTORE DUP1 SWAP3 SWAP2 SWAP1 DUP2 DUP2 MSTORE PUSH1 0x20 ADD DUP3 DUP1 SLOAD PUSH2 0x8EC SWAP1 PUSH2 0x1A64 JUMP JUMPDEST DUP1 ISZERO PUSH2 0x939 JUMPI DUP1 PUSH1 0x1F LT PUSH2 0x90E JUMPI PUSH2 0x100 DUP1 DUP4 SLOAD DIV MUL DUP4 MSTORE SWAP2 PUSH1 0x20 ADD SWAP2 PUSH2 0x939 JUMP JUMPDEST DUP3 ADD SWAP2 SWAP1 PUSH1 0x0 MSTORE PUSH1 0x20 PUSH1 0x0 KECCAK256 SWAP1 JUMPDEST DUP2 SLOAD DUP2 MSTORE SWAP1 PUSH1 0x1 ADD SWAP1 PUSH1 0x20 ADD DUP1 DUP4 GT PUSH2 0x91C JUMPI DUP3 SWAP1 SUB PUSH1 0x1F AND DUP3 ADD SWAP2 JUMPDEST POP POP POP POP POP SWAP1 DUP1 PUSH1 0x4 ADD PUSH1 0x40 MLOAD DUP1 PUSH1 0xC0 ADD PUSH1 0x40 MSTORE SWAP1 DUP2 PUSH1 0x0 DUP3 ADD SLOAD DUP2 MSTORE PUSH1 0x20 ADD PUSH1 0x1 DUP3 ADD SLOAD DUP2 MSTORE PUSH1 0x20 ADD PUSH1 0x2 DUP3 ADD SLOAD DUP2 MSTORE PUSH1 0x20 ADD PUSH1 0x3 DUP3 ADD SLOAD DUP2 MSTORE PUSH1 0x20 ADD PUSH1 0x4 DUP3 ADD SLOAD DUP2 MSTORE PUSH1 0x20 ADD PUSH1 0x5 DUP3 ADD SLOAD DUP2 MSTORE POP POP SWAP1 DUP1 PUSH1 0xA ADD PUSH1 0x40 MLOAD DUP1 PUSH2 0x180 ADD PUSH1 0x40 MSTORE SWAP1 DUP2 PUSH1 0x0 DUP3 ADD SLOAD DUP2 MSTORE PUSH1 0x20 ADD PUSH1 0x1 DUP3 ADD SLOAD DUP2 MSTORE PUSH1 0x20 ADD PUSH1 0x2 DUP3 ADD SLOAD DUP2 MSTORE PUSH1 0x20 ADD PUSH1 0x3 DUP3 ADD SLOAD DUP2 MSTORE PUSH1 0x20 ADD PUSH1 0x4 DUP3 ADD SLOAD DUP2 MSTORE PUSH1 0x20 ADD PUSH1 0x5 DUP3 ADD SLOAD DUP2 MSTORE PUSH1 0x20 ADD PUSH1 0x6 DUP3 ADD SLOAD DUP2 MSTORE PUSH1 0x20 ADD PUSH1 0x7 DUP3 ADD SLOAD DUP2 MSTORE PUSH1 0x20 ADD PUSH1 0x8 DUP3 ADD SLOAD DUP2 MSTORE PUSH1 0x20 ADD PUSH1 0x9 DUP3 ADD SLOAD DUP2 MSTORE PUSH1 0x20 ADD PUSH1 0xA DUP3 ADD SLOAD DUP2 MSTORE PUSH1 0x20 ADD PUSH1 0xB DUP3 ADD SLOAD DUP2 MSTORE POP POP SWAP1 POP DUP7 JUMP JUMPDEST PUSH1 0x60 PUSH1 0x2 DUP1 SLOAD DUP1 PUSH1 0x20 MUL PUSH1 0x20 ADD PUSH1 0x40 MLOAD SWAP1 DUP2 ADD PUSH1 0x40 MSTORE DUP1 SWAP3 SWAP2 SWAP1 DUP2 DUP2 MSTORE PUSH1 0x20 ADD PUSH1 0x0 SWAP1 JUMPDEST DUP3 DUP3 LT ISZERO PUSH2 0xAE8 JUMPI DUP4 DUP3 SWAP1 PUSH1 0x0 MSTORE PUSH1 0x20 PUSH1 0x0 KECCAK256 ADD DUP1 SLOAD PUSH2 0xA5B SWAP1 PUSH2 0x1A64 JUMP JUMPDEST DUP1 PUSH1 0x1F ADD PUSH1 0x20 DUP1 SWAP2 DIV MUL PUSH1 0x20 ADD PUSH1 0x40 MLOAD SWAP1 DUP2 ADD PUSH1 0x40 MSTORE DUP1 SWAP3 SWAP2 SWAP1 DUP2 DUP2 MSTORE PUSH1 0x20 ADD DUP3 DUP1 SLOAD PUSH2 0xA87 SWAP1 PUSH2 0x1A64 JUMP JUMPDEST DUP1 ISZERO PUSH2 0xAD4 JUMPI DUP1 PUSH1 0x1F LT PUSH2 0xAA9 JUMPI PUSH2 0x100 DUP1 DUP4 SLOAD DIV MUL DUP4 MSTORE SWAP2 PUSH1 0x20 ADD SWAP2 PUSH2 0xAD4 JUMP JUMPDEST DUP3 ADD SWAP2 SWAP1 PUSH1 0x0 MSTORE PUSH1 0x20 PUSH1 0x0 KECCAK256 SWAP1 JUMPDEST DUP2 SLOAD DUP2 MSTORE SWAP1 PUSH1 0x1 ADD SWAP1 PUSH1 0x20 ADD DUP1 DUP4 GT PUSH2 0xAB7 JUMPI DUP3 SWAP1 SUB PUSH1 0x1F AND DUP3 ADD SWAP2 JUMPDEST POP POP POP POP POP DUP2 MSTORE PUSH1 0x20 ADD SWAP1 PUSH1 0x1 ADD SWAP1 PUSH2 0xA3C JUMP JUMPDEST POP POP POP POP SWAP1 POP SWAP1 JUMP JUMPDEST PUSH1 0x0 DUP1 SLOAD SWAP1 PUSH2 0x100 EXP SWAP1 DIV PUSH20 0xFFFFFFFFFFFFFFFFFFFFFFFFFFFFFFFFFFFFFFFF AND DUP2 JUMP JUMPDEST PUSH1 0x0 DUP1 SLOAD SWAP1 PUSH2 0x100 EXP SWAP1 DIV PUSH20 0xFFFFFFFFFFFFFFFFFFFFFFFFFFFFFFFFFFFFFFFF AND PUSH20 0xFFFFFFFFFFFFFFFFFFFFFFFFFFFFFFFFFFFFFFFF AND CALLER PUSH20 0xFFFFFFFFFFFFFFFFFFFFFFFFFFFFFFFFFFFFFFFF AND EQ PUSH2 0xB6D JUMPI PUSH1 0x0 DUP1 REVERT JUMPDEST DUP1 PUSH1 0x0 ADD MLOAD PUSH1 0x1 DUP5 DUP5 PUSH1 0x40 MLOAD PUSH2 0xB84 SWAP3 SWAP2 SWAP1 PUSH2 0x1A1C JUMP JUMPDEST SWAP1 DUP2 MSTORE PUSH1 0x20 ADD PUSH1 0x40 MLOAD DUP1 SWAP2 SUB SWAP1 KECCAK256 PUSH1 0xA ADD PUSH1 0x0 ADD DUP2 SWAP1 SSTORE POP DUP1 PUSH1 0x20 ADD MLOAD PUSH1 0x1 DUP5 DUP5 PUSH1 0x40 MLOAD PUSH2 0xBB3 SWAP3 SWAP2 SWAP1 PUSH2 0x1A1C JUMP JUMPDEST SWAP1 DUP2 MSTORE PUSH1 0x20 ADD PUSH1 0x40 MLOAD DUP1 SWAP2 SUB SWAP1 KECCAK256 PUSH1 0xA ADD PUSH1 0x1 ADD DUP2 SWAP1 SSTORE POP DUP1 PUSH1 0x40 ADD MLOAD PUSH1 0x1 DUP5 DUP5 PUSH1 0x40 MLOAD PUSH2 0xBE2 SWAP3 SWAP2 SWAP1 PUSH2 0x1A1C JUMP JUMPDEST SWAP1 DUP2 MSTORE PUSH1 0x20 ADD PUSH1 0x40 MLOAD DUP1 SWAP2 SUB SWAP1 KECCAK256 PUSH1 0xA ADD PUSH1 0x2 ADD DUP2 SWAP1 SSTORE POP DUP1 PUSH1 0x60 ADD MLOAD PUSH1 0x1 DUP5 DUP5 PUSH1 0x40 MLOAD PUSH2 0xC11 SWAP3 SWAP2 SWAP1 PUSH2 0x1A1C JUMP JUMPDEST SWAP1 DUP2 MSTORE PUSH1 0x20 ADD PUSH1 0x40 MLOAD DUP1 SWAP2 SUB SWAP1 KECCAK256 PUSH1 0xA ADD PUSH1 0x3 ADD DUP2 SWAP1 SSTORE POP DUP1 PUSH1 0x80 ADD MLOAD PUSH1 0x1 DUP5 DUP5 PUSH1 0x40 MLOAD PUSH2 0xC40 SWAP3 SWAP2 SWAP1 PUSH2 0x1A1C JUMP JUMPDEST SWAP1 DUP2 MSTORE PUSH1 0x20 ADD PUSH1 0x40 MLOAD DUP1 SWAP2 SUB SWAP1 KECCAK256 PUSH1 0xA ADD PUSH1 0x4 ADD DUP2 SWAP1 SSTORE POP DUP1 PUSH1 0xA0 ADD MLOAD PUSH1 0x1 DUP5 DUP5 PUSH1 0x40 MLOAD PUSH2 0xC6F SWAP3 SWAP2 SWAP1 PUSH2 0x1A1C JUMP JUMPDEST SWAP1 DUP2 MSTORE PUSH1 0x20 ADD PUSH1 0x40 MLOAD DUP1 SWAP2 SUB SWAP1 KECCAK256 PUSH1 0xA ADD PUSH1 0x5 ADD DUP2 SWAP1 SSTORE POP DUP1 PUSH1 0xC0 ADD MLOAD PUSH1 0x1 DUP5 DUP5 PUSH1 0x40 MLOAD PUSH2 0xC9E SWAP3 SWAP2 SWAP1 PUSH2 0x1A1C JUMP JUMPDEST SWAP1 DUP2 MSTORE PUSH1 0x20 ADD PUSH1 0x40 MLOAD DUP1 SWAP2 SUB SWAP1 KECCAK256 PUSH1 0xA ADD PUSH1 0x6 ADD DUP2 SWAP1 SSTORE POP DUP1 PUSH1 0xE0 ADD MLOAD PUSH1 0x1 DUP5 DUP5 PUSH1 0x40 MLOAD PUSH2 0xCCD SWAP3 SWAP2 SWAP1 PUSH2 0x1A1C JUMP JUMPDEST SWAP1 DUP2 MSTORE PUSH1 0x20 ADD PUSH1 0x40 MLOAD DUP1 SWAP2 SUB SWAP1 KECCAK256 PUSH1 0xA ADD PUSH1 0x7 ADD DUP2 SWAP1 SSTORE POP DUP1 PUSH2 0x100 ADD MLOAD PUSH1 0x1 DUP5 DUP5 PUSH1 0x40 MLOAD PUSH2 0xCFD SWAP3 SWAP2 SWAP1 PUSH2 0x1A1C JUMP JUMPDEST SWAP1 DUP2 MSTORE PUSH1 0x20 ADD PUSH1 0x40 MLOAD DUP1 SWAP2 SUB SWAP1 KECCAK256 PUSH1 0xA ADD PUSH1 0x8 ADD DUP2 SWAP1 SSTORE POP DUP1 PUSH2 0x120 ADD MLOAD PUSH1 0x1 DUP5 DUP5 PUSH1 0x40 MLOAD PUSH2 0xD2D SWAP3 SWAP2 SWAP1 PUSH2 0x1A1C JUMP JUMPDEST SWAP1 DUP2 MSTORE PUSH1 0x20 ADD PUSH1 0x40 MLOAD DUP1 SWAP2 SUB SWAP1 KECCAK256 PUSH1 0xA ADD PUSH1 0x9 ADD DUP2 SWAP1 SSTORE POP DUP1 PUSH2 0x140 ADD MLOAD PUSH1 0x1 DUP5 DUP5 PUSH1 0x40 MLOAD PUSH2 0xD5D SWAP3 SWAP2 SWAP1 PUSH2 0x1A1C JUMP JUMPDEST SWAP1 DUP2 MSTORE PUSH1 0x20 ADD PUSH1 0x40 MLOAD DUP1 SWAP2 SUB SWAP1 KECCAK256 PUSH1 0xA ADD PUSH1 0xA ADD DUP2 SWAP1 SSTORE POP DUP1 PUSH2 0x160 ADD MLOAD PUSH1 0x1 DUP5 DUP5 PUSH1 0x40 MLOAD PUSH2 0xD8D SWAP3 SWAP2 SWAP1 PUSH2 0x1A1C JUMP JUMPDEST SWAP1 DUP2 MSTORE PUSH1 0x20 ADD PUSH1 0x40 MLOAD DUP1 SWAP2 SUB SWAP1 KECCAK256 PUSH1 0xA ADD PUSH1 0xB ADD DUP2 SWAP1 SSTORE POP POP POP POP JUMP JUMPDEST PUSH1 0x40 MLOAD DUP1 PUSH1 0xC0 ADD PUSH1 0x40 MSTORE DUP1 PUSH1 0x60 DUP2 MSTORE PUSH1 0x20 ADD PUSH1 0x60 DUP2 MSTORE PUSH1 0x20 ADD PUSH1 0x60 DUP2 MSTORE PUSH1 0x20 ADD PUSH1 0x60 DUP2 MSTORE PUSH1 0x20 ADD PUSH2 0xDD9 PUSH2 0xEF8 JUMP JUMPDEST DUP2 MSTORE PUSH1 0x20 ADD PUSH2 0xDE6 PUSH2 0xF2E JUMP JUMPDEST DUP2 MSTORE POP SWAP1 JUMP JUMPDEST DUP3 DUP1 SLOAD PUSH2 0xDF8 SWAP1 PUSH2 0x1A64 JUMP JUMPDEST SWAP1 PUSH1 0x0 MSTORE PUSH1 0x20 PUSH1 0x0 KECCAK256 SWAP1 PUSH1 0x1F ADD PUSH1 0x20 SWAP1 DIV DUP2 ADD SWAP3 DUP3 PUSH2 0xE1A JUMPI PUSH1 0x0 DUP6 SSTORE PUSH2 0xE61 JUMP JUMPDEST DUP3 PUSH1 0x1F LT PUSH2 0xE33 JUMPI DUP1 CALLDATALOAD PUSH1 0xFF NOT AND DUP4 DUP1 ADD OR DUP6 SSTORE PUSH2 0xE61 JUMP JUMPDEST DUP3 DUP1 ADD PUSH1 0x1 ADD DUP6 SSTORE DUP3 ISZERO PUSH2 0xE61 JUMPI SWAP2 DUP3 ADD JUMPDEST DUP3 DUP2 GT ISZERO PUSH2 0xE60 JUMPI DUP3 CALLDATALOAD DUP3 SSTORE SWAP2 PUSH1 0x20 ADD SWAP2 SWAP1 PUSH1 0x1 ADD SWAP1 PUSH2 0xE45 JUMP JUMPDEST JUMPDEST POP SWAP1 POP PUSH2 0xE6E SWAP2 SWAP1 PUSH2 0xF8F JUMP JUMPDEST POP SWAP1 JUMP JUMPDEST DUP3 DUP1 SLOAD PUSH2 0xE7E SWAP1 PUSH2 0x1A64 JUMP JUMPDEST SWAP1 PUSH1 0x0 MSTORE PUSH1 0x20 PUSH1 0x0 KECCAK256 SWAP1 PUSH1 0x1F ADD PUSH1 0x20 SWAP1 DIV DUP2 ADD SWAP3 DUP3 PUSH2 0xEA0 JUMPI PUSH1 0x0 DUP6 SSTORE PUSH2 0xEE7 JUMP JUMPDEST DUP3 PUSH1 0x1F LT PUSH2 0xEB9 JUMPI DUP1 MLOAD PUSH1 0xFF NOT AND DUP4 DUP1 ADD OR DUP6 SSTORE PUSH2 0xEE7 JUMP JUMPDEST DUP3 DUP1 ADD PUSH1 0x1 ADD DUP6 SSTORE DUP3 ISZERO PUSH2 0xEE7 JUMPI SWAP2 DUP3 ADD JUMPDEST DUP3 DUP2 GT ISZERO PUSH2 0xEE6 JUMPI DUP3 MLOAD DUP3 SSTORE SWAP2 PUSH1 0x20 ADD SWAP2 SWAP1 PUSH1 0x1 ADD SWAP1 PUSH2 0xECB JUMP JUMPDEST JUMPDEST POP SWAP1 POP PUSH2 0xEF4 SWAP2 SWAP1 PUSH2 0xF8F JUMP JUMPDEST POP SWAP1 JUMP JUMPDEST PUSH1 0x40 MLOAD DUP1 PUSH1 0xC0 ADD PUSH1 0x40 MSTORE DUP1 PUSH1 0x0 DUP2 MSTORE PUSH1 0x20 ADD PUSH1 0x0 DUP2 MSTORE PUSH1 0x20 ADD PUSH1 0x0 DUP2 MSTORE PUSH1 0x20 ADD PUSH1 0x0 DUP2 MSTORE PUSH1 0x20 ADD PUSH1 0x0 DUP2 MSTORE PUSH1 0x20 ADD PUSH1 0x0 DUP2 MSTORE POP SWAP1 JUMP JUMPDEST PUSH1 0x40 MLOAD DUP1 PUSH2 0x180 ADD PUSH1 0x40 MSTORE DUP1 PUSH1 0x0 DUP2 MSTORE PUSH1 0x20 ADD PUSH1 0x0 DUP2 MSTORE PUSH1 0x20 ADD PUSH1 0x0 DUP2 MSTORE PUSH1 0x20 ADD PUSH1 0x0 DUP2 MSTORE PUSH1 0x20 ADD PUSH1 0x0 DUP2 MSTORE PUSH1 0x20 ADD PUSH1 0x0 DUP2 MSTORE PUSH1 0x20 ADD PUSH1 0x0 DUP2 MSTORE PUSH1 0x20 ADD PUSH1 0x0 DUP2 MSTORE PUSH1 0x20 ADD PUSH1 0x0 DUP2 MSTORE PUSH1 0x20 ADD PUSH1 0x0 DUP2 MSTORE PUSH1 0x20 ADD PUSH1 0x0 DUP2 MSTORE PUSH1 0x20 ADD PUSH1 0x0 DUP2 MSTORE POP SWAP1 JUMP JUMPDEST JUMPDEST DUP1 DUP3 GT ISZERO PUSH2 0xFA8 JUMPI PUSH1 0x0 DUP2 PUSH1 0x0 SWAP1 SSTORE POP PUSH1 0x1 ADD PUSH2 0xF90 JUMP JUMPDEST POP SWAP1 JUMP JUMPDEST PUSH1 0x0 PUSH1 0x40 MLOAD SWAP1 POP SWAP1 JUMP JUMPDEST PUSH1 0x0 DUP1 REVERT JUMPDEST PUSH1 0x0 DUP1 REVERT JUMPDEST PUSH1 0x0 DUP1 REVERT JUMPDEST PUSH1 0x0 DUP1 REVERT JUMPDEST PUSH1 0x0 DUP1 REVERT JUMPDEST PUSH1 0x0 DUP1 DUP4 PUSH1 0x1F DUP5 ADD SLT PUSH2 0xFE5 JUMPI PUSH2 0xFE4 PUSH2 0xFC0 JUMP JUMPDEST JUMPDEST DUP3 CALLDATALOAD SWAP1 POP PUSH8 0xFFFFFFFFFFFFFFFF DUP2 GT ISZERO PUSH2 0x1002 JUMPI PUSH2 0x1001 PUSH2 0xFC5 JUMP JUMPDEST JUMPDEST PUSH1 0x20 DUP4 ADD SWAP2 POP DUP4 PUSH1 0x1 DUP3 MUL DUP4 ADD GT ISZERO PUSH2 0x101E JUMPI PUSH2 0x101D PUSH2 0xFCA JUMP JUMPDEST JUMPDEST SWAP3 POP SWAP3 SWAP1 POP JUMP JUMPDEST PUSH1 0x0 DUP1 PUSH1 0x0 DUP1 PUSH1 0x0 DUP1 PUSH1 0x0 DUP1 PUSH1 0x80 DUP10 DUP12 SUB SLT ISZERO PUSH2 0x1045 JUMPI PUSH2 0x1044 PUSH2 0xFB6 JUMP JUMPDEST JUMPDEST PUSH1 0x0 DUP10 ADD CALLDATALOAD PUSH8 0xFFFFFFFFFFFFFFFF DUP2 GT ISZERO PUSH2 0x1063 JUMPI PUSH2 0x1062 PUSH2 0xFBB JUMP JUMPDEST JUMPDEST PUSH2 0x106F DUP12 DUP3 DUP13 ADD PUSH2 0xFCF JUMP JUMPDEST SWAP9 POP SWAP9 POP POP PUSH1 0x20 DUP10 ADD CALLDATALOAD PUSH8 0xFFFFFFFFFFFFFFFF DUP2 GT ISZERO PUSH2 0x1092 JUMPI PUSH2 0x1091 PUSH2 0xFBB JUMP JUMPDEST JUMPDEST PUSH2 0x109E DUP12 DUP3 DUP13 ADD PUSH2 0xFCF JUMP JUMPDEST SWAP7 POP SWAP7 POP POP PUSH1 0x40 DUP10 ADD CALLDATALOAD PUSH8 0xFFFFFFFFFFFFFFFF DUP2 GT ISZERO PUSH2 0x10C1 JUMPI PUSH2 0x10C0 PUSH2 0xFBB JUMP JUMPDEST JUMPDEST PUSH2 0x10CD DUP12 DUP3 DUP13 ADD PUSH2 0xFCF JUMP JUMPDEST SWAP5 POP SWAP5 POP POP PUSH1 0x60 DUP10 ADD CALLDATALOAD PUSH8 0xFFFFFFFFFFFFFFFF DUP2 GT ISZERO PUSH2 0x10F0 JUMPI PUSH2 0x10EF PUSH2 0xFBB JUMP JUMPDEST JUMPDEST PUSH2 0x10FC DUP12 DUP3 DUP13 ADD PUSH2 0xFCF JUMP JUMPDEST SWAP3 POP SWAP3 POP POP SWAP3 SWAP6 SWAP9 POP SWAP3 SWAP6 SWAP9 SWAP1 SWAP4 SWAP7 POP JUMP JUMPDEST PUSH1 0x0 DUP1 REVERT JUMPDEST PUSH1 0x0 PUSH1 0x1F NOT PUSH1 0x1F DUP4 ADD AND SWAP1 POP SWAP2 SWAP1 POP JUMP JUMPDEST PUSH32 0x4E487B7100000000000000000000000000000000000000000000000000000000 PUSH1 0x0 MSTORE PUSH1 0x41 PUSH1 0x4 MSTORE PUSH1 0x24 PUSH1 0x0 REVERT JUMPDEST PUSH2 0x115C DUP3 PUSH2 0x1113 JUMP JUMPDEST DUP2 ADD DUP2 DUP2 LT PUSH8 0xFFFFFFFFFFFFFFFF DUP3 GT OR ISZERO PUSH2 0x117B JUMPI PUSH2 0x117A PUSH2 0x1124 JUMP JUMPDEST JUMPDEST DUP1 PUSH1 0x40 MSTORE POP POP POP JUMP JUMPDEST PUSH1 0x0 PUSH2 0x118E PUSH2 0xFAC JUMP JUMPDEST SWAP1 POP PUSH2 0x119A DUP3 DUP3 PUSH2 0x1153 JUMP JUMPDEST SWAP2 SWAP1 POP JUMP JUMPDEST PUSH1 0x0 DUP2 SWAP1 POP SWAP2 SWAP1 POP JUMP JUMPDEST PUSH2 0x11B2 DUP2 PUSH2 0x119F JUMP JUMPDEST DUP2 EQ PUSH2 0x11BD JUMPI PUSH1 0x0 DUP1 REVERT JUMPDEST POP JUMP JUMPDEST PUSH1 0x0 DUP2 CALLDATALOAD SWAP1 POP PUSH2 0x11CF DUP2 PUSH2 0x11A9 JUMP JUMPDEST SWAP3 SWAP2 POP POP JUMP JUMPDEST PUSH1 0x0 PUSH1 0xC0 DUP3 DUP5 SUB SLT ISZERO PUSH2 0x11EB JUMPI PUSH2 0x11EA PUSH2 0x110E JUMP JUMPDEST JUMPDEST PUSH2 0x11F5 PUSH1 0xC0 PUSH2 0x1184 JUMP JUMPDEST SWAP1 POP PUSH1 0x0 PUSH2 0x1205 DUP5 DUP3 DUP6 ADD PUSH2 0x11C0 JUMP JUMPDEST PUSH1 0x0 DUP4 ADD MSTORE POP PUSH1 0x20 PUSH2 0x1219 DUP5 DUP3 DUP6 ADD PUSH2 0x11C0 JUMP JUMPDEST PUSH1 0x20 DUP4 ADD MSTORE POP PUSH1 0x40 PUSH2 0x122D DUP5 DUP3 DUP6 ADD PUSH2 0x11C0 JUMP JUMPDEST PUSH1 0x40 DUP4 ADD MSTORE POP PUSH1 0x60 PUSH2 0x1241 DUP5 DUP3 DUP6 ADD PUSH2 0x11C0 JUMP JUMPDEST PUSH1 0x60 DUP4 ADD MSTORE POP PUSH1 0x80 PUSH2 0x1255 DUP5 DUP3 DUP6 ADD PUSH2 0x11C0 JUMP JUMPDEST PUSH1 0x80 DUP4 ADD MSTORE POP PUSH1 0xA0 PUSH2 0x1269 DUP5 DUP3 DUP6 ADD PUSH2 0x11C0 JUMP JUMPDEST PUSH1 0xA0 DUP4 ADD MSTORE POP SWAP3 SWAP2 POP POP JUMP JUMPDEST PUSH1 0x0 DUP1 PUSH1 0x0 PUSH1 0xE0 DUP5 DUP7 SUB SLT ISZERO PUSH2 0x128E JUMPI PUSH2 0x128D PUSH2 0xFB6 JUMP JUMPDEST JUMPDEST PUSH1 0x0 DUP5 ADD CALLDATALOAD PUSH8 0xFFFFFFFFFFFFFFFF DUP2 GT ISZERO PUSH2 0x12AC JUMPI PUSH2 0x12AB PUSH2 0xFBB JUMP JUMPDEST JUMPDEST PUSH2 0x12B8 DUP7 DUP3 DUP8 ADD PUSH2 0xFCF JUMP JUMPDEST SWAP4 POP SWAP4 POP POP PUSH1 0x20 PUSH2 0x12CB DUP7 DUP3 DUP8 ADD PUSH2 0x11D5 JUMP JUMPDEST SWAP2 POP POP SWAP3 POP SWAP3 POP SWAP3 JUMP JUMPDEST PUSH1 0x0 DUP2 SWAP1 POP SWAP2 SWAP1 POP JUMP JUMPDEST PUSH2 0x12E8 DUP2 PUSH2 0x12D5 JUMP JUMPDEST DUP2 EQ PUSH2 0x12F3 JUMPI PUSH1 0x0 DUP1 REVERT JUMPDEST POP JUMP JUMPDEST PUSH1 0x0 DUP2 CALLDATALOAD SWAP1 POP PUSH2 0x1305 DUP2 PUSH2 0x12DF JUMP JUMPDEST SWAP3 SWAP2 POP POP JUMP JUMPDEST PUSH1 0x0 PUSH1 0x20 DUP3 DUP5 SUB SLT ISZERO PUSH2 0x1321 JUMPI PUSH2 0x1320 PUSH2 0xFB6 JUMP JUMPDEST JUMPDEST PUSH1 0x0 PUSH2 0x132F DUP5 DUP3 DUP6 ADD PUSH2 0x12F6 JUMP JUMPDEST SWAP2 POP POP SWAP3 SWAP2 POP POP JUMP JUMPDEST PUSH1 0x0 DUP2 MLOAD SWAP1 POP SWAP2 SWAP1 POP JUMP JUMPDEST PUSH1 0x0 DUP3 DUP3 MSTORE PUSH1 0x20 DUP3 ADD SWAP1 POP SWAP3 SWAP2 POP POP JUMP JUMPDEST PUSH1 0x0 JUMPDEST DUP4 DUP2 LT ISZERO PUSH2 0x1372 JUMPI DUP1 DUP3 ADD MLOAD DUP2 DUP5 ADD MSTORE PUSH1 0x20 DUP2 ADD SWAP1 POP PUSH2 0x1357 JUMP JUMPDEST DUP4 DUP2 GT ISZERO PUSH2 0x1381 JUMPI PUSH1 0x0 DUP5 DUP5 ADD MSTORE JUMPDEST POP POP POP POP JUMP JUMPDEST PUSH1 0x0 PUSH2 0x1392 DUP3 PUSH2 0x1338 JUMP JUMPDEST PUSH2 0x139C DUP2 DUP6 PUSH2 0x1343 JUMP JUMPDEST SWAP4 POP PUSH2 0x13AC DUP2 DUP6 PUSH1 0x20 DUP7 ADD PUSH2 0x1354 JUMP JUMPDEST PUSH2 0x13B5 DUP2 PUSH2 0x1113 JUMP JUMPDEST DUP5 ADD SWAP2 POP POP SWAP3 SWAP2 POP POP JUMP JUMPDEST PUSH1 0x0 PUSH1 0x20 DUP3 ADD SWAP1 POP DUP2 DUP2 SUB PUSH1 0x0 DUP4 ADD MSTORE PUSH2 0x13DA DUP2 DUP5 PUSH2 0x1387 JUMP JUMPDEST SWAP1 POP SWAP3 SWAP2 POP POP JUMP JUMPDEST PUSH1 0x0 DUP1 REVERT JUMPDEST PUSH1 0x0 PUSH8 0xFFFFFFFFFFFFFFFF DUP3 GT ISZERO PUSH2 0x1402 JUMPI PUSH2 0x1401 PUSH2 0x1124 JUMP JUMPDEST JUMPDEST PUSH2 0x140B DUP3 PUSH2 0x1113 JUMP JUMPDEST SWAP1 POP PUSH1 0x20 DUP2 ADD SWAP1 POP SWAP2 SWAP1 POP JUMP JUMPDEST DUP3 DUP2 DUP4 CALLDATACOPY PUSH1 0x0 DUP4 DUP4 ADD MSTORE POP POP POP JUMP JUMPDEST PUSH1 0x0 PUSH2 0x143A PUSH2 0x1435 DUP5 PUSH2 0x13E7 JUMP JUMPDEST PUSH2 0x1184 JUMP JUMPDEST SWAP1 POP DUP3 DUP2 MSTORE PUSH1 0x20 DUP2 ADD DUP5 DUP5 DUP5 ADD GT ISZERO PUSH2 0x1456 JUMPI PUSH2 0x1455 PUSH2 0x13E2 JUMP JUMPDEST JUMPDEST PUSH2 0x1461 DUP5 DUP3 DUP6 PUSH2 0x1418 JUMP JUMPDEST POP SWAP4 SWAP3 POP POP POP JUMP JUMPDEST PUSH1 0x0 DUP3 PUSH1 0x1F DUP4 ADD SLT PUSH2 0x147E JUMPI PUSH2 0x147D PUSH2 0xFC0 JUMP JUMPDEST JUMPDEST DUP2 CALLDATALOAD PUSH2 0x148E DUP5 DUP3 PUSH1 0x20 DUP7 ADD PUSH2 0x1427 JUMP JUMPDEST SWAP2 POP POP SWAP3 SWAP2 POP POP JUMP JUMPDEST PUSH1 0x0 PUSH1 0x20 DUP3 DUP5 SUB SLT ISZERO PUSH2 0x14AD JUMPI PUSH2 0x14AC PUSH2 0xFB6 JUMP JUMPDEST JUMPDEST PUSH1 0x0 DUP3 ADD CALLDATALOAD PUSH8 0xFFFFFFFFFFFFFFFF DUP2 GT ISZERO PUSH2 0x14CB JUMPI PUSH2 0x14CA PUSH2 0xFBB JUMP JUMPDEST JUMPDEST PUSH2 0x14D7 DUP5 DUP3 DUP6 ADD PUSH2 0x1469 JUMP JUMPDEST SWAP2 POP POP SWAP3 SWAP2 POP POP JUMP JUMPDEST PUSH2 0x14E9 DUP2 PUSH2 0x119F JUMP JUMPDEST DUP3 MSTORE POP POP JUMP JUMPDEST PUSH1 0xC0 DUP3 ADD PUSH1 0x0 DUP3 ADD MLOAD PUSH2 0x1505 PUSH1 0x0 DUP6 ADD DUP3 PUSH2 0x14E0 JUMP JUMPDEST POP PUSH1 0x20 DUP3 ADD MLOAD PUSH2 0x1518 PUSH1 0x20 DUP6 ADD DUP3 PUSH2 0x14E0 JUMP JUMPDEST POP PUSH1 0x40 DUP3 ADD MLOAD PUSH2 0x152B PUSH1 0x40 DUP6 ADD DUP3 PUSH2 0x14E0 JUMP JUMPDEST POP PUSH1 0x60 DUP3 ADD MLOAD PUSH2 0x153E PUSH1 0x60 DUP6 ADD DUP3 PUSH2 0x14E0 JUMP JUMPDEST POP PUSH1 0x80 DUP3 ADD MLOAD PUSH2 0x1551 PUSH1 0x80 DUP6 ADD DUP3 PUSH2 0x14E0 JUMP JUMPDEST POP PUSH1 0xA0 DUP3 ADD MLOAD PUSH2 0x1564 PUSH1 0xA0 DUP6 ADD DUP3 PUSH2 0x14E0 JUMP JUMPDEST POP POP POP POP JUMP JUMPDEST PUSH2 0x180 DUP3 ADD PUSH1 0x0 DUP3 ADD MLOAD PUSH2 0x1581 PUSH1 0x0 DUP6 ADD DUP3 PUSH2 0x14E0 JUMP JUMPDEST POP PUSH1 0x20 DUP3 ADD MLOAD PUSH2 0x1594 PUSH1 0x20 DUP6 ADD DUP3 PUSH2 0x14E0 JUMP JUMPDEST POP PUSH1 0x40 DUP3 ADD MLOAD PUSH2 0x15A7 PUSH1 0x40 DUP6 ADD DUP3 PUSH2 0x14E0 JUMP JUMPDEST POP PUSH1 0x60 DUP3 ADD MLOAD PUSH2 0x15BA PUSH1 0x60 DUP6 ADD DUP3 PUSH2 0x14E0 JUMP JUMPDEST POP PUSH1 0x80 DUP3 ADD MLOAD PUSH2 0x15CD PUSH1 0x80 DUP6 ADD DUP3 PUSH2 0x14E0 JUMP JUMPDEST POP PUSH1 0xA0 DUP3 ADD MLOAD PUSH2 0x15E0 PUSH1 0xA0 DUP6 ADD DUP3 PUSH2 0x14E0 JUMP JUMPDEST POP PUSH1 0xC0 DUP3 ADD MLOAD PUSH2 0x15F3 PUSH1 0xC0 DUP6 ADD DUP3 PUSH2 0x14E0 JUMP JUMPDEST POP PUSH1 0xE0 DUP3 ADD MLOAD PUSH2 0x1606 PUSH1 0xE0 DUP6 ADD DUP3 PUSH2 0x14E0 JUMP JUMPDEST POP PUSH2 0x100 DUP3 ADD MLOAD PUSH2 0x161B PUSH2 0x100 DUP6 ADD DUP3 PUSH2 0x14E0 JUMP JUMPDEST POP PUSH2 0x120 DUP3 ADD MLOAD PUSH2 0x1630 PUSH2 0x120 DUP6 ADD DUP3 PUSH2 0x14E0 JUMP JUMPDEST POP PUSH2 0x140 DUP3 ADD MLOAD PUSH2 0x1645 PUSH2 0x140 DUP6 ADD DUP3 PUSH2 0x14E0 JUMP JUMPDEST POP PUSH2 0x160 DUP3 ADD MLOAD PUSH2 0x165A PUSH2 0x160 DUP6 ADD DUP3 PUSH2 0x14E0 JUMP JUMPDEST POP POP POP POP JUMP JUMPDEST PUSH1 0x0 PUSH2 0x2C0 DUP3 ADD SWAP1 POP DUP2 DUP2 SUB PUSH1 0x0 DUP4 ADD MSTORE PUSH2 0x167B DUP2 DUP10 PUSH2 0x1387 JUMP JUMPDEST SWAP1 POP DUP2 DUP2 SUB PUSH1 0x20 DUP4 ADD MSTORE PUSH2 0x168F DUP2 DUP9 PUSH2 0x1387 JUMP JUMPDEST SWAP1 POP DUP2 DUP2 SUB PUSH1 0x40 DUP4 ADD MSTORE PUSH2 0x16A3 DUP2 DUP8 PUSH2 0x1387 JUMP JUMPDEST SWAP1 POP DUP2 DUP2 SUB PUSH1 0x60 DUP4 ADD MSTORE PUSH2 0x16B7 DUP2 DUP7 PUSH2 0x1387 JUMP JUMPDEST SWAP1 POP PUSH2 0x16C6 PUSH1 0x80 DUP4 ADD DUP6 PUSH2 0x14EF JUMP JUMPDEST PUSH2 0x16D4 PUSH2 0x140 DUP4 ADD DUP5 PUSH2 0x156A JUMP JUMPDEST SWAP8 SWAP7 POP POP POP POP POP POP POP JUMP JUMPDEST PUSH1 0x0 DUP2 MLOAD SWAP1 POP SWAP2 SWAP1 POP JUMP JUMPDEST PUSH1 0x0 DUP3 DUP3 MSTORE PUSH1 0x20 DUP3 ADD SWAP1 POP SWAP3 SWAP2 POP POP JUMP JUMPDEST PUSH1 0x0 DUP2 SWAP1 POP PUSH1 0x20 DUP3 ADD SWAP1 POP SWAP2 SWAP1 POP JUMP JUMPDEST PUSH1 0x0 DUP3 DUP3 MSTORE PUSH1 0x20 DUP3 ADD SWAP1 POP SWAP3 SWAP2 POP POP JUMP JUMPDEST PUSH1 0x0 PUSH2 0x1727 DUP3 PUSH2 0x1338 JUMP JUMPDEST PUSH2 0x1731 DUP2 DUP6 PUSH2 0x170B JUMP JUMPDEST SWAP4 POP PUSH2 0x1741 DUP2 DUP6 PUSH1 0x20 DUP7 ADD PUSH2 0x1354 JUMP JUMPDEST PUSH2 0x174A DUP2 PUSH2 0x1113 JUMP JUMPDEST DUP5 ADD SWAP2 POP POP SWAP3 SWAP2 POP POP JUMP JUMPDEST PUSH1 0x0 PUSH2 0x1761 DUP4 DUP4 PUSH2 0x171C JUMP JUMPDEST SWAP1 POP SWAP3 SWAP2 POP POP JUMP JUMPDEST PUSH1 0x0 PUSH1 0x20 DUP3 ADD SWAP1 POP SWAP2 SWAP1 POP JUMP JUMPDEST PUSH1 0x0 PUSH2 0x1781 DUP3 PUSH2 0x16DF JUMP JUMPDEST PUSH2 0x178B DUP2 DUP6 PUSH2 0x16EA JUMP JUMPDEST SWAP4 POP DUP4 PUSH1 0x20 DUP3 MUL DUP6 ADD PUSH2 0x179D DUP6 PUSH2 0x16FB JUMP JUMPDEST DUP1 PUSH1 0x0 JUMPDEST DUP6 DUP2 LT ISZERO PUSH2 0x17D9 JUMPI DUP5 DUP5 SUB DUP10 MSTORE DUP2 MLOAD PUSH2 0x17BA DUP6 DUP3 PUSH2 0x1755 JUMP JUMPDEST SWAP5 POP PUSH2 0x17C5 DUP4 PUSH2 0x1769 JUMP JUMPDEST SWAP3 POP PUSH1 0x20 DUP11 ADD SWAP10 POP POP PUSH1 0x1 DUP2 ADD SWAP1 POP PUSH2 0x17A1 JUMP JUMPDEST POP DUP3 SWAP8 POP DUP8 SWAP6 POP POP POP POP POP POP SWAP3 SWAP2 POP POP JUMP JUMPDEST PUSH1 0x0 PUSH1 0x20 DUP3 ADD SWAP1 POP DUP2 DUP2 SUB PUSH1 0x0 DUP4 ADD MSTORE PUSH2 0x1805 DUP2 DUP5 PUSH2 0x1776 JUMP JUMPDEST SWAP1 POP SWAP3 SWAP2 POP POP JUMP JUMPDEST PUSH1 0x0 PUSH20 0xFFFFFFFFFFFFFFFFFFFFFFFFFFFFFFFFFFFFFFFF DUP3 AND SWAP1 POP SWAP2 SWAP1 POP JUMP JUMPDEST PUSH1 0x0 PUSH2 0x1838 DUP3 PUSH2 0x180D JUMP JUMPDEST SWAP1 POP SWAP2 SWAP1 POP JUMP JUMPDEST PUSH2 0x1848 DUP2 PUSH2 0x182D JUMP JUMPDEST DUP3 MSTORE POP POP JUMP JUMPDEST PUSH1 0x0 PUSH1 0x20 DUP3 ADD SWAP1 POP PUSH2 0x1863 PUSH1 0x0 DUP4 ADD DUP5 PUSH2 0x183F JUMP JUMPDEST SWAP3 SWAP2 POP POP JUMP JUMPDEST PUSH1 0x0 PUSH2 0x180 DUP3 DUP5 SUB SLT ISZERO PUSH2 0x1880 JUMPI PUSH2 0x187F PUSH2 0x110E JUMP JUMPDEST JUMPDEST PUSH2 0x188B PUSH2 0x180 PUSH2 0x1184 JUMP JUMPDEST SWAP1 POP PUSH1 0x0 PUSH2 0x189B DUP5 DUP3 DUP6 ADD PUSH2 0x11C0 JUMP JUMPDEST PUSH1 0x0 DUP4 ADD MSTORE POP PUSH1 0x20 PUSH2 0x18AF DUP5 DUP3 DUP6 ADD PUSH2 0x11C0 JUMP JUMPDEST PUSH1 0x20 DUP4 ADD MSTORE POP PUSH1 0x40 PUSH2 0x18C3 DUP5 DUP3 DUP6 ADD PUSH2 0x11C0 JUMP JUMPDEST PUSH1 0x40 DUP4 ADD MSTORE POP PUSH1 0x60 PUSH2 0x18D7 DUP5 DUP3 DUP6 ADD PUSH2 0x11C0 JUMP JUMPDEST PUSH1 0x60 DUP4 ADD MSTORE POP PUSH1 0x80 PUSH2 0x18EB DUP5 DUP3 DUP6 ADD PUSH2 0x11C0 JUMP JUMPDEST PUSH1 0x80 DUP4 ADD MSTORE POP PUSH1 0xA0 PUSH2 0x18FF DUP5 DUP3 DUP6 ADD PUSH2 0x11C0 JUMP JUMPDEST PUSH1 0xA0 DUP4 ADD MSTORE POP PUSH1 0xC0 PUSH2 0x1913 DUP5 DUP3 DUP6 ADD PUSH2 0x11C0 JUMP JUMPDEST PUSH1 0xC0 DUP4 ADD MSTORE POP PUSH1 0xE0 PUSH2 0x1927 DUP5 DUP3 DUP6 ADD PUSH2 0x11C0 JUMP JUMPDEST PUSH1 0xE0 DUP4 ADD MSTORE POP PUSH2 0x100 PUSH2 0x193C DUP5 DUP3 DUP6 ADD PUSH2 0x11C0 JUMP JUMPDEST PUSH2 0x100 DUP4 ADD MSTORE POP PUSH2 0x120 PUSH2 0x1952 DUP5 DUP3 DUP6 ADD PUSH2 0x11C0 JUMP JUMPDEST PUSH2 0x120 DUP4 ADD MSTORE POP PUSH2 0x140 PUSH2 0x1968 DUP5 DUP3 DUP6 ADD PUSH2 0x11C0 JUMP JUMPDEST PUSH2 0x140 DUP4 ADD MSTORE POP PUSH2 0x160 PUSH2 0x197E DUP5 DUP3 DUP6 ADD PUSH2 0x11C0 JUMP JUMPDEST PUSH2 0x160 DUP4 ADD MSTORE POP SWAP3 SWAP2 POP POP JUMP JUMPDEST PUSH1 0x0 DUP1 PUSH1 0x0 PUSH2 0x1A0 DUP5 DUP7 SUB SLT ISZERO PUSH2 0x19A5 JUMPI PUSH2 0x19A4 PUSH2 0xFB6 JUMP JUMPDEST JUMPDEST PUSH1 0x0 DUP5 ADD CALLDATALOAD PUSH8 0xFFFFFFFFFFFFFFFF DUP2 GT ISZERO PUSH2 0x19C3 JUMPI PUSH2 0x19C2 PUSH2 0xFBB JUMP JUMPDEST JUMPDEST PUSH2 0x19CF DUP7 DUP3 DUP8 ADD PUSH2 0xFCF JUMP JUMPDEST SWAP4 POP SWAP4 POP POP PUSH1 0x20 PUSH2 0x19E2 DUP7 DUP3 DUP8 ADD PUSH2 0x1869 JUMP JUMPDEST SWAP2 POP POP SWAP3 POP SWAP3 POP SWAP3 JUMP JUMPDEST PUSH1 0x0 DUP2 SWAP1 POP SWAP3 SWAP2 POP POP JUMP JUMPDEST PUSH1 0x0 PUSH2 0x1A03 DUP4 DUP6 PUSH2 0x19EC JUMP JUMPDEST SWAP4 POP PUSH2 0x1A10 DUP4 DUP6 DUP5 PUSH2 0x1418 JUMP JUMPDEST DUP3 DUP5 ADD SWAP1 POP SWAP4 SWAP3 POP POP POP JUMP JUMPDEST PUSH1 0x0 PUSH2 0x1A29 DUP3 DUP5 DUP7 PUSH2 0x19F7 JUMP JUMPDEST SWAP2 POP DUP2 SWAP1 POP SWAP4 SWAP3 POP POP POP JUMP JUMPDEST PUSH32 0x4E487B7100000000000000000000000000000000000000000000000000000000 PUSH1 0x0 MSTORE PUSH1 0x22 PUSH1 0x4 MSTORE PUSH1 0x24 PUSH1 0x0 REVERT JUMPDEST PUSH1 0x0 PUSH1 0x2 DUP3 DIV SWAP1 POP PUSH1 0x1 DUP3 AND DUP1 PUSH2 0x1A7C JUMPI PUSH1 0x7F DUP3 AND SWAP2 POP JUMPDEST PUSH1 0x20 DUP3 LT DUP2 EQ ISZERO PUSH2 0x1A90 JUMPI PUSH2 0x1A8F PUSH2 0x1A35 JUMP JUMPDEST JUMPDEST POP SWAP2 SWAP1 POP JUMP INVALID LOG2 PUSH5 0x6970667358 0x22 SLT KECCAK256 0xE8 INVALID SWAP3 0xB2 JUMPDEST PUSH32 0x3E4B604560F5097AFC403138D6157657AA7E5D62C7470520EC6C64736F6C6343 STOP ADDMOD MULMOD STOP CALLER LOG2 PUSH5 0x6970667358 0x22 SLT KECCAK256 0xBB NUMBER 0xAE DUP15 0xCA 0xAD SWAP6 0x28 0xD1 MUL GASPRICE CALL KECCAK256 PUSH9 0xC66252C8DDB2B55421 SELFDESTRUCT SUB 0xC8 0x21 PUSH16 0x26F1708464736F6C6343000809003300 "
    },
    "gasEstimates": {
      "creation": {
        "codeDepositCost": "1657600",
        "executionCost": "1736",
        "totalCost": "1659336"
      },
      "external": {
        "addSchool()": "infinite",
        "deployedSchools(uint256)": "infinite",
        "getAllSchools()": "infinite"
      }
    },
    "methodIdentifiers": {
      "addSchool()": "05ad1d16",
      "deployedSchools(uint256)": "4eed407e",
      "getAllSchools()": "bae324fc"
    }
  },
  "storageLayout": {
    "storage": [
      {
        "astId": 5,
        "contract": "glassyVault.sol:CreateSchool",
        "label": "deployedSchools",
        "offset": 0,
        "slot": "0",
        "type": "t_array(t_contract(School)369)dyn_storage"
      }
    ],
    "types": {
      "t_array(t_contract(School)369)dyn_storage": {
        "base": "t_contract(School)369",
        "encoding": "dynamic_array",
        "label": "contract School[]",
        "numberOfBytes": "32"
      },
      "t_contract(School)369": {
        "encoding": "inplace",
        "label": "contract School",
        "numberOfBytes": "20"
      }
    }
  },
  "userdoc": {
    "kind": "user",
    "methods": {},
    "version": 1
  }
}